{
  "contractName": "MenloToken",
  "abi": [
    {
      "constant": true,
      "inputs": [],
      "name": "name",
      "outputs": [
        {
          "name": "",
          "type": "string"
        }
      ],
      "payable": false,
      "stateMutability": "view",
      "type": "function"
    },
    {
      "constant": false,
      "inputs": [
        {
          "name": "_spender",
          "type": "address"
        },
        {
          "name": "_value",
          "type": "uint256"
        }
      ],
      "name": "approve",
      "outputs": [
        {
          "name": "",
          "type": "bool"
        }
      ],
      "payable": false,
      "stateMutability": "nonpayable",
      "type": "function"
    },
    {
      "constant": false,
      "inputs": [
        {
          "name": "_token",
          "type": "address"
        }
      ],
      "name": "reclaimToken",
      "outputs": [],
      "payable": false,
      "stateMutability": "nonpayable",
      "type": "function"
    },
    {
      "constant": true,
      "inputs": [],
      "name": "totalSupply",
      "outputs": [
        {
          "name": "",
          "type": "uint256"
        }
      ],
      "payable": false,
      "stateMutability": "view",
      "type": "function"
    },
    {
      "constant": false,
      "inputs": [
        {
          "name": "_from",
          "type": "address"
        },
        {
          "name": "_to",
          "type": "address"
        },
        {
          "name": "_value",
          "type": "uint256"
        }
      ],
      "name": "transferFrom",
      "outputs": [
        {
          "name": "",
          "type": "bool"
        }
      ],
      "payable": false,
      "stateMutability": "nonpayable",
      "type": "function"
    },
    {
      "constant": true,
      "inputs": [],
      "name": "INITIAL_SUPPLY",
      "outputs": [
        {
          "name": "",
          "type": "uint256"
        }
      ],
      "payable": false,
      "stateMutability": "view",
      "type": "function"
    },
    {
      "constant": true,
      "inputs": [],
      "name": "decimals",
      "outputs": [
        {
          "name": "",
          "type": "uint8"
        }
      ],
      "payable": false,
      "stateMutability": "view",
      "type": "function"
    },
    {
      "constant": false,
      "inputs": [],
      "name": "unpause",
      "outputs": [],
      "payable": false,
      "stateMutability": "nonpayable",
      "type": "function"
    },
    {
      "constant": false,
      "inputs": [
        {
          "name": "_value",
          "type": "uint256"
        }
      ],
      "name": "burn",
      "outputs": [],
      "payable": false,
      "stateMutability": "nonpayable",
      "type": "function"
    },
    {
      "constant": true,
      "inputs": [],
      "name": "teamTimelock",
      "outputs": [
        {
          "name": "",
          "type": "address"
        }
      ],
      "payable": false,
      "stateMutability": "view",
      "type": "function"
    },
    {
      "constant": true,
      "inputs": [],
      "name": "ADVISOR_SUPPLY",
      "outputs": [
        {
          "name": "",
          "type": "uint256"
        }
      ],
      "payable": false,
      "stateMutability": "view",
      "type": "function"
    },
    {
      "constant": true,
      "inputs": [],
      "name": "advisorTimelock",
      "outputs": [
        {
          "name": "",
          "type": "address"
        }
      ],
      "payable": false,
      "stateMutability": "view",
      "type": "function"
    },
    {
      "constant": true,
      "inputs": [],
      "name": "GROWTH_SUPPLY",
      "outputs": [
        {
          "name": "",
          "type": "uint256"
        }
      ],
      "payable": false,
      "stateMutability": "view",
      "type": "function"
    },
    {
      "constant": true,
      "inputs": [],
      "name": "paused",
      "outputs": [
        {
          "name": "",
          "type": "bool"
        }
      ],
      "payable": false,
      "stateMutability": "view",
      "type": "function"
    },
    {
      "constant": false,
      "inputs": [
        {
          "name": "_spender",
          "type": "address"
        },
        {
          "name": "_subtractedValue",
          "type": "uint256"
        }
      ],
      "name": "decreaseApproval",
      "outputs": [
        {
          "name": "success",
          "type": "bool"
        }
      ],
      "payable": false,
      "stateMutability": "nonpayable",
      "type": "function"
    },
    {
      "constant": true,
      "inputs": [
        {
          "name": "_owner",
          "type": "address"
        }
      ],
      "name": "balanceOf",
      "outputs": [
        {
          "name": "",
          "type": "uint256"
        }
      ],
      "payable": false,
      "stateMutability": "view",
      "type": "function"
    },
    {
      "constant": false,
      "inputs": [],
      "name": "renounceOwnership",
      "outputs": [],
      "payable": false,
      "stateMutability": "nonpayable",
      "type": "function"
    },
    {
      "constant": false,
      "inputs": [],
      "name": "pause",
      "outputs": [],
      "payable": false,
      "stateMutability": "nonpayable",
      "type": "function"
    },
    {
      "constant": true,
      "inputs": [],
      "name": "owner",
      "outputs": [
        {
          "name": "",
          "type": "address"
        }
      ],
      "payable": false,
      "stateMutability": "view",
      "type": "function"
    },
    {
      "constant": true,
      "inputs": [],
      "name": "symbol",
      "outputs": [
        {
          "name": "",
          "type": "string"
        }
      ],
      "payable": false,
      "stateMutability": "view",
      "type": "function"
    },
    {
      "constant": true,
      "inputs": [],
      "name": "crowdsale",
      "outputs": [
        {
          "name": "",
          "type": "address"
        }
      ],
      "payable": false,
      "stateMutability": "view",
      "type": "function"
    },
    {
      "constant": false,
      "inputs": [
        {
          "name": "_to",
          "type": "address"
        },
        {
          "name": "_value",
          "type": "uint256"
        }
      ],
      "name": "transfer",
      "outputs": [
        {
          "name": "",
          "type": "bool"
        }
      ],
      "payable": false,
      "stateMutability": "nonpayable",
      "type": "function"
    },
    {
      "constant": true,
      "inputs": [],
      "name": "TEAM_SUPPLY",
      "outputs": [
        {
          "name": "",
          "type": "uint256"
        }
      ],
      "payable": false,
      "stateMutability": "view",
      "type": "function"
    },
    {
      "constant": true,
      "inputs": [],
      "name": "PARTNER_SUPPLY",
      "outputs": [
        {
          "name": "",
          "type": "uint256"
        }
      ],
      "payable": false,
      "stateMutability": "view",
      "type": "function"
    },
    {
      "constant": false,
      "inputs": [
        {
          "name": "_spender",
          "type": "address"
        },
        {
          "name": "_addedValue",
          "type": "uint256"
        }
      ],
      "name": "increaseApproval",
      "outputs": [
        {
          "name": "success",
          "type": "bool"
        }
      ],
      "payable": false,
      "stateMutability": "nonpayable",
      "type": "function"
    },
    {
      "constant": true,
      "inputs": [
        {
          "name": "_owner",
          "type": "address"
        },
        {
          "name": "_spender",
          "type": "address"
        }
      ],
      "name": "allowance",
      "outputs": [
        {
          "name": "",
          "type": "uint256"
        }
      ],
      "payable": false,
      "stateMutability": "view",
      "type": "function"
    },
    {
      "constant": true,
      "inputs": [],
      "name": "PUBLICSALE_SUPPLY",
      "outputs": [
        {
          "name": "",
          "type": "uint256"
        }
      ],
      "payable": false,
      "stateMutability": "view",
      "type": "function"
    },
    {
      "constant": false,
      "inputs": [
        {
          "name": "_newOwner",
          "type": "address"
        }
      ],
      "name": "transferOwnership",
      "outputs": [],
      "payable": false,
      "stateMutability": "nonpayable",
      "type": "function"
    },
    {
      "inputs": [
        {
          "name": "_growth",
          "type": "address"
        },
        {
          "name": "_teamTimelock",
          "type": "address"
        },
        {
          "name": "_advisorTimelock",
          "type": "address"
        },
        {
          "name": "_partner",
          "type": "address"
        }
      ],
      "payable": false,
      "stateMutability": "nonpayable",
      "type": "constructor"
    },
    {
      "anonymous": false,
      "inputs": [
        {
          "indexed": true,
          "name": "burner",
          "type": "address"
        },
        {
          "indexed": false,
          "name": "value",
          "type": "uint256"
        }
      ],
      "name": "Burn",
      "type": "event"
    },
    {
      "anonymous": false,
      "inputs": [],
      "name": "Pause",
      "type": "event"
    },
    {
      "anonymous": false,
      "inputs": [],
      "name": "Unpause",
      "type": "event"
    },
    {
      "anonymous": false,
      "inputs": [
        {
          "indexed": true,
          "name": "previousOwner",
          "type": "address"
        }
      ],
      "name": "OwnershipRenounced",
      "type": "event"
    },
    {
      "anonymous": false,
      "inputs": [
        {
          "indexed": true,
          "name": "previousOwner",
          "type": "address"
        },
        {
          "indexed": true,
          "name": "newOwner",
          "type": "address"
        }
      ],
      "name": "OwnershipTransferred",
      "type": "event"
    },
    {
      "anonymous": false,
      "inputs": [
        {
          "indexed": true,
          "name": "owner",
          "type": "address"
        },
        {
          "indexed": true,
          "name": "spender",
          "type": "address"
        },
        {
          "indexed": false,
          "name": "value",
          "type": "uint256"
        }
      ],
      "name": "Approval",
      "type": "event"
    },
    {
      "anonymous": false,
      "inputs": [
        {
          "indexed": true,
          "name": "from",
          "type": "address"
        },
        {
          "indexed": true,
          "name": "to",
          "type": "address"
        },
        {
          "indexed": false,
          "name": "value",
          "type": "uint256"
        }
      ],
      "name": "Transfer",
      "type": "event"
    },
    {
      "constant": false,
      "inputs": [
        {
          "name": "_crowdsale",
          "type": "address"
        }
      ],
      "name": "initializeCrowdsale",
      "outputs": [],
      "payable": false,
      "stateMutability": "nonpayable",
      "type": "function"
    },
    {
      "constant": false,
      "inputs": [
        {
          "name": "_to",
          "type": "address"
        },
        {
          "name": "_value",
          "type": "uint256"
        },
        {
          "name": "_action",
          "type": "uint256"
        },
        {
          "name": "_data",
          "type": "bytes"
        }
      ],
      "name": "transferAndCall",
      "outputs": [
        {
          "name": "",
          "type": "bool"
        }
      ],
      "payable": false,
      "stateMutability": "nonpayable",
      "type": "function"
    }
  ],
  "bytecode": "0x60806040526003805460a060020a60ff02191690553480156200002157600080fd5b5060405160808062001520833981016040908152815160208301519183015160609093015160038054600160a060020a0319163317905590929060006b02165bd22bd91fa44600000090506b0124d26a73f76098a200000060058054600160a060020a03808816600160a060020a0319928316179092556006805492871692909116919091179055620000be338264010000000062000175810204565b620000de866acb7c86b8b8ec58b600000064010000000062000175810204565b620000fe856aa56fa5b99019a5c800000064010000000062000175810204565b6200011e846a52b7d2dcc80cd2e400000064010000000062000175810204565b6200013e836a52b7d2dcc80cd2e400000064010000000062000175810204565b6001546b033b2e3c9fd0803ce8000000146200015657fe5b62000169640100000000620001f5810204565b5050505050506200029c565b600160a060020a0382166000908152602081905260409020819055600154620001ad9082640100000000620011f56200028882021704565b600155604080518281529051600160a060020a038416916000917fddf252ad1be2c89b69c2b068fc378daa952ba7f163c4a11628f55a4df523b3ef9181900360200190a35050565b600354600160a060020a031633146200020d57600080fd5b60035474010000000000000000000000000000000000000000900460ff16156200023657600080fd5b6003805460a060020a60ff021916740100000000000000000000000000000000000000001790556040517f6985a02210a168e66602d3235cb6db0e70f92b3ba4d376a33c0f3d9434bff62590600090a1565b818101828110156200029657fe5b92915050565b61127480620002ac6000396000f3006080604052600436106101665763ffffffff60e060020a60003504166306fdde03811461016b578063095ea7b3146101f557806317ffc3201461022d57806318160ddd1461025057806323b872dd146102775780632ff2e9dc146102a1578063313ce567146102b65780633f4ba83a146102e157806342966c68146102f65780634fed6a101461030e57806350c2e4f61461033f5780635960b74f146103545780635b52c7fb146103695780635c975abb1461037e578063661884631461039357806370a08231146103b7578063715018a6146103d85780638456cb59146103ed5780638c88512f146104025780638da5cb5b1461042357806395d89b41146104385780639c1e03a01461044d578063a9059cbb14610462578063b9c3a81814610486578063c48590e91461033f578063d1c673e91461049b578063d73dd62314610507578063dd62ed3e1461052b578063ef9f602314610552578063f2fde38b14610567575b600080fd5b34801561017757600080fd5b50610180610588565b6040805160208082528351818301528351919283929083019185019080838360005b838110156101ba5781810151838201526020016101a2565b50505050905090810190601f1680156101e75780820380516001836020036101000a031916815260200191505b509250505060405180910390f35b34801561020157600080fd5b50610219600160a060020a03600435166024356105ae565b604080519115158252519081900360200190f35b34801561023957600080fd5b5061024e600160a060020a03600435166105d9565b005b34801561025c57600080fd5b50610265610691565b60408051918252519081900360200190f35b34801561028357600080fd5b50610219600160a060020a0360043581169060243516604435610697565b3480156102ad57600080fd5b506102656106c4565b3480156102c257600080fd5b506102cb6106d4565b6040805160ff9092168252519081900360200190f35b3480156102ed57600080fd5b5061024e6106d9565b34801561030257600080fd5b5061024e600435610743565b34801561031a57600080fd5b50610323610750565b60408051600160a060020a039092168252519081900360200190f35b34801561034b57600080fd5b5061026561075f565b34801561036057600080fd5b5061032361076e565b34801561037557600080fd5b5061026561077d565b34801561038a57600080fd5b5061021961078c565b34801561039f57600080fd5b50610219600160a060020a036004351660243561079c565b3480156103c357600080fd5b50610265600160a060020a03600435166107c0565b3480156103e457600080fd5b5061024e6107db565b3480156103f957600080fd5b5061024e61083c565b34801561040e57600080fd5b5061024e600160a060020a03600435166108ab565b34801561042f57600080fd5b50610323610974565b34801561044457600080fd5b50610180610983565b34801561045957600080fd5b506103236109a3565b34801561046e57600080fd5b50610219600160a060020a03600435166024356109b2565b34801561049257600080fd5b506102656109d6565b3480156104a757600080fd5b50604080516020601f60643560048181013592830184900484028501840190955281845261021994600160a060020a0381351694602480359560443595369560849493019181908401838280828437509497506109e59650505050505050565b34801561051357600080fd5b50610219600160a060020a0360043516602435610b7d565b34801561053757600080fd5b50610265600160a060020a0360043581169060243516610ba1565b34801561055e57600080fd5b50610265610bcc565b34801561057357600080fd5b5061024e600160a060020a0360043516610bdc565b604080518082019091526009815260b860020a684d656e6c6f204f6e6502602082015281565b60035460009060a060020a900460ff16156105c857600080fd5b6105d28383610bfc565b9392505050565b600354600090600160a060020a031633146105f357600080fd5b6040805160e060020a6370a082310281523060048201529051600160a060020a038416916370a082319160248083019260209291908290030181600087803b15801561063e57600080fd5b505af1158015610652573d6000803e3d6000fd5b505050506040513d602081101561066857600080fd5b505160035490915061068d90600160a060020a0384811691168363ffffffff610c5016565b5050565b60015490565b60035460009060a060020a900460ff16156106b157600080fd5b6106bc848484610cef565b949350505050565b6b033b2e3c9fd0803ce800000081565b601281565b600354600160a060020a031633146106f057600080fd5b60035460a060020a900460ff16151561070857600080fd5b6003805460a060020a60ff02191690556040517f7805862f689e2f13df9f062ff482ad3ad112aca9e0847911ed832e158c525b3390600090a1565b61074d3382610e52565b50565b600554600160a060020a031681565b6a52b7d2dcc80cd2e400000081565b600654600160a060020a031681565b6acb7c86b8b8ec58b600000081565b60035460a060020a900460ff1681565b60035460009060a060020a900460ff16156107b657600080fd5b6105d28383610f41565b600160a060020a031660009081526020819052604090205490565b600354600160a060020a031633146107f257600080fd5b600354604051600160a060020a03909116907ff8df31144d9c2f0f6b59d69b8b98abd5459d07f2742c4df920b25aae33c6482090600090a260038054600160a060020a0319169055565b600354600160a060020a0316331461085357600080fd5b60035460a060020a900460ff161561086a57600080fd5b6003805460a060020a60ff02191660a060020a1790556040517f6985a02210a168e66602d3235cb6db0e70f92b3ba4d376a33c0f3d9434bff62590600090a1565b600354600160a060020a031633146108c257600080fd5b600454600160a060020a03168015610924576040805160e560020a62461bcd02815260206004820152601b60248201527f4578706563746564206164647265737320746f206265206e756c6c0000000000604482015290519081900360640190fd5b61092c6106d9565b336000908152602081905260409020546109479083906109b2565b5060048054600160a060020a031916600160a060020a03841617905561096b61083c565b61068d82610bdc565b600354600160a060020a031681565b604080518082019091526003815260e860020a624f4e4502602082015281565b600454600160a060020a031681565b60035460009060a060020a900460ff16156109cc57600080fd5b6105d2838361101e565b6aa56fa5b99019a5c800000081565b60006109f185856109b2565b15610b725760405160e460020a630a5938410281523360048201818152602483018790526044830186905260806064840190815285516084850152855160e060020a63150b7a030294600160a060020a038b169463a59384109490938b938b938b93929160a490910190602085019080838360005b83811015610a7e578181015183820152602001610a66565b50505050905090810190601f168015610aab5780820380516001836020036101000a031916815260200191505b5095505050505050602060405180830381600087803b158015610acd57600080fd5b505af1158015610ae1573d6000803e3d6000fd5b505050506040513d6020811015610af757600080fd5b5051600160e060020a03191614610b6a576040805160e560020a62461bcd02815260206004820152602660248201527f54617267657420636f6e7472616374206f6e546f6b656e526563656976656420604482015260d260020a6519985a5b195902606482015290519081900360840190fd5b5060016106bc565b506000949350505050565b60035460009060a060020a900460ff1615610b9757600080fd5b6105d283836110eb565b600160a060020a03918216600090815260026020908152604080832093909416825291909152205490565b6b0124d26a73f76098a200000081565b600354600160a060020a03163314610bf357600080fd5b61074d81611172565b336000818152600260209081526040808320600160a060020a03871680855290835281842086905581518681529151939490939092600080516020611229833981519152928290030190a350600192915050565b82600160a060020a031663a9059cbb83836040518363ffffffff1660e060020a0281526004018083600160a060020a0316600160a060020a0316815260200182815260200192505050602060405180830381600087803b158015610cb357600080fd5b505af1158015610cc7573d6000803e3d6000fd5b505050506040513d6020811015610cdd57600080fd5b50511515610cea57600080fd5b505050565b600160a060020a038316600090815260208190526040812054821115610d1457600080fd5b600160a060020a0384166000908152600260209081526040808320338452909152902054821115610d4457600080fd5b600160a060020a0383161515610d5957600080fd5b600160a060020a038416600090815260208190526040902054610d82908363ffffffff6111e316565b600160a060020a038086166000908152602081905260408082209390935590851681522054610db7908363ffffffff6111f516565b600160a060020a03808516600090815260208181526040808320949094559187168152600282528281203382529091522054610df9908363ffffffff6111e316565b600160a060020a0380861660008181526002602090815260408083203384528252918290209490945580518681529051928716939192600080516020611209833981519152929181900390910190a35060019392505050565b600160a060020a038216600090815260208190526040902054811115610e7757600080fd5b600160a060020a038216600090815260208190526040902054610ea0908263ffffffff6111e316565b600160a060020a038316600090815260208190526040902055600154610ecc908263ffffffff6111e316565b600155604080518281529051600160a060020a038416917fcc16f5dbb4873280815c1ee09dbd06736cffcc184412cf7a71a0fdb75d397ca5919081900360200190a2604080518281529051600091600160a060020a038516916000805160206112098339815191529181900360200190a35050565b336000908152600260209081526040808320600160a060020a0386168452909152812054808310610f9557336000908152600260209081526040808320600160a060020a0388168452909152812055610fca565b610fa5818463ffffffff6111e316565b336000908152600260209081526040808320600160a060020a03891684529091529020555b336000818152600260209081526040808320600160a060020a038916808552908352928190205481519081529051929392600080516020611229833981519152929181900390910190a35060019392505050565b3360009081526020819052604081205482111561103a57600080fd5b600160a060020a038316151561104f57600080fd5b3360009081526020819052604090205461106f908363ffffffff6111e316565b3360009081526020819052604080822092909255600160a060020a038516815220546110a1908363ffffffff6111f516565b600160a060020a038416600081815260208181526040918290209390935580518581529051919233926000805160206112098339815191529281900390910190a350600192915050565b336000908152600260209081526040808320600160a060020a038616845290915281205461111f908363ffffffff6111f516565b336000818152600260209081526040808320600160a060020a038916808552908352928190208590558051948552519193600080516020611229833981519152929081900390910190a350600192915050565b600160a060020a038116151561118757600080fd5b600354604051600160a060020a038084169216907f8be0079c531659141344cd1fd0a4f28419497f9722a3daafe3b4186f6b6457e090600090a360038054600160a060020a031916600160a060020a0392909216919091179055565b6000828211156111ef57fe5b50900390565b8181018281101561120257fe5b929150505600ddf252ad1be2c89b69c2b068fc378daa952ba7f163c4a11628f55a4df523b3ef8c5be1e5ebec7d5bd14f71427d1e84f3dd0314c0f7b2291e5b200ac8c7c3b925a165627a7a72305820482baec2275e749da6877edf869fcf412eb35215c47b67939cbdc119199728310029",
  "source": "pragma solidity ^0.4.13;\n\nlibrary SafeMath {\n\n  /**\n  * @dev Multiplies two numbers, throws on overflow.\n  */\n  function mul(uint256 _a, uint256 _b) internal pure returns (uint256 c) {\n    // Gas optimization: this is cheaper than asserting 'a' not being zero, but the\n    // benefit is lost if 'b' is also tested.\n    // See: https://github.com/OpenZeppelin/openzeppelin-solidity/pull/522\n    if (_a == 0) {\n      return 0;\n    }\n\n    c = _a * _b;\n    assert(c / _a == _b);\n    return c;\n  }\n\n  /**\n  * @dev Integer division of two numbers, truncating the quotient.\n  */\n  function div(uint256 _a, uint256 _b) internal pure returns (uint256) {\n    // assert(_b > 0); // Solidity automatically throws when dividing by 0\n    // uint256 c = _a / _b;\n    // assert(_a == _b * c + _a % _b); // There is no case in which this doesn't hold\n    return _a / _b;\n  }\n\n  /**\n  * @dev Subtracts two numbers, throws on overflow (i.e. if subtrahend is greater than minuend).\n  */\n  function sub(uint256 _a, uint256 _b) internal pure returns (uint256) {\n    assert(_b <= _a);\n    return _a - _b;\n  }\n\n  /**\n  * @dev Adds two numbers, throws on overflow.\n  */\n  function add(uint256 _a, uint256 _b) internal pure returns (uint256 c) {\n    c = _a + _b;\n    assert(c >= _a);\n    return c;\n  }\n}\n\ncontract Ownable {\n  address public owner;\n\n\n  event OwnershipRenounced(address indexed previousOwner);\n  event OwnershipTransferred(\n    address indexed previousOwner,\n    address indexed newOwner\n  );\n\n\n  /**\n   * @dev The Ownable constructor sets the original `owner` of the contract to the sender\n   * account.\n   */\n  constructor() public {\n    owner = msg.sender;\n  }\n\n  /**\n   * @dev Throws if called by any account other than the owner.\n   */\n  modifier onlyOwner() {\n    require(msg.sender == owner);\n    _;\n  }\n\n  /**\n   * @dev Allows the current owner to relinquish control of the contract.\n   * @notice Renouncing to ownership will leave the contract without an owner.\n   * It will not be possible to call the functions with the `onlyOwner`\n   * modifier anymore.\n   */\n  function renounceOwnership() public onlyOwner {\n    emit OwnershipRenounced(owner);\n    owner = address(0);\n  }\n\n  /**\n   * @dev Allows the current owner to transfer control of the contract to a newOwner.\n   * @param _newOwner The address to transfer ownership to.\n   */\n  function transferOwnership(address _newOwner) public onlyOwner {\n    _transferOwnership(_newOwner);\n  }\n\n  /**\n   * @dev Transfers control of the contract to a newOwner.\n   * @param _newOwner The address to transfer ownership to.\n   */\n  function _transferOwnership(address _newOwner) internal {\n    require(_newOwner != address(0));\n    emit OwnershipTransferred(owner, _newOwner);\n    owner = _newOwner;\n  }\n}\n\ncontract Pausable is Ownable {\n  event Pause();\n  event Unpause();\n\n  bool public paused = false;\n\n\n  /**\n   * @dev Modifier to make a function callable only when the contract is not paused.\n   */\n  modifier whenNotPaused() {\n    require(!paused);\n    _;\n  }\n\n  /**\n   * @dev Modifier to make a function callable only when the contract is paused.\n   */\n  modifier whenPaused() {\n    require(paused);\n    _;\n  }\n\n  /**\n   * @dev called by the owner to pause, triggers stopped state\n   */\n  function pause() public onlyOwner whenNotPaused {\n    paused = true;\n    emit Pause();\n  }\n\n  /**\n   * @dev called by the owner to unpause, returns to normal state\n   */\n  function unpause() public onlyOwner whenPaused {\n    paused = false;\n    emit Unpause();\n  }\n}\n\ncontract CanReclaimToken is Ownable {\n  using SafeERC20 for ERC20Basic;\n\n  /**\n   * @dev Reclaim all ERC20Basic compatible tokens\n   * @param _token ERC20Basic The address of the token contract\n   */\n  function reclaimToken(ERC20Basic _token) external onlyOwner {\n    uint256 balance = _token.balanceOf(this);\n    _token.safeTransfer(owner, balance);\n  }\n\n}\n\ncontract ERC20Basic {\n  function totalSupply() public view returns (uint256);\n  function balanceOf(address _who) public view returns (uint256);\n  function transfer(address _to, uint256 _value) public returns (bool);\n  event Transfer(address indexed from, address indexed to, uint256 value);\n}\n\ncontract BasicToken is ERC20Basic {\n  using SafeMath for uint256;\n\n  mapping(address => uint256) internal balances;\n\n  uint256 internal totalSupply_;\n\n  /**\n  * @dev Total number of tokens in existence\n  */\n  function totalSupply() public view returns (uint256) {\n    return totalSupply_;\n  }\n\n  /**\n  * @dev Transfer token for a specified address\n  * @param _to The address to transfer to.\n  * @param _value The amount to be transferred.\n  */\n  function transfer(address _to, uint256 _value) public returns (bool) {\n    require(_value <= balances[msg.sender]);\n    require(_to != address(0));\n\n    balances[msg.sender] = balances[msg.sender].sub(_value);\n    balances[_to] = balances[_to].add(_value);\n    emit Transfer(msg.sender, _to, _value);\n    return true;\n  }\n\n  /**\n  * @dev Gets the balance of the specified address.\n  * @param _owner The address to query the the balance of.\n  * @return An uint256 representing the amount owned by the passed address.\n  */\n  function balanceOf(address _owner) public view returns (uint256) {\n    return balances[_owner];\n  }\n\n}\n\ncontract BurnableToken is BasicToken {\n\n  event Burn(address indexed burner, uint256 value);\n\n  /**\n   * @dev Burns a specific amount of tokens.\n   * @param _value The amount of token to be burned.\n   */\n  function burn(uint256 _value) public {\n    _burn(msg.sender, _value);\n  }\n\n  function _burn(address _who, uint256 _value) internal {\n    require(_value <= balances[_who]);\n    // no need to require value <= totalSupply, since that would imply the\n    // sender's balance is greater than the totalSupply, which *should* be an assertion failure\n\n    balances[_who] = balances[_who].sub(_value);\n    totalSupply_ = totalSupply_.sub(_value);\n    emit Burn(_who, _value);\n    emit Transfer(_who, address(0), _value);\n  }\n}\n\ncontract ERC20 is ERC20Basic {\n  function allowance(address _owner, address _spender)\n    public view returns (uint256);\n\n  function transferFrom(address _from, address _to, uint256 _value)\n    public returns (bool);\n\n  function approve(address _spender, uint256 _value) public returns (bool);\n  event Approval(\n    address indexed owner,\n    address indexed spender,\n    uint256 value\n  );\n}\n\nlibrary SafeERC20 {\n  function safeTransfer(\n    ERC20Basic _token,\n    address _to,\n    uint256 _value\n  )\n    internal\n  {\n    require(_token.transfer(_to, _value));\n  }\n\n  function safeTransferFrom(\n    ERC20 _token,\n    address _from,\n    address _to,\n    uint256 _value\n  )\n    internal\n  {\n    require(_token.transferFrom(_from, _to, _value));\n  }\n\n  function safeApprove(\n    ERC20 _token,\n    address _spender,\n    uint256 _value\n  )\n    internal\n  {\n    require(_token.approve(_spender, _value));\n  }\n}\n\ncontract StandardToken is ERC20, BasicToken {\n\n  mapping (address => mapping (address => uint256)) internal allowed;\n\n\n  /**\n   * @dev Transfer tokens from one address to another\n   * @param _from address The address which you want to send tokens from\n   * @param _to address The address which you want to transfer to\n   * @param _value uint256 the amount of tokens to be transferred\n   */\n  function transferFrom(\n    address _from,\n    address _to,\n    uint256 _value\n  )\n    public\n    returns (bool)\n  {\n    require(_value <= balances[_from]);\n    require(_value <= allowed[_from][msg.sender]);\n    require(_to != address(0));\n\n    balances[_from] = balances[_from].sub(_value);\n    balances[_to] = balances[_to].add(_value);\n    allowed[_from][msg.sender] = allowed[_from][msg.sender].sub(_value);\n    emit Transfer(_from, _to, _value);\n    return true;\n  }\n\n  /**\n   * @dev Approve the passed address to spend the specified amount of tokens on behalf of msg.sender.\n   * Beware that changing an allowance with this method brings the risk that someone may use both the old\n   * and the new allowance by unfortunate transaction ordering. One possible solution to mitigate this\n   * race condition is to first reduce the spender's allowance to 0 and set the desired value afterwards:\n   * https://github.com/ethereum/EIPs/issues/20#issuecomment-263524729\n   * @param _spender The address which will spend the funds.\n   * @param _value The amount of tokens to be spent.\n   */\n  function approve(address _spender, uint256 _value) public returns (bool) {\n    allowed[msg.sender][_spender] = _value;\n    emit Approval(msg.sender, _spender, _value);\n    return true;\n  }\n\n  /**\n   * @dev Function to check the amount of tokens that an owner allowed to a spender.\n   * @param _owner address The address which owns the funds.\n   * @param _spender address The address which will spend the funds.\n   * @return A uint256 specifying the amount of tokens still available for the spender.\n   */\n  function allowance(\n    address _owner,\n    address _spender\n   )\n    public\n    view\n    returns (uint256)\n  {\n    return allowed[_owner][_spender];\n  }\n\n  /**\n   * @dev Increase the amount of tokens that an owner allowed to a spender.\n   * approve should be called when allowed[_spender] == 0. To increment\n   * allowed value is better to use this function to avoid 2 calls (and wait until\n   * the first transaction is mined)\n   * From MonolithDAO Token.sol\n   * @param _spender The address which will spend the funds.\n   * @param _addedValue The amount of tokens to increase the allowance by.\n   */\n  function increaseApproval(\n    address _spender,\n    uint256 _addedValue\n  )\n    public\n    returns (bool)\n  {\n    allowed[msg.sender][_spender] = (\n      allowed[msg.sender][_spender].add(_addedValue));\n    emit Approval(msg.sender, _spender, allowed[msg.sender][_spender]);\n    return true;\n  }\n\n  /**\n   * @dev Decrease the amount of tokens that an owner allowed to a spender.\n   * approve should be called when allowed[_spender] == 0. To decrement\n   * allowed value is better to use this function to avoid 2 calls (and wait until\n   * the first transaction is mined)\n   * From MonolithDAO Token.sol\n   * @param _spender The address which will spend the funds.\n   * @param _subtractedValue The amount of tokens to decrease the allowance by.\n   */\n  function decreaseApproval(\n    address _spender,\n    uint256 _subtractedValue\n  )\n    public\n    returns (bool)\n  {\n    uint256 oldValue = allowed[msg.sender][_spender];\n    if (_subtractedValue >= oldValue) {\n      allowed[msg.sender][_spender] = 0;\n    } else {\n      allowed[msg.sender][_spender] = oldValue.sub(_subtractedValue);\n    }\n    emit Approval(msg.sender, _spender, allowed[msg.sender][_spender]);\n    return true;\n  }\n\n}\n\ncontract PausableToken is StandardToken, Pausable {\n\n  function transfer(\n    address _to,\n    uint256 _value\n  )\n    public\n    whenNotPaused\n    returns (bool)\n  {\n    return super.transfer(_to, _value);\n  }\n\n  function transferFrom(\n    address _from,\n    address _to,\n    uint256 _value\n  )\n    public\n    whenNotPaused\n    returns (bool)\n  {\n    return super.transferFrom(_from, _to, _value);\n  }\n\n  function approve(\n    address _spender,\n    uint256 _value\n  )\n    public\n    whenNotPaused\n    returns (bool)\n  {\n    return super.approve(_spender, _value);\n  }\n\n  function increaseApproval(\n    address _spender,\n    uint _addedValue\n  )\n    public\n    whenNotPaused\n    returns (bool success)\n  {\n    return super.increaseApproval(_spender, _addedValue);\n  }\n\n  function decreaseApproval(\n    address _spender,\n    uint _subtractedValue\n  )\n    public\n    whenNotPaused\n    returns (bool success)\n  {\n    return super.decreaseApproval(_spender, _subtractedValue);\n  }\n}\n\ncontract MenloSaleBase is Ownable {\n  using SafeMath for uint256;\n\n  // Whitelisted investors\n  mapping (address => bool) public whitelist;\n\n  // Special role used exclusively for managing the whitelist\n  address public whitelister;\n\n  // manual early close flag\n  bool public isFinalized;\n\n  // cap for crowdsale in wei\n  uint256 public cap;\n\n  // The token being sold\n  MenloToken public token;\n\n  // start and end timestamps where contributions are allowed (both inclusive)\n  uint256 public startTime;\n  uint256 public endTime;\n\n  // address where funds are collected\n  address public wallet;\n\n  // amount of raised money in wei\n  uint256 public weiRaised;\n\n  /**\n   * @dev Throws if called by any account other than the whitelister.\n   */\n  modifier onlyWhitelister() {\n    require(msg.sender == whitelister, \"Sender should be whitelister\");\n    _;\n  }\n\n  /**\n   * event for token purchase logging\n   * @param purchaser who bought the tokens\n   * @param value weis paid for purchase\n   * @param amount amount of tokens purchased\n   */\n  event TokenPurchase(address indexed purchaser, uint256 value, uint256 amount);\n\n  /**\n   * event for token redemption logging\n   * @param purchaser who bought the tokens\n   * @param amount amount of tokens redeemed\n   */\n  event TokenRedeem(address indexed purchaser, uint256 amount);\n\n  // termination early or otherwise\n  event Finalized();\n\n  event TokensRefund(uint256 amount);\n\n  /**\n   * event refund of excess ETH if purchase is above the cap\n   * @param amount amount of ETH (in wei) refunded\n   */\n  event Refund(address indexed purchaser, uint256 amount);\n\n  constructor(\n      MenloToken _token,\n      uint256 _startTime,\n      uint256 _endTime,\n      uint256 _cap,\n      address _wallet\n  ) public {\n    require(_startTime >= getBlockTimestamp(), \"Start time should be in the future\");\n    require(_endTime >= _startTime, \"End time should be after start time\");\n    require(_wallet != address(0), \"Wallet address should be non-zero\");\n    require(_token != address(0), \"Token address should be non-zero\");\n    require(_cap > 0, \"Cap should be greater than zero\");\n\n    token = _token;\n\n    startTime = _startTime;\n    endTime = _endTime;\n    cap = _cap;\n    wallet = _wallet;\n  }\n\n  // fallback function can be used to buy tokens\n  function () public payable {\n    buyTokens();\n  }\n\n  // Abstract methods\n  function calculateBonusRate() public view returns (uint256);\n  function buyTokensHook(uint256 _tokens) internal;\n\n  function buyTokens() public payable returns (uint256) {\n    require(whitelist[msg.sender], \"Expected msg.sender to be whitelisted\");\n    checkFinalize();\n    require(!isFinalized, \"Should not be finalized when purchasing\");\n    require(getBlockTimestamp() >= startTime && getBlockTimestamp() <= endTime, \"Should be during sale\");\n    require(msg.value != 0, \"Value should not be zero\");\n    require(token.balanceOf(this) > 0, \"This contract must have tokens\");\n\n    uint256 _weiAmount = msg.value;\n\n    uint256 _remainingToFund = cap.sub(weiRaised);\n    if (_weiAmount > _remainingToFund) {\n      _weiAmount = _remainingToFund;\n    }\n\n    uint256 _totalTokens = _weiAmount.mul(calculateBonusRate());\n    if (_totalTokens > token.balanceOf(this)) {\n      // Change _wei to buy rest of remaining tokens\n      _weiAmount = token.balanceOf(this).div(calculateBonusRate());\n    }\n\n    token.unpause();\n    weiRaised = weiRaised.add(_weiAmount);\n\n    forwardFunds(_weiAmount);\n    uint256 _weiToReturn = msg.value.sub(_weiAmount);\n    if (_weiToReturn > 0) {\n      msg.sender.transfer(_weiToReturn);\n      emit Refund(msg.sender, _weiToReturn);\n    }\n\n    uint256 _tokens = ethToTokens(_weiAmount);\n    emit TokenPurchase(msg.sender, _weiAmount, _tokens);\n    buyTokensHook(_tokens);\n    token.pause();\n\n    checkFinalize();\n\n    return _tokens;\n  }\n\n  // Allows the owner to take back the tokens that are assigned to the sale contract.\n  function refund() external onlyOwner returns (bool) {\n    require(hasEnded(), \"Sale should have ended when refunding\");\n    uint256 _tokens = token.balanceOf(address(this));\n\n    if (_tokens == 0) {\n      return false;\n    }\n\n    require(token.transfer(owner, _tokens), \"Expected token transfer to succeed\");\n\n    emit TokensRefund(_tokens);\n\n    return true;\n  }\n\n  /// @notice interface for founders to whitelist investors\n  /// @param _addresses array of investors\n  /// @param _status enable or disable\n  function whitelistAddresses(address[] _addresses, bool _status) public onlyWhitelister {\n    for (uint256 i = 0; i < _addresses.length; i++) {\n      address _investorAddress = _addresses[i];\n      if (whitelist[_investorAddress] != _status) {\n        whitelist[_investorAddress] = _status;\n      }\n    }\n  }\n\n  function setWhitelister(address _whitelister) public onlyOwner {\n    whitelister = _whitelister;\n  }\n\n  function checkFinalize() public {\n    if (hasEnded()) {\n      finalize();\n    }\n  }\n\n  function emergencyFinalize() public onlyOwner {\n    finalize();\n  }\n\n  function withdraw() public onlyOwner {\n    owner.transfer(address(this).balance);\n  }\n\n  function hasEnded() public constant returns (bool) {\n    if (isFinalized) {\n      return true;\n    }\n    bool _capReached = weiRaised >= cap;\n    bool _passedEndTime = getBlockTimestamp() > endTime;\n    return _passedEndTime || _capReached;\n  }\n\n  // @dev does not require that crowdsale `hasEnded()` to leave safegaurd\n  // in place if ETH rises in price too much during crowdsale.\n  // Allows team to close early if cap is exceeded in USD in this event.\n  function finalize() internal {\n    require(!isFinalized, \"Should not be finalized when finalizing\");\n    emit Finalized();\n    isFinalized = true;\n    token.transferOwnership(owner);\n  }\n\n  // send ether to the fund collection wallet\n  // override to create custom fund forwarding mechanisms\n  function forwardFunds(uint256 _amount) internal {\n    wallet.transfer(_amount);\n  }\n\n  function ethToTokens(uint256 _ethAmount) internal view returns (uint256) {\n    return _ethAmount.mul(calculateBonusRate());\n  }\n\n  function getBlockTimestamp() internal view returns (uint256) {\n    return block.timestamp;\n  }\n}\n\ncontract MenloToken is PausableToken, BurnableToken, CanReclaimToken {\n\n  // Token properties\n  string public constant name = 'Menlo One';\n  string public constant symbol = 'ONE';\n\n  uint8 public constant decimals = 18;\n  uint256 private constant token_factor = 10**uint256(decimals);\n\n  // 1 billion ONE tokens in units divisible up to 18 decimals\n  uint256 public constant INITIAL_SUPPLY    = 1000000000 * token_factor;\n\n  uint256 public constant PUBLICSALE_SUPPLY = 354000000 * token_factor;\n  uint256 public constant GROWTH_SUPPLY     = 246000000 * token_factor;\n  uint256 public constant TEAM_SUPPLY       = 200000000 * token_factor;\n  uint256 public constant ADVISOR_SUPPLY    = 100000000 * token_factor;\n  uint256 public constant PARTNER_SUPPLY    = 100000000 * token_factor;\n\n  /**\n   * @dev Magic value to be returned upon successful reception of Menlo Tokens\n   */\n  bytes4 internal constant ONE_RECEIVED = 0x150b7a03;\n\n  address public crowdsale;\n  address public teamTimelock;\n  address public advisorTimelock;\n\n  modifier notInitialized(address saleAddress) {\n    require(address(saleAddress) == address(0), \"Expected address to be null\");\n    _;\n  }\n\n  constructor(address _growth, address _teamTimelock, address _advisorTimelock, address _partner) public {\n    assert(INITIAL_SUPPLY > 0);\n    assert((PUBLICSALE_SUPPLY + GROWTH_SUPPLY + TEAM_SUPPLY + ADVISOR_SUPPLY + PARTNER_SUPPLY) == INITIAL_SUPPLY);\n\n    uint256 _poolTotal = GROWTH_SUPPLY + TEAM_SUPPLY + ADVISOR_SUPPLY + PARTNER_SUPPLY;\n    uint256 _availableForSales = INITIAL_SUPPLY - _poolTotal;\n\n    assert(_availableForSales == PUBLICSALE_SUPPLY);\n\n    teamTimelock = _teamTimelock;\n    advisorTimelock = _advisorTimelock;\n\n    mint(msg.sender, _availableForSales);\n    mint(_growth, GROWTH_SUPPLY);\n    mint(_teamTimelock, TEAM_SUPPLY);\n    mint(_advisorTimelock, ADVISOR_SUPPLY);\n    mint(_partner, PARTNER_SUPPLY);\n\n    assert(totalSupply_ == INITIAL_SUPPLY);\n    pause();\n  }\n\n  function initializeCrowdsale(address _crowdsale) public onlyOwner notInitialized(crowdsale) {\n    unpause();\n    transfer(_crowdsale, balances[msg.sender]);  // Transfer left over balance after private presale allocations\n    crowdsale = _crowdsale;\n    pause();\n    transferOwnership(_crowdsale);\n  }\n\n  function mint(address _to, uint256 _amount) internal {\n    balances[_to] = _amount;\n    totalSupply_ = totalSupply_.add(_amount);\n    emit Transfer(address(0), _to, _amount);\n  }\n\n  /**\n   * @dev Safely transfers the ownership of a given token ID to another address\n   * If the target address is a contract, it must implement `onERC721Received`,\n   * which is called upon a safe transfer, and return the magic value `bytes4(0x150b7a03)`;\n   * otherwise, the transfer is reverted.\n   * Requires the msg sender to be the owner, approved, or operator\n   * @param _to address to receive the tokens.  Must be a MenloTokenReceiver based contract\n   * @param _value uint256 number of tokens to transfer\n   * @param _action uint256 action to perform in target _to contract\n   * @param _data bytes data to send along with a safe transfer check\n   **/\n  function transferAndCall(address _to, uint256 _value, uint256 _action, bytes _data) public returns (bool) {\n    if (transfer(_to, _value)) {\n      require (MenloTokenReceiver(_to).onTokenReceived(msg.sender, _value, _action, _data) == ONE_RECEIVED, \"Target contract onTokenReceived failed\");\n      return true;\n    }\n\n    return false;\n  }\n}\n\ncontract MenloTokenReceiver {\n\n    /*\n     * @dev Address of the MenloToken contract\n     */\n    MenloToken token;\n\n    constructor(MenloToken _tokenContract) public {\n        token = _tokenContract;\n    }\n\n    /**\n     * @dev Magic value to be returned upon successful reception of Menlo Tokens\n     */\n    bytes4 internal constant ONE_RECEIVED = 0x150b7a03;\n\n    /**\n     * @dev Throws if called by any account other than the Menlo Token contract.\n     */\n    modifier onlyTokenContract() {\n        require(msg.sender == address(token));\n        _;\n    }\n\n    /**\n     * @notice Handle the receipt of Menlo Tokens\n     * @dev The MenloToken contract calls this function on the recipient\n     * after a `transferAndCall`. This function MAY throw to revert and reject the\n     * transfer. Return of other than the magic value MUST result in the\n     * transaction being reverted.\n     * Warning: this function must call the onlyTokenContract modifier to trust\n     * the transfer took place\n     * @param _from The address which previously owned the token\n     * @param _value Number of tokens that were transfered\n     * @param _action Used to define enumeration of possible functions to call\n     * @param _data Additional data with no specified format\n     * @return `bytes4(0x150b7a03)`\n     */\n    function onTokenReceived(\n        address _from,\n        uint256 _value,\n        uint256 _action,\n        bytes _data\n    ) public /* onlyTokenContract */ returns(bytes4);\n}\n\ncontract MenloTokenSale is MenloSaleBase {\n\n  // Timestamps for the bonus periods, set in the constructor\n  uint256 public HOUR1;\n  uint256 public WEEK1;\n  uint256 public WEEK2;\n  uint256 public WEEK3;\n  uint256 public WEEK4;\n\n  constructor(\n    MenloToken _token,\n    uint256 _startTime,\n    uint256 _endTime,\n    uint256 _cap,\n    address _wallet\n  ) MenloSaleBase(\n    _token,\n    _startTime,\n    _endTime,\n    _cap,\n    _wallet\n  ) public {\n    HOUR1 = startTime + 1 hours;\n    WEEK1 = startTime + 1 weeks;\n    WEEK2 = startTime + 2 weeks;\n    WEEK3 = startTime + 3 weeks;\n  }\n\n  // Hour 1: 30% Bonus\n  // Week 1: 15% Bonus\n  // Week 2: 10% Bonus\n  // Week 3: 5% Bonus\n  // Week 4: 0% Bonus\n  function calculateBonusRate() public view returns (uint256) {\n    uint256 _bonusRate = 12000;\n\n    uint256 _currentTime = getBlockTimestamp();\n    if (_currentTime > startTime && _currentTime <= HOUR1) {\n      _bonusRate =  15600;\n    } else if (_currentTime <= WEEK1) {\n      _bonusRate =  13800; // week 1\n    } else if (_currentTime <= WEEK2) {\n      _bonusRate =  13200; // week 2\n    } else if (_currentTime <= WEEK3) {\n      _bonusRate =  12600; // week 3\n    }\n    return _bonusRate;\n  }\n\n  function buyTokensHook(uint256 _tokens) internal {\n    token.transfer(msg.sender, _tokens);\n    emit TokenRedeem(msg.sender, _tokens);\n  }\n}\n\n",
  "sourcePath": "/Users/dave/Code/menlo-token-crowdsale/contracts/MenloTokenSale.sol",
  "compiler": {
    "name": "solc",
    "version": "0.4.24+commit.e67f0147.Emscripten.clang"
  },
  "schemaVersion": "2.0.1",
  "updatedAt": "2018-10-01T23:48:12.668Z"
}