{
  "contractName": "MenloForum",
  "abi": [
    {
      "constant": true,
      "inputs": [],
      "name": "topicHash",
      "outputs": [
        {
          "name": "",
          "type": "bytes32"
        }
      ],
      "payable": false,
      "stateMutability": "view",
      "type": "function"
    },
    {
      "constant": true,
      "inputs": [
        {
          "name": "",
          "type": "uint256"
        }
      ],
      "name": "messages",
      "outputs": [
        {
          "name": "",
          "type": "bytes32"
        }
      ],
      "payable": false,
      "stateMutability": "view",
      "type": "function"
    },
    {
      "constant": true,
      "inputs": [],
      "name": "pool",
      "outputs": [
        {
          "name": "",
          "type": "uint256"
        }
      ],
      "payable": false,
      "stateMutability": "view",
      "type": "function"
    },
    {
      "constant": false,
      "inputs": [
        {
          "name": "_token",
          "type": "address"
        }
      ],
      "name": "reclaimToken",
      "outputs": [],
      "payable": false,
      "stateMutability": "nonpayable",
      "type": "function"
    },
    {
      "constant": true,
      "inputs": [
        {
          "name": "",
          "type": "uint256"
        }
      ],
      "name": "posters",
      "outputs": [
        {
          "name": "",
          "type": "address"
        }
      ],
      "payable": false,
      "stateMutability": "view",
      "type": "function"
    },
    {
      "constant": true,
      "inputs": [],
      "name": "winningOffset",
      "outputs": [
        {
          "name": "",
          "type": "uint32"
        }
      ],
      "payable": false,
      "stateMutability": "view",
      "type": "function"
    },
    {
      "constant": true,
      "inputs": [],
      "name": "voteCost",
      "outputs": [
        {
          "name": "",
          "type": "uint256"
        }
      ],
      "payable": false,
      "stateMutability": "view",
      "type": "function"
    },
    {
      "constant": true,
      "inputs": [],
      "name": "epochLength",
      "outputs": [
        {
          "name": "",
          "type": "uint256"
        }
      ],
      "payable": false,
      "stateMutability": "view",
      "type": "function"
    },
    {
      "constant": true,
      "inputs": [],
      "name": "ACTION_POST",
      "outputs": [
        {
          "name": "",
          "type": "uint256"
        }
      ],
      "payable": false,
      "stateMutability": "view",
      "type": "function"
    },
    {
      "constant": false,
      "inputs": [],
      "name": "renounceOwnership",
      "outputs": [],
      "payable": false,
      "stateMutability": "nonpayable",
      "type": "function"
    },
    {
      "constant": true,
      "inputs": [],
      "name": "owner",
      "outputs": [
        {
          "name": "",
          "type": "address"
        }
      ],
      "payable": false,
      "stateMutability": "view",
      "type": "function"
    },
    {
      "constant": true,
      "inputs": [],
      "name": "author",
      "outputs": [
        {
          "name": "",
          "type": "address"
        }
      ],
      "payable": false,
      "stateMutability": "view",
      "type": "function"
    },
    {
      "constant": true,
      "inputs": [],
      "name": "endTimestamp",
      "outputs": [
        {
          "name": "",
          "type": "uint256"
        }
      ],
      "payable": false,
      "stateMutability": "view",
      "type": "function"
    },
    {
      "constant": true,
      "inputs": [],
      "name": "postCost",
      "outputs": [
        {
          "name": "",
          "type": "uint256"
        }
      ],
      "payable": false,
      "stateMutability": "view",
      "type": "function"
    },
    {
      "constant": true,
      "inputs": [
        {
          "name": "",
          "type": "uint32"
        }
      ],
      "name": "votes",
      "outputs": [
        {
          "name": "",
          "type": "int32"
        }
      ],
      "payable": false,
      "stateMutability": "view",
      "type": "function"
    },
    {
      "constant": true,
      "inputs": [],
      "name": "winningVotes",
      "outputs": [
        {
          "name": "",
          "type": "int32"
        }
      ],
      "payable": false,
      "stateMutability": "view",
      "type": "function"
    },
    {
      "constant": true,
      "inputs": [],
      "name": "ACTION_UPVOTE",
      "outputs": [
        {
          "name": "",
          "type": "uint256"
        }
      ],
      "payable": false,
      "stateMutability": "view",
      "type": "function"
    },
    {
      "constant": true,
      "inputs": [
        {
          "name": "",
          "type": "uint32"
        },
        {
          "name": "",
          "type": "address"
        }
      ],
      "name": "voters",
      "outputs": [
        {
          "name": "",
          "type": "int8"
        }
      ],
      "payable": false,
      "stateMutability": "view",
      "type": "function"
    },
    {
      "constant": false,
      "inputs": [
        {
          "name": "_newOwner",
          "type": "address"
        }
      ],
      "name": "transferOwnership",
      "outputs": [],
      "payable": false,
      "stateMutability": "nonpayable",
      "type": "function"
    },
    {
      "constant": true,
      "inputs": [],
      "name": "ACTION_DOWNVOTE",
      "outputs": [
        {
          "name": "",
          "type": "uint256"
        }
      ],
      "payable": false,
      "stateMutability": "view",
      "type": "function"
    },
    {
      "inputs": [
        {
          "name": "_token",
          "type": "address"
        },
        {
          "name": "_callback",
          "type": "address"
        },
        {
          "name": "_author",
          "type": "address"
        },
        {
          "name": "_topicHash",
          "type": "bytes32"
        },
        {
          "name": "_postCost",
          "type": "uint256"
        },
        {
          "name": "_voteCost",
          "type": "uint256"
        },
        {
          "name": "_epochLength",
          "type": "uint256"
        }
      ],
      "payable": false,
      "stateMutability": "nonpayable",
      "type": "constructor"
    },
    {
      "anonymous": false,
      "inputs": [
        {
          "indexed": true,
          "name": "previousOwner",
          "type": "address"
        }
      ],
      "name": "OwnershipRenounced",
      "type": "event"
    },
    {
      "anonymous": false,
      "inputs": [
        {
          "indexed": true,
          "name": "previousOwner",
          "type": "address"
        },
        {
          "indexed": true,
          "name": "newOwner",
          "type": "address"
        }
      ],
      "name": "OwnershipTransferred",
      "type": "event"
    },
    {
      "anonymous": false,
      "inputs": [
        {
          "indexed": false,
          "name": "_contentHash",
          "type": "bytes32"
        }
      ],
      "name": "Answer",
      "type": "event"
    },
    {
      "anonymous": false,
      "inputs": [
        {
          "indexed": false,
          "name": "_parentHash",
          "type": "bytes32"
        },
        {
          "indexed": false,
          "name": "_contentHash",
          "type": "bytes32"
        }
      ],
      "name": "Comment",
      "type": "event"
    },
    {
      "anonymous": false,
      "inputs": [
        {
          "indexed": false,
          "name": "_user",
          "type": "address"
        },
        {
          "indexed": false,
          "name": "_tokens",
          "type": "uint256"
        }
      ],
      "name": "Payout",
      "type": "event"
    },
    {
      "anonymous": false,
      "inputs": [
        {
          "indexed": false,
          "name": "_offset",
          "type": "uint32"
        },
        {
          "indexed": false,
          "name": "_direction",
          "type": "int32"
        }
      ],
      "name": "Vote",
      "type": "event"
    },
    {
      "constant": true,
      "inputs": [
        {
          "name": "i",
          "type": "uint32"
        },
        {
          "name": "user",
          "type": "address"
        }
      ],
      "name": "getVoters",
      "outputs": [
        {
          "name": "",
          "type": "int8"
        }
      ],
      "payable": false,
      "stateMutability": "view",
      "type": "function"
    },
    {
      "constant": true,
      "inputs": [],
      "name": "postCount",
      "outputs": [
        {
          "name": "",
          "type": "uint256"
        }
      ],
      "payable": false,
      "stateMutability": "view",
      "type": "function"
    },
    {
      "constant": true,
      "inputs": [],
      "name": "votesCount",
      "outputs": [
        {
          "name": "",
          "type": "uint256"
        }
      ],
      "payable": false,
      "stateMutability": "view",
      "type": "function"
    },
    {
      "constant": true,
      "inputs": [],
      "name": "claimed",
      "outputs": [
        {
          "name": "",
          "type": "bool"
        }
      ],
      "payable": false,
      "stateMutability": "view",
      "type": "function"
    },
    {
      "constant": true,
      "inputs": [],
      "name": "winner",
      "outputs": [
        {
          "name": "",
          "type": "address"
        }
      ],
      "payable": false,
      "stateMutability": "view",
      "type": "function"
    },
    {
      "constant": false,
      "inputs": [],
      "name": "claim",
      "outputs": [],
      "payable": false,
      "stateMutability": "nonpayable",
      "type": "function"
    },
    {
      "constant": false,
      "inputs": [
        {
          "name": "_from",
          "type": "address"
        },
        {
          "name": "_value",
          "type": "uint256"
        },
        {
          "name": "_action",
          "type": "uint256"
        },
        {
          "name": "_data",
          "type": "bytes"
        }
      ],
      "name": "onTokenReceived",
      "outputs": [
        {
          "name": "",
          "type": "bytes4"
        }
      ],
      "payable": false,
      "stateMutability": "nonpayable",
      "type": "function"
    },
    {
      "constant": false,
      "inputs": [
        {
          "name": "_redeemer",
          "type": "address"
        }
      ],
      "name": "redeem",
      "outputs": [
        {
          "name": "",
          "type": "address"
        }
      ],
      "payable": false,
      "stateMutability": "nonpayable",
      "type": "function"
    },
    {
      "constant": false,
      "inputs": [
        {
          "name": "_redeemer",
          "type": "address"
        }
      ],
      "name": "undo",
      "outputs": [
        {
          "name": "",
          "type": "address"
        }
      ],
      "payable": false,
      "stateMutability": "nonpayable",
      "type": "function"
    }
  ],
  "bytecode": "0x608060405234801561001057600080fd5b5060405160e0806120828339810160408181528251602080850151838601516060870151608088015160a089015160c09099015160008054600160a060020a038916600160a060020a031991821617825560018054821633178155600b8054918201815583527f0175b7a638427703f0dbe7bb9bbf987a2551717b34e79f33b5b1008d1fa01db90180549091169055895296519598939792969195909491927f03e7a48842f450663136c1ad049fef3863e073342ffdaf0058c90228716826a292908290030190a160028054600160a060020a03808916600160a060020a031992831617909255600480548884169216919091178155600386905560058490556006859055600883905542830160075560008054604080517f70a082310000000000000000000000000000000000000000000000000000000081523094810194909452519316926370a08231926024808201936020939283900390910190829087803b15801561017f57600080fd5b505af1158015610193573d6000803e3d6000fd5b505050506040513d60208110156101a957600080fd5b5051600d5550505050505050611ebe806101c46000396000f30060806040526004361061015b5763ffffffff60e060020a6000350416630192dbbf81146101605780630d80fefd1461018757806316f0115b1461019f57806317906c2e146101b457806317ffc320146101c957806319151262146101ec57806334d1892c1461022f57806346808bd0146102635780634c1b8ffd146102915780634e71d92d146102a657806357d775f8146102bb5780635b080f2b146102d05780635fdb3e67146102e5578063715018a6146103065780638778b27d146101b45780638da5cb5b1461031b57806395a2251f14610330578063a593841014610351578063a6c3e6b9146103f2578063a85adeab14610407578063acb315851461041c578063b0b8a8d614610431578063c8461b3914610468578063d330eb8b1461047d578063dfbf53ae14610492578063e834a834146104a7578063edfbf9b0146104d0578063f2fde38b146104fa578063f81c24b31461051b575b600080fd5b34801561016c57600080fd5b50610175610530565b60408051918252519081900360200190f35b34801561019357600080fd5b50610175600435610536565b3480156101ab57600080fd5b50610175610555565b3480156101c057600080fd5b5061017561055b565b3480156101d557600080fd5b506101ea600160a060020a0360043516610562565b005b3480156101f857600080fd5b5061021663ffffffff60043516600160a060020a036024351661061a565b60408051600092830b90920b8252519081900360200190f35b34801561023b57600080fd5b5061024760043561064c565b60408051600160a060020a039092168252519081900360200190f35b34801561026f57600080fd5b50610278610674565b6040805163ffffffff9092168252519081900360200190f35b34801561029d57600080fd5b50610175610688565b3480156102b257600080fd5b506101ea61068e565b3480156102c757600080fd5b506101756108e8565b3480156102dc57600080fd5b506101756108ee565b3480156102f157600080fd5b50610247600160a060020a03600435166108f3565b34801561031257600080fd5b506101ea610bb5565b34801561032757600080fd5b50610247610c23565b34801561033c57600080fd5b50610247600160a060020a0360043516610c32565b34801561035d57600080fd5b50604080516020601f6064356004818101359283018490048402850184019095528184526103bd94600160a060020a038135169460248035956044359536956084949301918190840183828082843750949750610e999650505050505050565b604080517fffffffff000000000000000000000000000000000000000000000000000000009092168252519081900360200190f35b3480156103fe57600080fd5b506102476111a8565b34801561041357600080fd5b506101756111b7565b34801561042857600080fd5b506101756111bd565b34801561043d57600080fd5b5061044f63ffffffff600435166111c3565b60408051600392830b90920b8252519081900360200190f35b34801561047457600080fd5b5061044f6111d8565b34801561048957600080fd5b506101756111e1565b34801561049e57600080fd5b506102476111e6565b3480156104b357600080fd5b506104bc61124c565b604080519115158252519081900360200190f35b3480156104dc57600080fd5b5061021663ffffffff60043516600160a060020a03602435166112db565b34801561050657600080fd5b506101ea600160a060020a03600435166112fa565b34801561052757600080fd5b5061017561131d565b60035481565b600c80548290811061054457fe5b600091825260209091200154905081565b600d5481565b600b545b90565b600154600090600160a060020a0316331461057c57600080fd5b6040805160e060020a6370a082310281523060048201529051600160a060020a038416916370a082319160248083019260209291908290030181600087803b1580156105c757600080fd5b505af11580156105db573d6000803e3d6000fd5b505050506040513d60208110156105f157600080fd5b505160015490915061061690600160a060020a0384811691168363ffffffff61132216565b5050565b63ffffffff82166000908152600a60209081526040808320600160a060020a0385168452909152812054900b92915050565b600b80548290811061065a57fe5b600091825260209091200154600160a060020a0316905081565b600e54640100000000900463ffffffff1681565b60055481565b6106966113c1565b15156106ec576040805160e560020a62461bcd02815260206004820152600d60248201527f466f72756d206973206f70656e00000000000000000000000000000000000000604482015290519081900360640190fd5b6106f46113c1565b151561074a576040805160e560020a62461bcd02815260206004820152601060248201527f466f72756d206e6f7420636c6f73656400000000000000000000000000000000604482015290519081900360640190fd5b6107526111e6565b600160a060020a031633146107b1576040805160e560020a62461bcd02815260206004820152601560248201527f4f6e6c792077696e6e65722063616e20636c61696d0000000000000000000000604482015290519081900360640190fd5b600d5460001061080b576040805160e560020a62461bcd02815260206004820152601760248201527f4e6f20746f6b656e73206c65667420746f20636c61696d000000000000000000604482015290519081900360640190fd5b60008054600d54604080517fa9059cbb000000000000000000000000000000000000000000000000000000008152336004820152602481019290925251600160a060020a039092169263a9059cbb926044808401936020939083900390910190829087803b15801561087c57600080fd5b505af1158015610890573d6000803e3d6000fd5b505050506040513d60208110156108a657600080fd5b5050600d5460408051338152602081019290925280517f5afeca38b2064c23a692c4cf353015d80ab3ecc417b4f893f372690c11fbd9a69281900390910190a1565b60085481565b600181565b6001546000908190600160a060020a0316331461090f57600080fd5b6000809054906101000a9004600160a060020a0316600160a060020a031683600160a060020a031663131519816040518163ffffffff1660e060020a028152600401602060405180830381600087803b15801561096b57600080fd5b505af115801561097f573d6000803e3d6000fd5b505050506040513d602081101561099557600080fd5b5051600160a060020a0316146109aa57600080fd5b600080546040805160e060020a6370a082310281523060048201529051600160a060020a039092169263095ea7b392879285926370a08231926024808401936020939083900390910190829087803b158015610a0557600080fd5b505af1158015610a19573d6000803e3d6000fd5b505050506040513d6020811015610a2f57600080fd5b50516040805160e060020a63ffffffff8616028152600160a060020a03909316600484015260248301919091525160448083019260209291908290030181600087803b158015610a7e57600080fd5b505af1158015610a92573d6000803e3d6000fd5b505050506040513d6020811015610aa857600080fd5b5050604080517f881be8f70000000000000000000000000000000000000000000000000000000081529051600160a060020a0385169163881be8f791600480830192600092919082900301818387803b158015610b0457600080fd5b505af1158015610b18573d6000803e3d6000fd5b5050505082600160a060020a031663d5ce33896040518163ffffffff1660e060020a028152600401602060405180830381600087803b158015610b5a57600080fd5b505af1158015610b6e573d6000803e3d6000fd5b505050506040513d6020811015610b8457600080fd5b50516000805473ffffffffffffffffffffffffffffffffffffffff1916600160a060020a0383161790559392505050565b600154600160a060020a03163314610bcc57600080fd5b600154604051600160a060020a03909116907ff8df31144d9c2f0f6b59d69b8b98abd5459d07f2742c4df920b25aae33c6482090600090a26001805473ffffffffffffffffffffffffffffffffffffffff19169055565b600154600160a060020a031681565b6001546000908190600160a060020a03163314610c4e57600080fd5b6000809054906101000a9004600160a060020a0316600160a060020a031683600160a060020a031663d5ce33896040518163ffffffff1660e060020a028152600401602060405180830381600087803b158015610caa57600080fd5b505af1158015610cbe573d6000803e3d6000fd5b505050506040513d6020811015610cd457600080fd5b5051600160a060020a031614610ce957600080fd5b600080546040805160e060020a6370a082310281523060048201529051600160a060020a039092169263095ea7b392879285926370a08231926024808401936020939083900390910190829087803b158015610d4457600080fd5b505af1158015610d58573d6000803e3d6000fd5b505050506040513d6020811015610d6e57600080fd5b50516040805160e060020a63ffffffff8616028152600160a060020a03909316600484015260248301919091525160448083019260209291908290030181600087803b158015610dbd57600080fd5b505af1158015610dd1573d6000803e3d6000fd5b505050506040513d6020811015610de757600080fd5b5050604080517fbe040fb00000000000000000000000000000000000000000000000000000000081529051600160a060020a0385169163be040fb091600480830192600092919082900301818387803b158015610e4357600080fd5b505af1158015610e57573d6000803e3d6000fd5b5050505082600160a060020a031663131519816040518163ffffffff1660e060020a028152600401602060405180830381600087803b158015610b5a57600080fd5b600080548190819081908190600160a060020a03163314610eb957600080fd5b610ec16113c1565b15610f16576040805160e560020a62461bcd02815260206004820152600f60248201527f466f72756d20697320636c6f7365640000000000000000000000000000000000604482015290519081900360640190fd5b600080546040805160e060020a6370a082310281523060048201529051600160a060020a03909216926370a08231926024808401936020939083900390910190829087803b158015610f6757600080fd5b505af1158015610f7b573d6000803e3d6000fd5b505050506040513d6020811015610f9157600080fd5b5051600d55600287141561106157610fab8860055461158d565b1515611001576040805160e560020a62461bcd02815260206004820152601a60248201527f566f74696e6720746f6b656e732073656e7420213d20636f7374000000000000604482015290519081900360640190fd5b61100c866001611592565b909450925061101b86846116bc565b9350915061102986846116bc565b9350905061103989858484611a25565b7f150b7a0300000000000000000000000000000000000000000000000000000000945061119c565b6003871415611104576110768860055461158d565b15156110cc576040805160e560020a62461bcd02815260206004820152601a60248201527f566f74696e6720746f6b656e732073656e7420213d20636f7374000000000000604482015290519081900360640190fd5b6110d7866001611592565b90945092506110e686846116bc565b935091506110f486846116bc565b9350905061103989858484611a48565b6001871415611197576111198860065461158d565b151561116f576040805160e560020a62461bcd02815260206004820152601b60248201527f506f7374696e6720746f6b656e732073656e7420213d20636f73740000000000604482015290519081900360640190fd5b61117a8660016116bc565b9350915061118886846116bc565b93509050611039898383611a55565b600094505b50505050949350505050565b600454600160a060020a031681565b60075481565b60065481565b60096020526000908152604090205460030b81565b600e5460030b81565b600281565b600e54600090640100000000900463ffffffff1615156112125750600454600160a060020a031661055f565b600e54600b80549091640100000000900463ffffffff1690811061123257fe5b600091825260209091200154600160a060020a0316905090565b600080546040805160e060020a6370a082310281523060048201529051600160a060020a03909216916370a082319160248082019260209290919082900301818787803b15801561129c57600080fd5b505af11580156112b0573d6000803e3d6000fd5b505050506040513d60208110156112c657600080fd5b50511580156112d65750600d5415155b905090565b600a602090815260009283526040808420909152908252812054900b81565b600154600160a060020a0316331461131157600080fd5b61131a81611b23565b50565b600381565b82600160a060020a031663a9059cbb83836040518363ffffffff1660e060020a0281526004018083600160a060020a0316600160a060020a0316815260200182815260200192505050602060405180830381600087803b15801561138557600080fd5b505af1158015611399573d6000803e3d6000fd5b505050506040513d60208110156113af57600080fd5b505115156113bc57600080fd5b505050565b600e5460009068010000000000000000900460ff16156113e35750600161055f565b6007544210156113f55750600061055f565b600454600160a060020a03166114096111e6565b600160a060020a031614156114b157600254600d54604080517ff17923260000000000000000000000000000000000000000000000000000000081523060048201526024810192909252600060448301819052606483018190529051600160a060020a039093169263f179232692608480820193929182900301818387803b15801561149457600080fd5b505af11580156114a8573d6000803e3d6000fd5b5050505061156a565b600254600d54600e54600160a060020a039092169163f179232691309160030b6114d96111e6565b6040518563ffffffff1660e060020a0281526004018085600160a060020a0316600160a060020a031681526020018481526020018360030b60030b815260200182600160a060020a0316600160a060020a03168152602001945050505050600060405180830381600087803b15801561155157600080fd5b505af1158015611565573d6000803e3d6000fd5b505050505b50600e805468ff0000000000000000191668010000000000000000179055600190565b111590565b815160018201916000918291829186919081106115ab57fe5b90602001015160f860020a900460f860020a0260f860020a9004602214151561161e576040805160e560020a62461bcd02815260206004820152601260248201527f4578706563746564202220666f72207661720000000000000000000000000000604482015290519081900360640190fd5b8391505b84518210801561165a5750848281518110151561163b57fe5b90602001015160f860020a900460f860020a0260f860020a9004602214155b156116ae57848281518110151561166d57fe5b016020015160f860020a90819004810204905060308110801590611692575060398111155b156116a3576030810383600a020192505b600190910190611622565b600282019150509250929050565b8151600090819081908190819060039087900311611724576040805160e560020a62461bcd02815260206004820152601460248201527f45787065637465642022307820666f7220766172000000000000000000000000604482015290519081900360640190fd5b865160018701968891811061173557fe5b90602001015160f860020a900460f860020a0260f860020a900460221415156117a8576040805160e560020a62461bcd02815260206004820152601260248201527f4578706563746564202220666f72207661720000000000000000000000000000604482015290519081900360640190fd5b86516001870196889181106117b957fe5b90602001015160f860020a900460f860020a0260f860020a9004603014151561182c576040805160e560020a62461bcd02815260206004820152601260248201527f4578706563746564203020666f72207661720000000000000000000000000000604482015290519081900360640190fd5b865160018701968891811061183d57fe5b90602001015160f860020a900460f860020a0260f860020a900460781415156118b0576040805160e560020a62461bcd02815260206004820152601260248201527f4578706563746564207820666f72207661720000000000000000000000000000604482015290519081900360640190fd5b8593505b8651841080156118ec575086848151811015156118cd57fe5b90602001015160f860020a900460f860020a0260f860020a9004602214155b15611a145786848151811015156118ff57fe5b016020015160f860020a90819004810204915060308210801590611924575060398211155b1561193457603082039150611976565b60418210158015611946575060468211155b156119575760361990910190611976565b60618210158015611969575060668211155b1561197657605619909101905b603f8311156119f4576040805160e560020a62461bcd028152602060048201526024808201527f6279746533322063616e2774206265206c6f6e676572207468616e203332206260448201527f7974657300000000000000000000000000000000000000000000000000000000606482015290519081900360840190fd5b6001938401938301926004603f919091030260020a600f831602176118b4565b966002939093019550919350505050565b611a3184846001611ba1565b8015611a4257611a42848383611a55565b50505050565b611a318484600019611ba1565b8115611aa357604080518381526020810183905281517fb65503325a293f52b84a6ae139d03041dcc4f9ada4e525c3a83b19291d133734929181900390910190a160085442016007556113bc565b6040805182815290517f03e7a48842f450663136c1ad049fef3863e073342ffdaf0058c90228716826a29181900360200190a1600b5463ffffffff166000908152600a60209081526040808320600160a060020a03871684529091529020805460ff19166001179055611b168184611e04565b6008544201600755505050565b600160a060020a0381161515611b3857600080fd5b600154604051600160a060020a038084169216907f8be0079c531659141344cd1fd0a4f28419497f9722a3daafe3b4186f6b6457e090600090a36001805473ffffffffffffffffffffffffffffffffffffffff1916600160a060020a0392909216919091179055565b63ffffffff82166000908152600a60209081526040808320600160a060020a0387168452909152812054810b9081810b9083900b1415611c51576040805160e560020a62461bcd02815260206004820152602c60248201527f43616e277420766f746520666f722073616d6520636f6d6d656e74206d6f726560448201527f207468616e20312074696d650000000000000000000000000000000000000000606482015290519081900360840190fd5b63ffffffff8381166000818152600960209081526040808320805463ffffffff19811689860b600392830b8101830b90981617909155600a8352818420600160a060020a038b1685528352818420805460ff191660ff898b0190960b9590951694909417909355600854420160075580519384529390910b9082015281517fd5ff9f761727791b388058ad1b7aab23103d05898ae470d1cb7889300a3798c7929181900390910190a1600e5463ffffffff8416600090815260096020526040902054600391820b820b90820b90910b1315611d705763ffffffff838116600081815260096020526040902054600e805463ffffffff1916600392830b90920b9093161767ffffffff000000001916640100000000909102179055611a42565b600e5463ffffffff8416600090815260096020526040902054600390810b810b91810b900b148015611db55750600e5463ffffffff6401000000009091048116908416105b15611a425763ffffffff838116600081815260096020526040902054600e805463ffffffff1916600392830b90920b9093161767ffffffff000000001916640100000000909102179055611a42565b600c805460018082019092557fdf6966c971051c3d54ec59162606531493a51404a002842f56009d7e5cf4a8c70192909255600b805492830181556000527f0175b7a638427703f0dbe7bb9bbf987a2551717b34e79f33b5b1008d1fa01db9909101805473ffffffffffffffffffffffffffffffffffffffff1916600160a060020a039092169190911790555600a165627a7a723058203c8e8b68a520667723b1d0c3de65f0914ba48c2a6c058f0f97254ec9fd877c0a0029",
  "source": "/*\n    Copyright 2018 Menlo, Inc.\n\n    Licensed under the Apache License, Version 2.0 (the License);\n    you may not use this file except in compliance with the License.\n    You may obtain a copy of the License at\n\n    http://www.apache.org/licenses/LICENSE-2.0\n\n    Unless required by applicable law or agreed to in writing, software\n    distributed under the License is distributed on an AS IS BASIS,\n    WITHOUT WARRANTIES OR CONDITIONS OF ANY KIND, either express or implied.\n    See the License for the specific language governing permissions and\n    limitations under the License.\n*/\n\npragma solidity^0.4.13;\n\nimport \"menlo-token/contracts/MenloToken.sol\";\nimport \"./BytesDecode.sol\";\nimport \"./Redeemer.sol\";\n\n\ncontract MenloForumEvents {\n    event Answer(bytes32 _contentHash);\n    event Comment(bytes32 _parentHash, bytes32 _contentHash);\n    event Payout(address _user, uint256 _tokens);\n    event Vote(uint32 _offset, int32 _direction);\n}\n\n\ninterface MenloForumCallback {\n    function onForumClosed(address _forum, uint256 _tokens, int32 _votes, address _winner) external;\n}\n\n\ncontract MenloForum is MenloTokenReceiver, MenloForumEvents, BytesDecode, Ownable, CanReclaimToken {\n\n    uint public constant ACTION_POST     = 1;\n    uint public constant ACTION_UPVOTE   = 2;\n    uint public constant ACTION_DOWNVOTE = 3;\n\n    MenloForumCallback callback;\n\n    bytes32 public topicHash;\n    address public author;\n    uint256 public voteCost;\n    uint256 public postCost;\n\n    uint256 public endTimestamp;\n    uint256 public epochLength;\n\n    mapping(uint32 => int32) public votes;\n    mapping(uint32 => mapping(address => int8)) public voters;\n    address[] public posters;\n    bytes32[] public messages;\n\n    uint256 public pool;\n    int32   public winningVotes;\n    uint32  public winningOffset;\n    bool    private closed;\n\n\n    constructor(MenloToken _token, MenloForumCallback _callback, address _author, bytes32 _topicHash, uint256 _postCost, uint256 _voteCost, uint256 _epochLength) public MenloTokenReceiver(_token) {\n\n        // Push 0 so empty memory (0) doesn't overlap with a voter\n        posters.push(0);\n        emit Answer(0);\n\n        // no author for root post 0\n        callback = _callback;\n        author = _author;\n        topicHash = _topicHash;\n        voteCost = _voteCost;\n        postCost = _postCost;\n        epochLength = _epochLength;\n        endTimestamp = now + epochLength;\n        pool = token.balanceOf(this);\n    }\n\n    function getVoters(uint32 i, address user) public view returns (int8) {\n        return voters[i][user];\n    }\n\n    function postCount() public view returns (uint256) {\n        return posters.length;\n    }\n\n    function votesCount() public view returns (uint256) {\n        return posters.length;\n    }\n\n    function claimed() external view returns (bool) {\n        return token.balanceOf(this) == 0 && pool != 0;\n    }\n\n    function winner() public view returns (address) {\n        if (winningOffset == 0) {\n            return author;\n        }\n\n        return posters[winningOffset];\n    }\n\n\n\n    function vote(address _voter, uint32 _offset, int8 _direction) internal {\n        int8 priorVote = voters[_offset][_voter];\n\n        require (priorVote != _direction, \"Can't vote for same comment more than 1 time\");\n\n        votes[_offset] += _direction;\n        voters[_offset][_voter] = priorVote + _direction;\n        endTimestamp = now + epochLength;\n\n        emit Vote(_offset, _direction);\n\n        if (votes[_offset] > winningVotes) {\n            winningVotes = votes[_offset];\n            winningOffset = _offset;\n            return;\n        }\n\n        if (votes[_offset] == winningVotes && _offset < winningOffset) {\n            winningVotes = votes[_offset];\n            winningOffset = _offset;\n            return;\n        }\n    }\n\n    function pushMessage(bytes32 _message, address _poster) internal {\n        messages.push(_message);\n        posters.push(_poster);\n    }\n\n    function upvoteAndComment(address _voter, uint32 _offset, bytes32 _parentHash, bytes32 _contentHash) internal {\n        vote(_voter, _offset, 1);\n        if (_contentHash != 0) {\n            post(_voter, _parentHash, _contentHash);\n        }\n    }\n\n    function downvoteAndComment(address _voter, uint32 _offset, bytes32 _parentHash, bytes32 _contentHash) internal {\n        vote(_voter, _offset, -1);\n        if (_contentHash != 0) {\n            post(_voter, _parentHash, _contentHash);\n        }\n    }\n\n    function post(address _poster, bytes32 _parentHash, bytes32 _contentHash) internal {\n        if (_parentHash != 0) {\n            emit Comment(_parentHash, _contentHash);\n            endTimestamp = now + epochLength;\n            return;\n        }\n\n        emit Answer(_contentHash);\n        voters[uint32(posters.length)][_poster] = 1;\n        pushMessage(_contentHash, _poster);\n        endTimestamp = now + epochLength;\n    }\n\n    function closeForum() internal returns (bool) {\n        if (closed) {\n            return true;\n        }\n\n        if (now < endTimestamp) {\n            return false;\n        }\n\n        if (winner() == author) {\n            callback.onForumClosed(this, pool, 0, 0);\n        } else {\n            callback.onForumClosed(this, pool, winningVotes, winner());\n        }\n\n        closed = true;\n        return true;\n    }\n\n    modifier forumOpen() {\n        require(!closeForum(), \"Forum is closed\");\n        _;\n    }\n\n    modifier forumClosed() {\n        require(closeForum(), \"Forum is open\");\n        _;\n    }\n\n    function usesONE(uint256 _value, uint256 _cost) internal pure returns (bool) {\n        return (_value >= _cost);\n    }\n\n    function claim() forumClosed external {\n        require(closeForum(), \"Forum not closed\");\n        require(msg.sender == winner(), \"Only winner can claim\");\n        require(pool > 0, \"No tokens left to claim\");\n\n        token.transfer(msg.sender, pool);\n        emit Payout(msg.sender, pool);\n    }\n\n    function onTokenReceived(\n        address _from,\n        uint256 _value,\n        uint256 _action,\n        bytes _data\n    ) public onlyTokenContract forumOpen returns(bytes4) {\n\n        uint offset;\n        uint i;\n\n        pool = token.balanceOf(this);\n\n        if (_action == ACTION_UPVOTE) {\n            require(usesONE(_value, voteCost), \"Voting tokens sent != cost\");\n\n            (offset, i)      = decodeUint(_data, 1);\n            (parentHash, i)  = decodeBytes32(_data, i);\n            (contentHash, i) = decodeBytes32(_data, i);\n\n            upvoteAndComment(_from, uint32(offset), parentHash, contentHash);\n            return ONE_RECEIVED;\n        }\n\n        if (_action == ACTION_DOWNVOTE) {\n            require(usesONE(_value, voteCost), \"Voting tokens sent != cost\");\n\n            (offset, i)      = decodeUint(_data, 1);\n            (parentHash, i)  = decodeBytes32(_data, i);\n            (contentHash, i) = decodeBytes32(_data, i);\n\n            downvoteAndComment(_from, uint32(offset), parentHash, contentHash);\n            return ONE_RECEIVED;\n        }\n\n        if (_action == ACTION_POST) {\n            require(usesONE(_value, postCost), \"Posting tokens sent != cost\");\n\n            bytes32 parentHash;\n            bytes32 contentHash;\n\n            (parentHash, i)  = decodeBytes32(_data, 1);\n            (contentHash, i) = decodeBytes32(_data, i);\n\n            post(_from, parentHash, contentHash);\n            return ONE_RECEIVED;\n        }\n\n        return 0;\n    }\n\n    //\n    // This exists purely for the case where Menlo ONE tokens need upgrading\n    //\n\n    function redeem(Redeemer _redeemer) external onlyOwner returns (MenloToken) {\n        require(_redeemer.from() == token);\n\n        token.approve(_redeemer, token.balanceOf(this));\n        _redeemer.redeem();\n        MenloToken to = _redeemer.to();\n        token = to;\n        return to;\n    }\n\n    function undo(Redeemer _redeemer) external onlyOwner returns (MenloToken) {\n        require(_redeemer.to() == token);\n\n        token.approve(_redeemer, token.balanceOf(this));\n        _redeemer.undo();\n        MenloToken from = _redeemer.from();\n        token = from;\n        return from;\n    }\n}\n",
  "sourcePath": "/Users/dave/Code/block-overflow/contracts/MenloForum.sol",
  "compiler": {
    "name": "solc",
    "version": "0.4.24+commit.e67f0147.Emscripten.clang"
  },
  "schemaVersion": "2.0.1",
  "updatedAt": "2018-10-01T00:58:38.808Z"
}