{
  "contractName": "MenloFaucet",
  "abi": [
    {
      "constant": true,
      "inputs": [
        {
          "name": "",
          "type": "address"
        }
      ],
      "name": "lastDrip",
      "outputs": [
        {
          "name": "",
          "type": "uint256"
        }
      ],
      "payable": false,
      "stateMutability": "view",
      "type": "function"
    },
    {
      "constant": false,
      "inputs": [
        {
          "name": "_token",
          "type": "address"
        }
      ],
      "name": "reclaimToken",
      "outputs": [],
      "payable": false,
      "stateMutability": "nonpayable",
      "type": "function"
    },
    {
      "constant": false,
      "inputs": [],
      "name": "renounceOwnership",
      "outputs": [],
      "payable": false,
      "stateMutability": "nonpayable",
      "type": "function"
    },
    {
      "constant": true,
      "inputs": [],
      "name": "owner",
      "outputs": [
        {
          "name": "",
          "type": "address"
        }
      ],
      "payable": false,
      "stateMutability": "view",
      "type": "function"
    },
    {
      "constant": false,
      "inputs": [
        {
          "name": "_newOwner",
          "type": "address"
        }
      ],
      "name": "transferOwnership",
      "outputs": [],
      "payable": false,
      "stateMutability": "nonpayable",
      "type": "function"
    },
    {
      "inputs": [
        {
          "name": "_token",
          "type": "address"
        },
        {
          "name": "_tokens",
          "type": "uint256"
        },
        {
          "name": "_delay",
          "type": "uint256"
        }
      ],
      "payable": false,
      "stateMutability": "nonpayable",
      "type": "constructor"
    },
    {
      "anonymous": false,
      "inputs": [
        {
          "indexed": true,
          "name": "previousOwner",
          "type": "address"
        }
      ],
      "name": "OwnershipRenounced",
      "type": "event"
    },
    {
      "anonymous": false,
      "inputs": [
        {
          "indexed": true,
          "name": "previousOwner",
          "type": "address"
        },
        {
          "indexed": true,
          "name": "newOwner",
          "type": "address"
        }
      ],
      "name": "OwnershipTransferred",
      "type": "event"
    },
    {
      "constant": false,
      "inputs": [],
      "name": "drip",
      "outputs": [
        {
          "name": "",
          "type": "bool"
        }
      ],
      "payable": false,
      "stateMutability": "nonpayable",
      "type": "function"
    }
  ],
  "bytecode": "0x608060405234801561001057600080fd5b5060405160608061062183398101604090815281516020830151919092015160008054600160a060020a0319908116331790915560018054600160a060020a0390951694909116939093179092556002556003556105ae806100736000396000f3006080604052600436106100775763ffffffff7c01000000000000000000000000000000000000000000000000000000006000350416630935f004811461007c57806317ffc320146100af578063715018a6146100d25780638da5cb5b146100e75780639f678cca14610118578063f2fde38b14610141575b600080fd5b34801561008857600080fd5b5061009d600160a060020a0360043516610162565b60408051918252519081900360200190f35b3480156100bb57600080fd5b506100d0600160a060020a0360043516610174565b005b3480156100de57600080fd5b506100d0610240565b3480156100f357600080fd5b506100fc6102ac565b60408051600160a060020a039092168252519081900360200190f35b34801561012457600080fd5b5061012d6102bb565b604080519115158252519081900360200190f35b34801561014d57600080fd5b506100d0600160a060020a036004351661042a565b60046020526000908152604090205481565b60008054600160a060020a0316331461018c57600080fd5b604080517f70a082310000000000000000000000000000000000000000000000000000000081523060048201529051600160a060020a038416916370a082319160248083019260209291908290030181600087803b1580156101ed57600080fd5b505af1158015610201573d6000803e3d6000fd5b505050506040513d602081101561021757600080fd5b505160005490915061023c90600160a060020a0384811691168363ffffffff61044d16565b5050565b600054600160a060020a0316331461025757600080fd5b60008054604051600160a060020a03909116917ff8df31144d9c2f0f6b59d69b8b98abd5459d07f2742c4df920b25aae33c6482091a26000805473ffffffffffffffffffffffffffffffffffffffff19169055565b600054600160a060020a031681565b33600090815260046020526040812054811015610379576003543360009081526004602052604090205442031161037957604080517f08c379a000000000000000000000000000000000000000000000000000000000815260206004820152602760248201527f4e6f7420656e6f7567682074696d6520656c61707365642073696e6365206c6160448201527f7374206472697000000000000000000000000000000000000000000000000000606482015290519081900360840190fd5b33600081815260046020818152604080842042905560015460025482517fa9059cbb00000000000000000000000000000000000000000000000000000000815294850196909652602484019590955251600160a060020a039094169363a9059cbb936044808501948390030190829087803b1580156103f757600080fd5b505af115801561040b573d6000803e3d6000fd5b505050506040513d602081101561042157600080fd5b50600191505090565b600054600160a060020a0316331461044157600080fd5b61044a81610505565b50565b82600160a060020a031663a9059cbb83836040518363ffffffff167c01000000000000000000000000000000000000000000000000000000000281526004018083600160a060020a0316600160a060020a0316815260200182815260200192505050602060405180830381600087803b1580156104c957600080fd5b505af11580156104dd573d6000803e3d6000fd5b505050506040513d60208110156104f357600080fd5b5051151561050057600080fd5b505050565b600160a060020a038116151561051a57600080fd5b60008054604051600160a060020a03808516939216917f8be0079c531659141344cd1fd0a4f28419497f9722a3daafe3b4186f6b6457e091a36000805473ffffffffffffffffffffffffffffffffffffffff1916600160a060020a03929092169190911790555600a165627a7a72305820845f7f6a6e3f577f2584dc85e474c1a8b6119d3cc8947ade8628389f65a9f6650029",
  "source": "/*\n    Copyright 2018 Menlo, Inc.\n\n    Licensed under the Apache License, Version 2.0 (the “License”);\n    you may not use this file except in compliance with the License.\n    You may obtain a copy of the License at\n\n    http://www.apache.org/licenses/LICENSE-2.0\n\n    Unless required by applicable law or agreed to in writing, software\n    distributed under the License is distributed on an “AS IS” BASIS,\n    WITHOUT WARRANTIES OR CONDITIONS OF ANY KIND, either express or implied.\n    See the License for the specific language governing permissions and\n    limitations under the License.\n*/\npragma solidity^0.4.24;\n\nimport \"menlo-token/contracts/MenloToken.sol\";\n\n\ncontract MenloFaucet is Ownable, CanReclaimToken {\n\n    MenloToken token;\n    uint256 tokens;\n    uint256 delay;\n    mapping(address => uint256) public lastDrip;\n\n    constructor(MenloToken _token, uint256 _tokens, uint256 _delay ) public {\n        token = _token;\n        tokens = _tokens;\n        delay = _delay;\n    }\n\n    function drip() public returns (bool) {\n        if (lastDrip[msg.sender] > 0) {\n            require(block.timestamp - lastDrip[msg.sender] > delay, \"Not enough time elapsed since last drip\");\n        }\n\n        lastDrip[msg.sender] = block.timestamp;\n        token.transfer(msg.sender, tokens);\n\n        return true;\n    }\n}",
  "sourcePath": "/Users/richardbross/block-overflow/contracts/MenloFaucet.sol",
  "compiler": {
    "name": "solc",
    "version": "0.4.24+commit.e67f0147.Emscripten.clang"
  },
  "schemaVersion": "2.0.1",
  "updatedAt": "2018-10-05T17:15:33.018Z"
}