{
  "contractName": "MenloTokenSale",
  "abi": [
    {
      "constant": true,
      "inputs": [],
      "name": "WEEK3",
      "outputs": [
        {
          "name": "",
          "type": "uint256"
        }
      ],
      "payable": false,
      "stateMutability": "view",
      "type": "function"
    },
    {
      "constant": true,
      "inputs": [],
      "name": "whitelister",
      "outputs": [
        {
          "name": "",
          "type": "address"
        }
      ],
      "payable": false,
      "stateMutability": "view",
      "type": "function"
    },
    {
      "constant": true,
      "inputs": [],
      "name": "HOUR1",
      "outputs": [
        {
          "name": "",
          "type": "uint256"
        }
      ],
      "payable": false,
      "stateMutability": "view",
      "type": "function"
    },
    {
      "constant": true,
      "inputs": [],
      "name": "endTime",
      "outputs": [
        {
          "name": "",
          "type": "uint256"
        }
      ],
      "payable": false,
      "stateMutability": "view",
      "type": "function"
    },
    {
      "constant": true,
      "inputs": [],
      "name": "cap",
      "outputs": [
        {
          "name": "",
          "type": "uint256"
        }
      ],
      "payable": false,
      "stateMutability": "view",
      "type": "function"
    },
    {
      "constant": false,
      "inputs": [],
      "name": "withdraw",
      "outputs": [],
      "payable": false,
      "stateMutability": "nonpayable",
      "type": "function"
    },
    {
      "constant": true,
      "inputs": [],
      "name": "weiRaised",
      "outputs": [
        {
          "name": "",
          "type": "uint256"
        }
      ],
      "payable": false,
      "stateMutability": "view",
      "type": "function"
    },
    {
      "constant": true,
      "inputs": [],
      "name": "WEEK1",
      "outputs": [
        {
          "name": "",
          "type": "uint256"
        }
      ],
      "payable": false,
      "stateMutability": "view",
      "type": "function"
    },
    {
      "constant": true,
      "inputs": [],
      "name": "wallet",
      "outputs": [
        {
          "name": "",
          "type": "address"
        }
      ],
      "payable": false,
      "stateMutability": "view",
      "type": "function"
    },
    {
      "constant": false,
      "inputs": [],
      "name": "refund",
      "outputs": [
        {
          "name": "",
          "type": "bool"
        }
      ],
      "payable": false,
      "stateMutability": "nonpayable",
      "type": "function"
    },
    {
      "constant": false,
      "inputs": [
        {
          "name": "_addresses",
          "type": "address[]"
        },
        {
          "name": "_status",
          "type": "bool"
        }
      ],
      "name": "whitelistAddresses",
      "outputs": [],
      "payable": false,
      "stateMutability": "nonpayable",
      "type": "function"
    },
    {
      "constant": true,
      "inputs": [],
      "name": "WEEK2",
      "outputs": [
        {
          "name": "",
          "type": "uint256"
        }
      ],
      "payable": false,
      "stateMutability": "view",
      "type": "function"
    },
    {
      "constant": false,
      "inputs": [],
      "name": "renounceOwnership",
      "outputs": [],
      "payable": false,
      "stateMutability": "nonpayable",
      "type": "function"
    },
    {
      "constant": true,
      "inputs": [],
      "name": "startTime",
      "outputs": [
        {
          "name": "",
          "type": "uint256"
        }
      ],
      "payable": false,
      "stateMutability": "view",
      "type": "function"
    },
    {
      "constant": true,
      "inputs": [],
      "name": "isFinalized",
      "outputs": [
        {
          "name": "",
          "type": "bool"
        }
      ],
      "payable": false,
      "stateMutability": "view",
      "type": "function"
    },
    {
      "constant": true,
      "inputs": [],
      "name": "owner",
      "outputs": [
        {
          "name": "",
          "type": "address"
        }
      ],
      "payable": false,
      "stateMutability": "view",
      "type": "function"
    },
    {
      "constant": false,
      "inputs": [],
      "name": "emergencyFinalize",
      "outputs": [],
      "payable": false,
      "stateMutability": "nonpayable",
      "type": "function"
    },
    {
      "constant": true,
      "inputs": [],
      "name": "WEEK4",
      "outputs": [
        {
          "name": "",
          "type": "uint256"
        }
      ],
      "payable": false,
      "stateMutability": "view",
      "type": "function"
    },
    {
      "constant": true,
      "inputs": [
        {
          "name": "",
          "type": "address"
        }
      ],
      "name": "whitelist",
      "outputs": [
        {
          "name": "",
          "type": "bool"
        }
      ],
      "payable": false,
      "stateMutability": "view",
      "type": "function"
    },
    {
      "constant": false,
      "inputs": [],
      "name": "checkFinalize",
      "outputs": [],
      "payable": false,
      "stateMutability": "nonpayable",
      "type": "function"
    },
    {
      "constant": false,
      "inputs": [],
      "name": "buyTokens",
      "outputs": [
        {
          "name": "",
          "type": "uint256"
        }
      ],
      "payable": true,
      "stateMutability": "payable",
      "type": "function"
    },
    {
      "constant": true,
      "inputs": [],
      "name": "hasEnded",
      "outputs": [
        {
          "name": "",
          "type": "bool"
        }
      ],
      "payable": false,
      "stateMutability": "view",
      "type": "function"
    },
    {
      "constant": false,
      "inputs": [
        {
          "name": "_newOwner",
          "type": "address"
        }
      ],
      "name": "transferOwnership",
      "outputs": [],
      "payable": false,
      "stateMutability": "nonpayable",
      "type": "function"
    },
    {
      "constant": false,
      "inputs": [
        {
          "name": "_whitelister",
          "type": "address"
        }
      ],
      "name": "setWhitelister",
      "outputs": [],
      "payable": false,
      "stateMutability": "nonpayable",
      "type": "function"
    },
    {
      "constant": true,
      "inputs": [],
      "name": "token",
      "outputs": [
        {
          "name": "",
          "type": "address"
        }
      ],
      "payable": false,
      "stateMutability": "view",
      "type": "function"
    },
    {
      "inputs": [
        {
          "name": "_token",
          "type": "address"
        },
        {
          "name": "_startTime",
          "type": "uint256"
        },
        {
          "name": "_endTime",
          "type": "uint256"
        },
        {
          "name": "_cap",
          "type": "uint256"
        },
        {
          "name": "_wallet",
          "type": "address"
        }
      ],
      "payable": false,
      "stateMutability": "nonpayable",
      "type": "constructor"
    },
    {
      "payable": true,
      "stateMutability": "payable",
      "type": "fallback"
    },
    {
      "anonymous": false,
      "inputs": [
        {
          "indexed": true,
          "name": "purchaser",
          "type": "address"
        },
        {
          "indexed": false,
          "name": "value",
          "type": "uint256"
        },
        {
          "indexed": false,
          "name": "amount",
          "type": "uint256"
        }
      ],
      "name": "TokenPurchase",
      "type": "event"
    },
    {
      "anonymous": false,
      "inputs": [
        {
          "indexed": true,
          "name": "purchaser",
          "type": "address"
        },
        {
          "indexed": false,
          "name": "amount",
          "type": "uint256"
        }
      ],
      "name": "TokenRedeem",
      "type": "event"
    },
    {
      "anonymous": false,
      "inputs": [],
      "name": "Finalized",
      "type": "event"
    },
    {
      "anonymous": false,
      "inputs": [
        {
          "indexed": false,
          "name": "amount",
          "type": "uint256"
        }
      ],
      "name": "TokensRefund",
      "type": "event"
    },
    {
      "anonymous": false,
      "inputs": [
        {
          "indexed": true,
          "name": "purchaser",
          "type": "address"
        },
        {
          "indexed": false,
          "name": "amount",
          "type": "uint256"
        }
      ],
      "name": "Refund",
      "type": "event"
    },
    {
      "anonymous": false,
      "inputs": [
        {
          "indexed": true,
          "name": "previousOwner",
          "type": "address"
        }
      ],
      "name": "OwnershipRenounced",
      "type": "event"
    },
    {
      "anonymous": false,
      "inputs": [
        {
          "indexed": true,
          "name": "previousOwner",
          "type": "address"
        },
        {
          "indexed": true,
          "name": "newOwner",
          "type": "address"
        }
      ],
      "name": "OwnershipTransferred",
      "type": "event"
    },
    {
      "constant": true,
      "inputs": [],
      "name": "calculateBonusRate",
      "outputs": [
        {
          "name": "",
          "type": "uint256"
        }
      ],
      "payable": false,
      "stateMutability": "view",
      "type": "function"
    }
  ],
  "bytecode": "0x608060405234801561001057600080fd5b5060405160a0806117af8339810160409081528151602083015191830151606084015160809094015160008054600160a060020a0319163317905591939091848484848461006564010000000061037c810204565b8410156100f957604080517f08c379a000000000000000000000000000000000000000000000000000000000815260206004820152602260248201527f53746172742074696d652073686f756c6420626520696e20746865206675747560448201527f7265000000000000000000000000000000000000000000000000000000000000606482015290519081900360840190fd5b8383101561018e57604080517f08c379a000000000000000000000000000000000000000000000000000000000815260206004820152602360248201527f456e642074696d652073686f756c64206265206166746572207374617274207460448201527f696d650000000000000000000000000000000000000000000000000000000000606482015290519081900360840190fd5b600160a060020a038116151561022b57604080517f08c379a000000000000000000000000000000000000000000000000000000000815260206004820152602160248201527f57616c6c657420616464726573732073686f756c64206265206e6f6e2d7a657260448201527f6f00000000000000000000000000000000000000000000000000000000000000606482015290519081900360840190fd5b600160a060020a03851615156102a257604080517f08c379a000000000000000000000000000000000000000000000000000000000815260206004820181905260248201527f546f6b656e20616464726573732073686f756c64206265206e6f6e2d7a65726f604482015290519081900360640190fd5b6000821161031157604080517f08c379a000000000000000000000000000000000000000000000000000000000815260206004820152601f60248201527f4361702073686f756c642062652067726561746572207468616e207a65726f00604482015290519081900360640190fd5b60048054600160a060020a03968716600160a060020a03199182161790915560058590556006939093556003919091556007805491909416911617909155610e10810160095562093a808101600a55621275008101600b55621baf8001600c55506103809350505050565b4290565b6114208061038f6000396000f3006080604052600436106101535763ffffffff7c01000000000000000000000000000000000000000000000000000000006000350416630317b390811461015e57806322758a4a1461018557806329d97b61146101b65780633197cbb6146101cb578063355274ea146101e05780633ccfd60b146101f55780634042b66f1461020c57806342c14cfe1461022157806351927ad914610236578063521eb2731461024b578063590e1ae31461026057806362e7707e146102895780636aab68c3146102e2578063715018a6146102f757806378e979251461030c5780638d4e4083146103215780638da5cb5b1461033657806393ce97911461034b57806394d27635146103605780639b19251a14610375578063c2161c8814610396578063d0febe4c146103ab578063ecb70fb7146103b3578063f2fde38b146103c8578063f98f5b92146103e9578063fc0c546a1461040a575b61015b61041f565b50005b34801561016a57600080fd5b50610173610a42565b60408051918252519081900360200190f35b34801561019157600080fd5b5061019a610a48565b60408051600160a060020a039092168252519081900360200190f35b3480156101c257600080fd5b50610173610a57565b3480156101d757600080fd5b50610173610a5d565b3480156101ec57600080fd5b50610173610a63565b34801561020157600080fd5b5061020a610a69565b005b34801561021857600080fd5b50610173610abe565b34801561022d57600080fd5b50610173610ac4565b34801561024257600080fd5b50610173610b34565b34801561025757600080fd5b5061019a610b3a565b34801561026c57600080fd5b50610275610b49565b604080519115158252519081900360200190f35b34801561029557600080fd5b506040805160206004803580820135838102808601850190965280855261020a95369593946024949385019291829185019084908082843750949750505050913515159250610dcd915050565b3480156102ee57600080fd5b50610173610ebb565b34801561030357600080fd5b5061020a610ec1565b34801561031857600080fd5b50610173610f2d565b34801561032d57600080fd5b50610275610f33565b34801561034257600080fd5b5061019a610f54565b34801561035757600080fd5b5061020a610f63565b34801561036c57600080fd5b50610173610f84565b34801561038157600080fd5b50610275600160a060020a0360043516610f8a565b3480156103a257600080fd5b5061020a610f9f565b61017361041f565b3480156103bf57600080fd5b50610275610fb4565b3480156103d457600080fd5b5061020a600160a060020a0360043516610fff565b3480156103f557600080fd5b5061020a600160a060020a036004351661101f565b34801561041657600080fd5b5061019a611065565b336000908152600160205260408120548190819081908190819060ff1615156104b8576040805160e560020a62461bcd02815260206004820152602560248201527f4578706563746564206d73672e73656e64657220746f2062652077686974656c60448201527f6973746564000000000000000000000000000000000000000000000000000000606482015290519081900360840190fd5b6104c0610f9f565b60025474010000000000000000000000000000000000000000900460ff1615610559576040805160e560020a62461bcd02815260206004820152602760248201527f53686f756c64206e6f742062652066696e616c697a6564207768656e2070757260448201527f63686173696e6700000000000000000000000000000000000000000000000000606482015290519081900360840190fd5b600554610564611074565b1015801561057b5750600654610578611074565b11155b15156105d1576040805160e560020a62461bcd02815260206004820152601560248201527f53686f756c6420626520647572696e672073616c650000000000000000000000604482015290519081900360640190fd5b341515610628576040805160e560020a62461bcd02815260206004820152601860248201527f56616c75652073686f756c64206e6f74206265207a65726f0000000000000000604482015290519081900360640190fd5b600480546040805160e060020a6370a08231028152309381019390935251600092600160a060020a03909216916370a0823191602480830192602092919082900301818787803b15801561067b57600080fd5b505af115801561068f573d6000803e3d6000fd5b505050506040513d60208110156106a557600080fd5b5051116106fc576040805160e560020a62461bcd02815260206004820152601e60248201527f5468697320636f6e7472616374206d757374206861766520746f6b656e730000604482015290519081900360640190fd5b6008546003543496506107149163ffffffff61107816565b935083851115610722578394505b61073a61072d610ac4565b869063ffffffff61108f16565b600480546040805160e060020a6370a08231028152309381019390935251929550600160a060020a0316916370a08231916024808201926020929091908290030181600087803b15801561078d57600080fd5b505af11580156107a1573d6000803e3d6000fd5b505050506040513d60208110156107b757600080fd5b5051831115610857576108546107cb610ac4565b600480546040805160e060020a6370a08231028152309381019390935251600160a060020a03909116916370a082319160248083019260209291908290030181600087803b15801561081c57600080fd5b505af1158015610830573d6000803e3d6000fd5b505050506040513d602081101561084657600080fd5b50519063ffffffff6110b816565b94505b60048054604080517f3f4ba83a0000000000000000000000000000000000000000000000000000000081529051600160a060020a0390921692633f4ba83a92828201926000929082900301818387803b1580156108b357600080fd5b505af11580156108c7573d6000803e3d6000fd5b50506008546108df925090508663ffffffff6110cd16565b6008556108eb856110da565b6108fb348663ffffffff61107816565b9150600082111561096b57604051339083156108fc029084906000818181858888f19350505050158015610933573d6000803e3d6000fd5b5060408051838152905133917fbb28353e4598c3b9199101a66e0989549b659a59a54d2c27fbb183f1932c8e6d919081900360200190a25b61097485611118565b6040805187815260208101839052815192935033927fcd60aa75dea3072fbc07ae6d7d856b5dc5f4eee88854f5b4abf7b680ef8bc50f929181900390910190a26109bd81611132565b60048054604080517f8456cb590000000000000000000000000000000000000000000000000000000081529051600160a060020a0390921692638456cb5992828201926000929082900301818387803b158015610a1957600080fd5b505af1158015610a2d573d6000803e3d6000fd5b50505050610a39610f9f565b95945050505050565b600c5481565b600254600160a060020a031681565b60095481565b60065481565b60035481565b600054600160a060020a03163314610a8057600080fd5b60008054604051600160a060020a0390911691303180156108fc02929091818181858888f19350505050158015610abb573d6000803e3d6000fd5b50565b60085481565b6000612ee081610ad2611074565b905060055481118015610ae757506009548111155b15610af657613cf09150610b2b565b600a548111610b09576135e89150610b2b565b600b548111610b1c576133909150610b2b565b600c548111610b2b5761313891505b8192505b505090565b600a5481565b600754600160a060020a031681565b600080548190600160a060020a03163314610b6357600080fd5b610b6b610fb4565b1515610be7576040805160e560020a62461bcd02815260206004820152602560248201527f53616c652073686f756c64206861766520656e646564207768656e207265667560448201527f6e64696e67000000000000000000000000000000000000000000000000000000606482015290519081900360840190fd5b600480546040805160e060020a6370a08231028152309381019390935251600160a060020a03909116916370a082319160248083019260209291908290030181600087803b158015610c3857600080fd5b505af1158015610c4c573d6000803e3d6000fd5b505050506040513d6020811015610c6257600080fd5b50519050801515610c765760009150610dc9565b6004805460008054604080517fa9059cbb000000000000000000000000000000000000000000000000000000008152600160a060020a0392831695810195909552602485018690525192169263a9059cbb9260448083019360209383900390910190829087803b158015610ce957600080fd5b505af1158015610cfd573d6000803e3d6000fd5b505050506040513d6020811015610d1357600080fd5b50511515610d91576040805160e560020a62461bcd02815260206004820152602260248201527f457870656374656420746f6b656e207472616e7366657220746f20737563636560448201527f6564000000000000000000000000000000000000000000000000000000000000606482015290519081900360840190fd5b6040805182815290517ff3d11fa0b0c8ecc03cfb3e9730f3e26aab44a500bbd00c264dd40f331fd68a489181900360200190a1600191505b5090565b6002546000908190600160a060020a03163314610e34576040805160e560020a62461bcd02815260206004820152601c60248201527f53656e6465722073686f756c642062652077686974656c697374657200000000604482015290519081900360640190fd5b600091505b8351821015610eb5578382815181101515610e5057fe5b6020908102909101810151600160a060020a0381166000908152600190925260409091205490915060ff16151583151514610eaa57600160a060020a0381166000908152600160205260409020805460ff19168415151790555b600190910190610e39565b50505050565b600b5481565b600054600160a060020a03163314610ed857600080fd5b60008054604051600160a060020a03909116917ff8df31144d9c2f0f6b59d69b8b98abd5459d07f2742c4df920b25aae33c6482091a26000805473ffffffffffffffffffffffffffffffffffffffff19169055565b60055481565b60025474010000000000000000000000000000000000000000900460ff1681565b600054600160a060020a031681565b600054600160a060020a03163314610f7a57600080fd5b610f82611205565b565b600d5481565b60016020526000908152604090205460ff1681565b610fa7610fb4565b15610f8257610f82611205565b6000806000600260149054906101000a900460ff1615610fd75760019250610b2f565b60035460085410159150600654610fec611074565b1190508080610ff85750815b9250505090565b600054600160a060020a0316331461101657600080fd5b610abb81611377565b600054600160a060020a0316331461103657600080fd5b6002805473ffffffffffffffffffffffffffffffffffffffff1916600160a060020a0392909216919091179055565b600454600160a060020a031681565b4290565b60008282111561108457fe5b508082035b92915050565b60008215156110a057506000611089565b508181028183828115156110b057fe5b041461108957fe5b600081838115156110c557fe5b049392505050565b8181018281101561108957fe5b600754604051600160a060020a039091169082156108fc029083906000818181858888f19350505050158015611114573d6000803e3d6000fd5b5050565b6000611089611125610ac4565b839063ffffffff61108f16565b60048054604080517fa9059cbb00000000000000000000000000000000000000000000000000000000815233938101939093526024830184905251600160a060020a039091169163a9059cbb9160448083019260209291908290030181600087803b1580156111a057600080fd5b505af11580156111b4573d6000803e3d6000fd5b505050506040513d60208110156111ca57600080fd5b505060408051828152905133917fbdb57edcb6b7ce9397b9a0605c37466c6840e9df7a6a10356ff8ba66467e714a919081900360200190a250565b60025474010000000000000000000000000000000000000000900460ff161561129e576040805160e560020a62461bcd02815260206004820152602760248201527f53686f756c64206e6f742062652066696e616c697a6564207768656e2066696e60448201527f616c697a696e6700000000000000000000000000000000000000000000000000606482015290519081900360840190fd5b6040517f6823b073d48d6e3a7d385eeb601452d680e74bb46afe3255a7d778f3a9b1768190600090a16002805474ff00000000000000000000000000000000000000001916740100000000000000000000000000000000000000001790556004805460008054604080517ff2fde38b000000000000000000000000000000000000000000000000000000008152600160a060020a03928316958101959095525192169263f2fde38b926024808301939282900301818387803b15801561136357600080fd5b505af1158015610eb5573d6000803e3d6000fd5b600160a060020a038116151561138c57600080fd5b60008054604051600160a060020a03808516939216917f8be0079c531659141344cd1fd0a4f28419497f9722a3daafe3b4186f6b6457e091a36000805473ffffffffffffffffffffffffffffffffffffffff1916600160a060020a03929092169190911790555600a165627a7a72305820e3fe99a52e5adf7cf1deb58454723d8df15c6d5c5f267604bd9459ca7378cce00029",
  "source": "pragma solidity ^0.4.13;\n\nlibrary SafeMath {\n\n  /**\n  * @dev Multiplies two numbers, throws on overflow.\n  */\n  function mul(uint256 _a, uint256 _b) internal pure returns (uint256 c) {\n    // Gas optimization: this is cheaper than asserting 'a' not being zero, but the\n    // benefit is lost if 'b' is also tested.\n    // See: https://github.com/OpenZeppelin/openzeppelin-solidity/pull/522\n    if (_a == 0) {\n      return 0;\n    }\n\n    c = _a * _b;\n    assert(c / _a == _b);\n    return c;\n  }\n\n  /**\n  * @dev Integer division of two numbers, truncating the quotient.\n  */\n  function div(uint256 _a, uint256 _b) internal pure returns (uint256) {\n    // assert(_b > 0); // Solidity automatically throws when dividing by 0\n    // uint256 c = _a / _b;\n    // assert(_a == _b * c + _a % _b); // There is no case in which this doesn't hold\n    return _a / _b;\n  }\n\n  /**\n  * @dev Subtracts two numbers, throws on overflow (i.e. if subtrahend is greater than minuend).\n  */\n  function sub(uint256 _a, uint256 _b) internal pure returns (uint256) {\n    assert(_b <= _a);\n    return _a - _b;\n  }\n\n  /**\n  * @dev Adds two numbers, throws on overflow.\n  */\n  function add(uint256 _a, uint256 _b) internal pure returns (uint256 c) {\n    c = _a + _b;\n    assert(c >= _a);\n    return c;\n  }\n}\n\ncontract Ownable {\n  address public owner;\n\n\n  event OwnershipRenounced(address indexed previousOwner);\n  event OwnershipTransferred(\n    address indexed previousOwner,\n    address indexed newOwner\n  );\n\n\n  /**\n   * @dev The Ownable constructor sets the original `owner` of the contract to the sender\n   * account.\n   */\n  constructor() public {\n    owner = msg.sender;\n  }\n\n  /**\n   * @dev Throws if called by any account other than the owner.\n   */\n  modifier onlyOwner() {\n    require(msg.sender == owner);\n    _;\n  }\n\n  /**\n   * @dev Allows the current owner to relinquish control of the contract.\n   * @notice Renouncing to ownership will leave the contract without an owner.\n   * It will not be possible to call the functions with the `onlyOwner`\n   * modifier anymore.\n   */\n  function renounceOwnership() public onlyOwner {\n    emit OwnershipRenounced(owner);\n    owner = address(0);\n  }\n\n  /**\n   * @dev Allows the current owner to transfer control of the contract to a newOwner.\n   * @param _newOwner The address to transfer ownership to.\n   */\n  function transferOwnership(address _newOwner) public onlyOwner {\n    _transferOwnership(_newOwner);\n  }\n\n  /**\n   * @dev Transfers control of the contract to a newOwner.\n   * @param _newOwner The address to transfer ownership to.\n   */\n  function _transferOwnership(address _newOwner) internal {\n    require(_newOwner != address(0));\n    emit OwnershipTransferred(owner, _newOwner);\n    owner = _newOwner;\n  }\n}\n\ncontract Pausable is Ownable {\n  event Pause();\n  event Unpause();\n\n  bool public paused = false;\n\n\n  /**\n   * @dev Modifier to make a function callable only when the contract is not paused.\n   */\n  modifier whenNotPaused() {\n    require(!paused);\n    _;\n  }\n\n  /**\n   * @dev Modifier to make a function callable only when the contract is paused.\n   */\n  modifier whenPaused() {\n    require(paused);\n    _;\n  }\n\n  /**\n   * @dev called by the owner to pause, triggers stopped state\n   */\n  function pause() public onlyOwner whenNotPaused {\n    paused = true;\n    emit Pause();\n  }\n\n  /**\n   * @dev called by the owner to unpause, returns to normal state\n   */\n  function unpause() public onlyOwner whenPaused {\n    paused = false;\n    emit Unpause();\n  }\n}\n\ncontract CanReclaimToken is Ownable {\n  using SafeERC20 for ERC20Basic;\n\n  /**\n   * @dev Reclaim all ERC20Basic compatible tokens\n   * @param _token ERC20Basic The address of the token contract\n   */\n  function reclaimToken(ERC20Basic _token) external onlyOwner {\n    uint256 balance = _token.balanceOf(this);\n    _token.safeTransfer(owner, balance);\n  }\n\n}\n\ncontract ERC20Basic {\n  function totalSupply() public view returns (uint256);\n  function balanceOf(address _who) public view returns (uint256);\n  function transfer(address _to, uint256 _value) public returns (bool);\n  event Transfer(address indexed from, address indexed to, uint256 value);\n}\n\ncontract BasicToken is ERC20Basic {\n  using SafeMath for uint256;\n\n  mapping(address => uint256) internal balances;\n\n  uint256 internal totalSupply_;\n\n  /**\n  * @dev Total number of tokens in existence\n  */\n  function totalSupply() public view returns (uint256) {\n    return totalSupply_;\n  }\n\n  /**\n  * @dev Transfer token for a specified address\n  * @param _to The address to transfer to.\n  * @param _value The amount to be transferred.\n  */\n  function transfer(address _to, uint256 _value) public returns (bool) {\n    require(_value <= balances[msg.sender]);\n    require(_to != address(0));\n\n    balances[msg.sender] = balances[msg.sender].sub(_value);\n    balances[_to] = balances[_to].add(_value);\n    emit Transfer(msg.sender, _to, _value);\n    return true;\n  }\n\n  /**\n  * @dev Gets the balance of the specified address.\n  * @param _owner The address to query the the balance of.\n  * @return An uint256 representing the amount owned by the passed address.\n  */\n  function balanceOf(address _owner) public view returns (uint256) {\n    return balances[_owner];\n  }\n\n}\n\ncontract BurnableToken is BasicToken {\n\n  event Burn(address indexed burner, uint256 value);\n\n  /**\n   * @dev Burns a specific amount of tokens.\n   * @param _value The amount of token to be burned.\n   */\n  function burn(uint256 _value) public {\n    _burn(msg.sender, _value);\n  }\n\n  function _burn(address _who, uint256 _value) internal {\n    require(_value <= balances[_who]);\n    // no need to require value <= totalSupply, since that would imply the\n    // sender's balance is greater than the totalSupply, which *should* be an assertion failure\n\n    balances[_who] = balances[_who].sub(_value);\n    totalSupply_ = totalSupply_.sub(_value);\n    emit Burn(_who, _value);\n    emit Transfer(_who, address(0), _value);\n  }\n}\n\ncontract ERC20 is ERC20Basic {\n  function allowance(address _owner, address _spender)\n    public view returns (uint256);\n\n  function transferFrom(address _from, address _to, uint256 _value)\n    public returns (bool);\n\n  function approve(address _spender, uint256 _value) public returns (bool);\n  event Approval(\n    address indexed owner,\n    address indexed spender,\n    uint256 value\n  );\n}\n\nlibrary SafeERC20 {\n  function safeTransfer(\n    ERC20Basic _token,\n    address _to,\n    uint256 _value\n  )\n    internal\n  {\n    require(_token.transfer(_to, _value));\n  }\n\n  function safeTransferFrom(\n    ERC20 _token,\n    address _from,\n    address _to,\n    uint256 _value\n  )\n    internal\n  {\n    require(_token.transferFrom(_from, _to, _value));\n  }\n\n  function safeApprove(\n    ERC20 _token,\n    address _spender,\n    uint256 _value\n  )\n    internal\n  {\n    require(_token.approve(_spender, _value));\n  }\n}\n\ncontract StandardToken is ERC20, BasicToken {\n\n  mapping (address => mapping (address => uint256)) internal allowed;\n\n\n  /**\n   * @dev Transfer tokens from one address to another\n   * @param _from address The address which you want to send tokens from\n   * @param _to address The address which you want to transfer to\n   * @param _value uint256 the amount of tokens to be transferred\n   */\n  function transferFrom(\n    address _from,\n    address _to,\n    uint256 _value\n  )\n    public\n    returns (bool)\n  {\n    require(_value <= balances[_from]);\n    require(_value <= allowed[_from][msg.sender]);\n    require(_to != address(0));\n\n    balances[_from] = balances[_from].sub(_value);\n    balances[_to] = balances[_to].add(_value);\n    allowed[_from][msg.sender] = allowed[_from][msg.sender].sub(_value);\n    emit Transfer(_from, _to, _value);\n    return true;\n  }\n\n  /**\n   * @dev Approve the passed address to spend the specified amount of tokens on behalf of msg.sender.\n   * Beware that changing an allowance with this method brings the risk that someone may use both the old\n   * and the new allowance by unfortunate transaction ordering. One possible solution to mitigate this\n   * race condition is to first reduce the spender's allowance to 0 and set the desired value afterwards:\n   * https://github.com/ethereum/EIPs/issues/20#issuecomment-263524729\n   * @param _spender The address which will spend the funds.\n   * @param _value The amount of tokens to be spent.\n   */\n  function approve(address _spender, uint256 _value) public returns (bool) {\n    allowed[msg.sender][_spender] = _value;\n    emit Approval(msg.sender, _spender, _value);\n    return true;\n  }\n\n  /**\n   * @dev Function to check the amount of tokens that an owner allowed to a spender.\n   * @param _owner address The address which owns the funds.\n   * @param _spender address The address which will spend the funds.\n   * @return A uint256 specifying the amount of tokens still available for the spender.\n   */\n  function allowance(\n    address _owner,\n    address _spender\n   )\n    public\n    view\n    returns (uint256)\n  {\n    return allowed[_owner][_spender];\n  }\n\n  /**\n   * @dev Increase the amount of tokens that an owner allowed to a spender.\n   * approve should be called when allowed[_spender] == 0. To increment\n   * allowed value is better to use this function to avoid 2 calls (and wait until\n   * the first transaction is mined)\n   * From MonolithDAO Token.sol\n   * @param _spender The address which will spend the funds.\n   * @param _addedValue The amount of tokens to increase the allowance by.\n   */\n  function increaseApproval(\n    address _spender,\n    uint256 _addedValue\n  )\n    public\n    returns (bool)\n  {\n    allowed[msg.sender][_spender] = (\n      allowed[msg.sender][_spender].add(_addedValue));\n    emit Approval(msg.sender, _spender, allowed[msg.sender][_spender]);\n    return true;\n  }\n\n  /**\n   * @dev Decrease the amount of tokens that an owner allowed to a spender.\n   * approve should be called when allowed[_spender] == 0. To decrement\n   * allowed value is better to use this function to avoid 2 calls (and wait until\n   * the first transaction is mined)\n   * From MonolithDAO Token.sol\n   * @param _spender The address which will spend the funds.\n   * @param _subtractedValue The amount of tokens to decrease the allowance by.\n   */\n  function decreaseApproval(\n    address _spender,\n    uint256 _subtractedValue\n  )\n    public\n    returns (bool)\n  {\n    uint256 oldValue = allowed[msg.sender][_spender];\n    if (_subtractedValue >= oldValue) {\n      allowed[msg.sender][_spender] = 0;\n    } else {\n      allowed[msg.sender][_spender] = oldValue.sub(_subtractedValue);\n    }\n    emit Approval(msg.sender, _spender, allowed[msg.sender][_spender]);\n    return true;\n  }\n\n}\n\ncontract PausableToken is StandardToken, Pausable {\n\n  function transfer(\n    address _to,\n    uint256 _value\n  )\n    public\n    whenNotPaused\n    returns (bool)\n  {\n    return super.transfer(_to, _value);\n  }\n\n  function transferFrom(\n    address _from,\n    address _to,\n    uint256 _value\n  )\n    public\n    whenNotPaused\n    returns (bool)\n  {\n    return super.transferFrom(_from, _to, _value);\n  }\n\n  function approve(\n    address _spender,\n    uint256 _value\n  )\n    public\n    whenNotPaused\n    returns (bool)\n  {\n    return super.approve(_spender, _value);\n  }\n\n  function increaseApproval(\n    address _spender,\n    uint _addedValue\n  )\n    public\n    whenNotPaused\n    returns (bool success)\n  {\n    return super.increaseApproval(_spender, _addedValue);\n  }\n\n  function decreaseApproval(\n    address _spender,\n    uint _subtractedValue\n  )\n    public\n    whenNotPaused\n    returns (bool success)\n  {\n    return super.decreaseApproval(_spender, _subtractedValue);\n  }\n}\n\ncontract MenloSaleBase is Ownable {\n  using SafeMath for uint256;\n\n  // Whitelisted investors\n  mapping (address => bool) public whitelist;\n\n  // Special role used exclusively for managing the whitelist\n  address public whitelister;\n\n  // manual early close flag\n  bool public isFinalized;\n\n  // cap for crowdsale in wei\n  uint256 public cap;\n\n  // The token being sold\n  MenloToken public token;\n\n  // start and end timestamps where contributions are allowed (both inclusive)\n  uint256 public startTime;\n  uint256 public endTime;\n\n  // address where funds are collected\n  address public wallet;\n\n  // amount of raised money in wei\n  uint256 public weiRaised;\n\n  /**\n   * @dev Throws if called by any account other than the whitelister.\n   */\n  modifier onlyWhitelister() {\n    require(msg.sender == whitelister, \"Sender should be whitelister\");\n    _;\n  }\n\n  /**\n   * event for token purchase logging\n   * @param purchaser who bought the tokens\n   * @param value weis paid for purchase\n   * @param amount amount of tokens purchased\n   */\n  event TokenPurchase(address indexed purchaser, uint256 value, uint256 amount);\n\n  /**\n   * event for token redemption logging\n   * @param purchaser who bought the tokens\n   * @param amount amount of tokens redeemed\n   */\n  event TokenRedeem(address indexed purchaser, uint256 amount);\n\n  // termination early or otherwise\n  event Finalized();\n\n  event TokensRefund(uint256 amount);\n\n  /**\n   * event refund of excess ETH if purchase is above the cap\n   * @param amount amount of ETH (in wei) refunded\n   */\n  event Refund(address indexed purchaser, uint256 amount);\n\n  constructor(\n      MenloToken _token,\n      uint256 _startTime,\n      uint256 _endTime,\n      uint256 _cap,\n      address _wallet\n  ) public {\n    require(_startTime >= getBlockTimestamp(), \"Start time should be in the future\");\n    require(_endTime >= _startTime, \"End time should be after start time\");\n    require(_wallet != address(0), \"Wallet address should be non-zero\");\n    require(_token != address(0), \"Token address should be non-zero\");\n    require(_cap > 0, \"Cap should be greater than zero\");\n\n    token = _token;\n\n    startTime = _startTime;\n    endTime = _endTime;\n    cap = _cap;\n    wallet = _wallet;\n  }\n\n  // fallback function can be used to buy tokens\n  function () public payable {\n    buyTokens();\n  }\n\n  // Abstract methods\n  function calculateBonusRate() public view returns (uint256);\n  function buyTokensHook(uint256 _tokens) internal;\n\n  function buyTokens() public payable returns (uint256) {\n    require(whitelist[msg.sender], \"Expected msg.sender to be whitelisted\");\n    checkFinalize();\n    require(!isFinalized, \"Should not be finalized when purchasing\");\n    require(getBlockTimestamp() >= startTime && getBlockTimestamp() <= endTime, \"Should be during sale\");\n    require(msg.value != 0, \"Value should not be zero\");\n    require(token.balanceOf(this) > 0, \"This contract must have tokens\");\n\n    uint256 _weiAmount = msg.value;\n\n    uint256 _remainingToFund = cap.sub(weiRaised);\n    if (_weiAmount > _remainingToFund) {\n      _weiAmount = _remainingToFund;\n    }\n\n    uint256 _totalTokens = _weiAmount.mul(calculateBonusRate());\n    if (_totalTokens > token.balanceOf(this)) {\n      // Change _wei to buy rest of remaining tokens\n      _weiAmount = token.balanceOf(this).div(calculateBonusRate());\n    }\n\n    token.unpause();\n    weiRaised = weiRaised.add(_weiAmount);\n\n    forwardFunds(_weiAmount);\n    uint256 _weiToReturn = msg.value.sub(_weiAmount);\n    if (_weiToReturn > 0) {\n      msg.sender.transfer(_weiToReturn);\n      emit Refund(msg.sender, _weiToReturn);\n    }\n\n    uint256 _tokens = ethToTokens(_weiAmount);\n    emit TokenPurchase(msg.sender, _weiAmount, _tokens);\n    buyTokensHook(_tokens);\n    token.pause();\n\n    checkFinalize();\n\n    return _tokens;\n  }\n\n  // Allows the owner to take back the tokens that are assigned to the sale contract.\n  function refund() external onlyOwner returns (bool) {\n    require(hasEnded(), \"Sale should have ended when refunding\");\n    uint256 _tokens = token.balanceOf(address(this));\n\n    if (_tokens == 0) {\n      return false;\n    }\n\n    require(token.transfer(owner, _tokens), \"Expected token transfer to succeed\");\n\n    emit TokensRefund(_tokens);\n\n    return true;\n  }\n\n  /// @notice interface for founders to whitelist investors\n  /// @param _addresses array of investors\n  /// @param _status enable or disable\n  function whitelistAddresses(address[] _addresses, bool _status) public onlyWhitelister {\n    for (uint256 i = 0; i < _addresses.length; i++) {\n      address _investorAddress = _addresses[i];\n      if (whitelist[_investorAddress] != _status) {\n        whitelist[_investorAddress] = _status;\n      }\n    }\n  }\n\n  function setWhitelister(address _whitelister) public onlyOwner {\n    whitelister = _whitelister;\n  }\n\n  function checkFinalize() public {\n    if (hasEnded()) {\n      finalize();\n    }\n  }\n\n  function emergencyFinalize() public onlyOwner {\n    finalize();\n  }\n\n  function withdraw() public onlyOwner {\n    owner.transfer(address(this).balance);\n  }\n\n  function hasEnded() public constant returns (bool) {\n    if (isFinalized) {\n      return true;\n    }\n    bool _capReached = weiRaised >= cap;\n    bool _passedEndTime = getBlockTimestamp() > endTime;\n    return _passedEndTime || _capReached;\n  }\n\n  // @dev does not require that crowdsale `hasEnded()` to leave safegaurd\n  // in place if ETH rises in price too much during crowdsale.\n  // Allows team to close early if cap is exceeded in USD in this event.\n  function finalize() internal {\n    require(!isFinalized, \"Should not be finalized when finalizing\");\n    emit Finalized();\n    isFinalized = true;\n    token.transferOwnership(owner);\n  }\n\n  // send ether to the fund collection wallet\n  // override to create custom fund forwarding mechanisms\n  function forwardFunds(uint256 _amount) internal {\n    wallet.transfer(_amount);\n  }\n\n  function ethToTokens(uint256 _ethAmount) internal view returns (uint256) {\n    return _ethAmount.mul(calculateBonusRate());\n  }\n\n  function getBlockTimestamp() internal view returns (uint256) {\n    return block.timestamp;\n  }\n}\n\ncontract MenloToken is PausableToken, BurnableToken, CanReclaimToken {\n\n  // Token properties\n  string public constant name = 'Menlo One';\n  string public constant symbol = 'ONE';\n\n  uint8 public constant decimals = 18;\n  uint256 private constant token_factor = 10**uint256(decimals);\n\n  // 1 billion ONE tokens in units divisible up to 18 decimals\n  uint256 public constant INITIAL_SUPPLY    = 1000000000 * token_factor;\n\n  uint256 public constant PUBLICSALE_SUPPLY = 354000000 * token_factor;\n  uint256 public constant GROWTH_SUPPLY     = 246000000 * token_factor;\n  uint256 public constant TEAM_SUPPLY       = 200000000 * token_factor;\n  uint256 public constant ADVISOR_SUPPLY    = 100000000 * token_factor;\n  uint256 public constant PARTNER_SUPPLY    = 100000000 * token_factor;\n\n  /**\n   * @dev Magic value to be returned upon successful reception of Menlo Tokens\n   */\n  bytes4 internal constant ONE_RECEIVED = 0x150b7a03;\n\n  address public crowdsale;\n  address public teamTimelock;\n  address public advisorTimelock;\n\n  modifier notInitialized(address saleAddress) {\n    require(address(saleAddress) == address(0), \"Expected address to be null\");\n    _;\n  }\n\n  constructor(address _growth, address _teamTimelock, address _advisorTimelock, address _partner) public {\n    assert(INITIAL_SUPPLY > 0);\n    assert((PUBLICSALE_SUPPLY + GROWTH_SUPPLY + TEAM_SUPPLY + ADVISOR_SUPPLY + PARTNER_SUPPLY) == INITIAL_SUPPLY);\n\n    uint256 _poolTotal = GROWTH_SUPPLY + TEAM_SUPPLY + ADVISOR_SUPPLY + PARTNER_SUPPLY;\n    uint256 _availableForSales = INITIAL_SUPPLY - _poolTotal;\n\n    assert(_availableForSales == PUBLICSALE_SUPPLY);\n\n    teamTimelock = _teamTimelock;\n    advisorTimelock = _advisorTimelock;\n\n    mint(msg.sender, _availableForSales);\n    mint(_growth, GROWTH_SUPPLY);\n    mint(_teamTimelock, TEAM_SUPPLY);\n    mint(_advisorTimelock, ADVISOR_SUPPLY);\n    mint(_partner, PARTNER_SUPPLY);\n\n    assert(totalSupply_ == INITIAL_SUPPLY);\n    pause();\n  }\n\n  function initializeCrowdsale(address _crowdsale) public onlyOwner notInitialized(crowdsale) {\n    unpause();\n    transfer(_crowdsale, balances[msg.sender]);  // Transfer left over balance after private presale allocations\n    crowdsale = _crowdsale;\n    pause();\n    transferOwnership(_crowdsale);\n  }\n\n  function mint(address _to, uint256 _amount) internal {\n    balances[_to] = _amount;\n    totalSupply_ = totalSupply_.add(_amount);\n    emit Transfer(address(0), _to, _amount);\n  }\n\n  /**\n   * @dev Safely transfers the ownership of a given token ID to another address\n   * If the target address is a contract, it must implement `onERC721Received`,\n   * which is called upon a safe transfer, and return the magic value `bytes4(0x150b7a03)`;\n   * otherwise, the transfer is reverted.\n   * Requires the msg sender to be the owner, approved, or operator\n   * @param _to address to receive the tokens.  Must be a MenloTokenReceiver based contract\n   * @param _value uint256 number of tokens to transfer\n   * @param _action uint256 action to perform in target _to contract\n   * @param _data bytes data to send along with a safe transfer check\n   **/\n  function transferAndCall(address _to, uint256 _value, uint256 _action, bytes _data) public returns (bool) {\n    if (transfer(_to, _value)) {\n      require (MenloTokenReceiver(_to).onTokenReceived(msg.sender, _value, _action, _data) == ONE_RECEIVED, \"Target contract onTokenReceived failed\");\n      return true;\n    }\n\n    return false;\n  }\n}\n\ncontract MenloTokenReceiver {\n\n    /*\n     * @dev Address of the MenloToken contract\n     */\n    MenloToken token;\n\n    constructor(MenloToken _tokenContract) public {\n        token = _tokenContract;\n    }\n\n    /**\n     * @dev Magic value to be returned upon successful reception of Menlo Tokens\n     */\n    bytes4 internal constant ONE_RECEIVED = 0x150b7a03;\n\n    /**\n     * @dev Throws if called by any account other than the Menlo Token contract.\n     */\n    modifier onlyTokenContract() {\n        require(msg.sender == address(token));\n        _;\n    }\n\n    /**\n     * @notice Handle the receipt of Menlo Tokens\n     * @dev The MenloToken contract calls this function on the recipient\n     * after a `transferAndCall`. This function MAY throw to revert and reject the\n     * transfer. Return of other than the magic value MUST result in the\n     * transaction being reverted.\n     * Warning: this function must call the onlyTokenContract modifier to trust\n     * the transfer took place\n     * @param _from The address which previously owned the token\n     * @param _value Number of tokens that were transfered\n     * @param _action Used to define enumeration of possible functions to call\n     * @param _data Additional data with no specified format\n     * @return `bytes4(0x150b7a03)`\n     */\n    function onTokenReceived(\n        address _from,\n        uint256 _value,\n        uint256 _action,\n        bytes _data\n    ) public /* onlyTokenContract */ returns(bytes4);\n}\n\ncontract MenloTokenSale is MenloSaleBase {\n\n  // Timestamps for the bonus periods, set in the constructor\n  uint256 public HOUR1;\n  uint256 public WEEK1;\n  uint256 public WEEK2;\n  uint256 public WEEK3;\n  uint256 public WEEK4;\n\n  constructor(\n    MenloToken _token,\n    uint256 _startTime,\n    uint256 _endTime,\n    uint256 _cap,\n    address _wallet\n  ) MenloSaleBase(\n    _token,\n    _startTime,\n    _endTime,\n    _cap,\n    _wallet\n  ) public {\n    HOUR1 = startTime + 1 hours;\n    WEEK1 = startTime + 1 weeks;\n    WEEK2 = startTime + 2 weeks;\n    WEEK3 = startTime + 3 weeks;\n  }\n\n  // Hour 1: 30% Bonus\n  // Week 1: 15% Bonus\n  // Week 2: 10% Bonus\n  // Week 3: 5% Bonus\n  // Week 4: 0% Bonus\n  function calculateBonusRate() public view returns (uint256) {\n    uint256 _bonusRate = 12000;\n\n    uint256 _currentTime = getBlockTimestamp();\n    if (_currentTime > startTime && _currentTime <= HOUR1) {\n      _bonusRate =  15600;\n    } else if (_currentTime <= WEEK1) {\n      _bonusRate =  13800; // week 1\n    } else if (_currentTime <= WEEK2) {\n      _bonusRate =  13200; // week 2\n    } else if (_currentTime <= WEEK3) {\n      _bonusRate =  12600; // week 3\n    }\n    return _bonusRate;\n  }\n\n  function buyTokensHook(uint256 _tokens) internal {\n    token.transfer(msg.sender, _tokens);\n    emit TokenRedeem(msg.sender, _tokens);\n  }\n}\n\n",
  "sourcePath": "/Users/dave/Code/menlo-token-crowdsale/contracts/MenloTokenSale.sol",
  "compiler": {
    "name": "solc",
    "version": "0.4.24+commit.e67f0147.Emscripten.clang"
  },
  "schemaVersion": "2.0.1",
  "updatedAt": "2018-09-16T18:56:15.327Z"
}