{
  "contractName": "PausableToken",
  "abi": [
    {
      "constant": true,
      "inputs": [],
      "name": "totalSupply",
      "outputs": [
        {
          "name": "",
          "type": "uint256"
        }
      ],
      "payable": false,
      "stateMutability": "view",
      "type": "function"
    },
    {
      "constant": false,
      "inputs": [],
      "name": "unpause",
      "outputs": [],
      "payable": false,
      "stateMutability": "nonpayable",
      "type": "function"
    },
    {
      "constant": true,
      "inputs": [],
      "name": "paused",
      "outputs": [
        {
          "name": "",
          "type": "bool"
        }
      ],
      "payable": false,
      "stateMutability": "view",
      "type": "function"
    },
    {
      "constant": true,
      "inputs": [
        {
          "name": "_owner",
          "type": "address"
        }
      ],
      "name": "balanceOf",
      "outputs": [
        {
          "name": "",
          "type": "uint256"
        }
      ],
      "payable": false,
      "stateMutability": "view",
      "type": "function"
    },
    {
      "constant": false,
      "inputs": [],
      "name": "renounceOwnership",
      "outputs": [],
      "payable": false,
      "stateMutability": "nonpayable",
      "type": "function"
    },
    {
      "constant": false,
      "inputs": [],
      "name": "pause",
      "outputs": [],
      "payable": false,
      "stateMutability": "nonpayable",
      "type": "function"
    },
    {
      "constant": true,
      "inputs": [],
      "name": "owner",
      "outputs": [
        {
          "name": "",
          "type": "address"
        }
      ],
      "payable": false,
      "stateMutability": "view",
      "type": "function"
    },
    {
      "constant": true,
      "inputs": [
        {
          "name": "_owner",
          "type": "address"
        },
        {
          "name": "_spender",
          "type": "address"
        }
      ],
      "name": "allowance",
      "outputs": [
        {
          "name": "",
          "type": "uint256"
        }
      ],
      "payable": false,
      "stateMutability": "view",
      "type": "function"
    },
    {
      "constant": false,
      "inputs": [
        {
          "name": "_newOwner",
          "type": "address"
        }
      ],
      "name": "transferOwnership",
      "outputs": [],
      "payable": false,
      "stateMutability": "nonpayable",
      "type": "function"
    },
    {
      "anonymous": false,
      "inputs": [],
      "name": "Pause",
      "type": "event"
    },
    {
      "anonymous": false,
      "inputs": [],
      "name": "Unpause",
      "type": "event"
    },
    {
      "anonymous": false,
      "inputs": [
        {
          "indexed": true,
          "name": "previousOwner",
          "type": "address"
        }
      ],
      "name": "OwnershipRenounced",
      "type": "event"
    },
    {
      "anonymous": false,
      "inputs": [
        {
          "indexed": true,
          "name": "previousOwner",
          "type": "address"
        },
        {
          "indexed": true,
          "name": "newOwner",
          "type": "address"
        }
      ],
      "name": "OwnershipTransferred",
      "type": "event"
    },
    {
      "anonymous": false,
      "inputs": [
        {
          "indexed": true,
          "name": "owner",
          "type": "address"
        },
        {
          "indexed": true,
          "name": "spender",
          "type": "address"
        },
        {
          "indexed": false,
          "name": "value",
          "type": "uint256"
        }
      ],
      "name": "Approval",
      "type": "event"
    },
    {
      "anonymous": false,
      "inputs": [
        {
          "indexed": true,
          "name": "from",
          "type": "address"
        },
        {
          "indexed": true,
          "name": "to",
          "type": "address"
        },
        {
          "indexed": false,
          "name": "value",
          "type": "uint256"
        }
      ],
      "name": "Transfer",
      "type": "event"
    },
    {
      "constant": false,
      "inputs": [
        {
          "name": "_to",
          "type": "address"
        },
        {
          "name": "_value",
          "type": "uint256"
        }
      ],
      "name": "transfer",
      "outputs": [
        {
          "name": "",
          "type": "bool"
        }
      ],
      "payable": false,
      "stateMutability": "nonpayable",
      "type": "function"
    },
    {
      "constant": false,
      "inputs": [
        {
          "name": "_from",
          "type": "address"
        },
        {
          "name": "_to",
          "type": "address"
        },
        {
          "name": "_value",
          "type": "uint256"
        }
      ],
      "name": "transferFrom",
      "outputs": [
        {
          "name": "",
          "type": "bool"
        }
      ],
      "payable": false,
      "stateMutability": "nonpayable",
      "type": "function"
    },
    {
      "constant": false,
      "inputs": [
        {
          "name": "_spender",
          "type": "address"
        },
        {
          "name": "_value",
          "type": "uint256"
        }
      ],
      "name": "approve",
      "outputs": [
        {
          "name": "",
          "type": "bool"
        }
      ],
      "payable": false,
      "stateMutability": "nonpayable",
      "type": "function"
    },
    {
      "constant": false,
      "inputs": [
        {
          "name": "_spender",
          "type": "address"
        },
        {
          "name": "_addedValue",
          "type": "uint256"
        }
      ],
      "name": "increaseApproval",
      "outputs": [
        {
          "name": "success",
          "type": "bool"
        }
      ],
      "payable": false,
      "stateMutability": "nonpayable",
      "type": "function"
    },
    {
      "constant": false,
      "inputs": [
        {
          "name": "_spender",
          "type": "address"
        },
        {
          "name": "_subtractedValue",
          "type": "uint256"
        }
      ],
      "name": "decreaseApproval",
      "outputs": [
        {
          "name": "success",
          "type": "bool"
        }
      ],
      "payable": false,
      "stateMutability": "nonpayable",
      "type": "function"
    }
  ],
  "bytecode": "0x608060405260038054600160a860020a03191633179055610a7f806100256000396000f3006080604052600436106100cf5763ffffffff7c0100000000000000000000000000000000000000000000000000000000600035041663095ea7b381146100d457806318160ddd1461010c57806323b872dd146101335780633f4ba83a1461015d5780635c975abb14610174578063661884631461018957806370a08231146101ad578063715018a6146101ce5780638456cb59146101e35780638da5cb5b146101f8578063a9059cbb14610229578063d73dd6231461024d578063dd62ed3e14610271578063f2fde38b14610298575b600080fd5b3480156100e057600080fd5b506100f8600160a060020a03600435166024356102b9565b604080519115158252519081900360200190f35b34801561011857600080fd5b506101216102e4565b60408051918252519081900360200190f35b34801561013f57600080fd5b506100f8600160a060020a03600435811690602435166044356102ea565b34801561016957600080fd5b50610172610317565b005b34801561018057600080fd5b506100f861038f565b34801561019557600080fd5b506100f8600160a060020a036004351660243561039f565b3480156101b957600080fd5b50610121600160a060020a03600435166103c3565b3480156101da57600080fd5b506101726103de565b3480156101ef57600080fd5b5061017261044c565b34801561020457600080fd5b5061020d6104c9565b60408051600160a060020a039092168252519081900360200190f35b34801561023557600080fd5b506100f8600160a060020a03600435166024356104d8565b34801561025957600080fd5b506100f8600160a060020a03600435166024356104fc565b34801561027d57600080fd5b50610121600160a060020a0360043581169060243516610520565b3480156102a457600080fd5b50610172600160a060020a036004351661054b565b60035460009060a060020a900460ff16156102d357600080fd5b6102dd838361056e565b9392505050565b60015490565b60035460009060a060020a900460ff161561030457600080fd5b61030f8484846105d4565b949350505050565b600354600160a060020a0316331461032e57600080fd5b60035460a060020a900460ff16151561034657600080fd5b6003805474ff0000000000000000000000000000000000000000191690556040517f7805862f689e2f13df9f062ff482ad3ad112aca9e0847911ed832e158c525b3390600090a1565b60035460a060020a900460ff1681565b60035460009060a060020a900460ff16156103b957600080fd5b6102dd8383610749565b600160a060020a031660009081526020819052604090205490565b600354600160a060020a031633146103f557600080fd5b600354604051600160a060020a03909116907ff8df31144d9c2f0f6b59d69b8b98abd5459d07f2742c4df920b25aae33c6482090600090a26003805473ffffffffffffffffffffffffffffffffffffffff19169055565b600354600160a060020a0316331461046357600080fd5b60035460a060020a900460ff161561047a57600080fd5b6003805474ff0000000000000000000000000000000000000000191660a060020a1790556040517f6985a02210a168e66602d3235cb6db0e70f92b3ba4d376a33c0f3d9434bff62590600090a1565b600354600160a060020a031681565b60035460009060a060020a900460ff16156104f257600080fd5b6102dd8383610838565b60035460009060a060020a900460ff161561051657600080fd5b6102dd8383610917565b600160a060020a03918216600090815260026020908152604080832093909416825291909152205490565b600354600160a060020a0316331461056257600080fd5b61056b816109b0565b50565b336000818152600260209081526040808320600160a060020a038716808552908352818420869055815186815291519394909390927f8c5be1e5ebec7d5bd14f71427d1e84f3dd0314c0f7b2291e5b200ac8c7c3b925928290030190a350600192915050565b600160a060020a0383166000908152602081905260408120548211156105f957600080fd5b600160a060020a038416600090815260026020908152604080832033845290915290205482111561062957600080fd5b600160a060020a038316151561063e57600080fd5b600160a060020a038416600090815260208190526040902054610667908363ffffffff610a2e16565b600160a060020a03808616600090815260208190526040808220939093559085168152205461069c908363ffffffff610a4016565b600160a060020a038085166000908152602081815260408083209490945591871681526002825282812033825290915220546106de908363ffffffff610a2e16565b600160a060020a03808616600081815260026020908152604080832033845282529182902094909455805186815290519287169391927fddf252ad1be2c89b69c2b068fc378daa952ba7f163c4a11628f55a4df523b3ef929181900390910190a35060019392505050565b336000908152600260209081526040808320600160a060020a038616845290915281205480831061079d57336000908152600260209081526040808320600160a060020a03881684529091528120556107d2565b6107ad818463ffffffff610a2e16565b336000908152600260209081526040808320600160a060020a03891684529091529020555b336000818152600260209081526040808320600160a060020a0389168085529083529281902054815190815290519293927f8c5be1e5ebec7d5bd14f71427d1e84f3dd0314c0f7b2291e5b200ac8c7c3b925929181900390910190a35060019392505050565b3360009081526020819052604081205482111561085457600080fd5b600160a060020a038316151561086957600080fd5b33600090815260208190526040902054610889908363ffffffff610a2e16565b3360009081526020819052604080822092909255600160a060020a038516815220546108bb908363ffffffff610a4016565b600160a060020a038416600081815260208181526040918290209390935580518581529051919233927fddf252ad1be2c89b69c2b068fc378daa952ba7f163c4a11628f55a4df523b3ef9281900390910190a350600192915050565b336000908152600260209081526040808320600160a060020a038616845290915281205461094b908363ffffffff610a4016565b336000818152600260209081526040808320600160a060020a0389168085529083529281902085905580519485525191937f8c5be1e5ebec7d5bd14f71427d1e84f3dd0314c0f7b2291e5b200ac8c7c3b925929081900390910190a350600192915050565b600160a060020a03811615156109c557600080fd5b600354604051600160a060020a038084169216907f8be0079c531659141344cd1fd0a4f28419497f9722a3daafe3b4186f6b6457e090600090a36003805473ffffffffffffffffffffffffffffffffffffffff1916600160a060020a0392909216919091179055565b600082821115610a3a57fe5b50900390565b81810182811015610a4d57fe5b929150505600a165627a7a72305820a80f033354a9115dbf28fe544250c441add8851603426d34dc084acd3975c5a60029",
  "source": "pragma solidity ^0.4.13;\n\nlibrary SafeMath {\n\n  /**\n  * @dev Multiplies two numbers, throws on overflow.\n  */\n  function mul(uint256 _a, uint256 _b) internal pure returns (uint256 c) {\n    // Gas optimization: this is cheaper than asserting 'a' not being zero, but the\n    // benefit is lost if 'b' is also tested.\n    // See: https://github.com/OpenZeppelin/openzeppelin-solidity/pull/522\n    if (_a == 0) {\n      return 0;\n    }\n\n    c = _a * _b;\n    assert(c / _a == _b);\n    return c;\n  }\n\n  /**\n  * @dev Integer division of two numbers, truncating the quotient.\n  */\n  function div(uint256 _a, uint256 _b) internal pure returns (uint256) {\n    // assert(_b > 0); // Solidity automatically throws when dividing by 0\n    // uint256 c = _a / _b;\n    // assert(_a == _b * c + _a % _b); // There is no case in which this doesn't hold\n    return _a / _b;\n  }\n\n  /**\n  * @dev Subtracts two numbers, throws on overflow (i.e. if subtrahend is greater than minuend).\n  */\n  function sub(uint256 _a, uint256 _b) internal pure returns (uint256) {\n    assert(_b <= _a);\n    return _a - _b;\n  }\n\n  /**\n  * @dev Adds two numbers, throws on overflow.\n  */\n  function add(uint256 _a, uint256 _b) internal pure returns (uint256 c) {\n    c = _a + _b;\n    assert(c >= _a);\n    return c;\n  }\n}\n\ncontract Ownable {\n  address public owner;\n\n\n  event OwnershipRenounced(address indexed previousOwner);\n  event OwnershipTransferred(\n    address indexed previousOwner,\n    address indexed newOwner\n  );\n\n\n  /**\n   * @dev The Ownable constructor sets the original `owner` of the contract to the sender\n   * account.\n   */\n  constructor() public {\n    owner = msg.sender;\n  }\n\n  /**\n   * @dev Throws if called by any account other than the owner.\n   */\n  modifier onlyOwner() {\n    require(msg.sender == owner);\n    _;\n  }\n\n  /**\n   * @dev Allows the current owner to relinquish control of the contract.\n   * @notice Renouncing to ownership will leave the contract without an owner.\n   * It will not be possible to call the functions with the `onlyOwner`\n   * modifier anymore.\n   */\n  function renounceOwnership() public onlyOwner {\n    emit OwnershipRenounced(owner);\n    owner = address(0);\n  }\n\n  /**\n   * @dev Allows the current owner to transfer control of the contract to a newOwner.\n   * @param _newOwner The address to transfer ownership to.\n   */\n  function transferOwnership(address _newOwner) public onlyOwner {\n    _transferOwnership(_newOwner);\n  }\n\n  /**\n   * @dev Transfers control of the contract to a newOwner.\n   * @param _newOwner The address to transfer ownership to.\n   */\n  function _transferOwnership(address _newOwner) internal {\n    require(_newOwner != address(0));\n    emit OwnershipTransferred(owner, _newOwner);\n    owner = _newOwner;\n  }\n}\n\ncontract Pausable is Ownable {\n  event Pause();\n  event Unpause();\n\n  bool public paused = false;\n\n\n  /**\n   * @dev Modifier to make a function callable only when the contract is not paused.\n   */\n  modifier whenNotPaused() {\n    require(!paused);\n    _;\n  }\n\n  /**\n   * @dev Modifier to make a function callable only when the contract is paused.\n   */\n  modifier whenPaused() {\n    require(paused);\n    _;\n  }\n\n  /**\n   * @dev called by the owner to pause, triggers stopped state\n   */\n  function pause() public onlyOwner whenNotPaused {\n    paused = true;\n    emit Pause();\n  }\n\n  /**\n   * @dev called by the owner to unpause, returns to normal state\n   */\n  function unpause() public onlyOwner whenPaused {\n    paused = false;\n    emit Unpause();\n  }\n}\n\ncontract CanReclaimToken is Ownable {\n  using SafeERC20 for ERC20Basic;\n\n  /**\n   * @dev Reclaim all ERC20Basic compatible tokens\n   * @param _token ERC20Basic The address of the token contract\n   */\n  function reclaimToken(ERC20Basic _token) external onlyOwner {\n    uint256 balance = _token.balanceOf(this);\n    _token.safeTransfer(owner, balance);\n  }\n\n}\n\ncontract ERC20Basic {\n  function totalSupply() public view returns (uint256);\n  function balanceOf(address _who) public view returns (uint256);\n  function transfer(address _to, uint256 _value) public returns (bool);\n  event Transfer(address indexed from, address indexed to, uint256 value);\n}\n\ncontract BasicToken is ERC20Basic {\n  using SafeMath for uint256;\n\n  mapping(address => uint256) internal balances;\n\n  uint256 internal totalSupply_;\n\n  /**\n  * @dev Total number of tokens in existence\n  */\n  function totalSupply() public view returns (uint256) {\n    return totalSupply_;\n  }\n\n  /**\n  * @dev Transfer token for a specified address\n  * @param _to The address to transfer to.\n  * @param _value The amount to be transferred.\n  */\n  function transfer(address _to, uint256 _value) public returns (bool) {\n    require(_value <= balances[msg.sender]);\n    require(_to != address(0));\n\n    balances[msg.sender] = balances[msg.sender].sub(_value);\n    balances[_to] = balances[_to].add(_value);\n    emit Transfer(msg.sender, _to, _value);\n    return true;\n  }\n\n  /**\n  * @dev Gets the balance of the specified address.\n  * @param _owner The address to query the the balance of.\n  * @return An uint256 representing the amount owned by the passed address.\n  */\n  function balanceOf(address _owner) public view returns (uint256) {\n    return balances[_owner];\n  }\n\n}\n\ncontract BurnableToken is BasicToken {\n\n  event Burn(address indexed burner, uint256 value);\n\n  /**\n   * @dev Burns a specific amount of tokens.\n   * @param _value The amount of token to be burned.\n   */\n  function burn(uint256 _value) public {\n    _burn(msg.sender, _value);\n  }\n\n  function _burn(address _who, uint256 _value) internal {\n    require(_value <= balances[_who]);\n    // no need to require value <= totalSupply, since that would imply the\n    // sender's balance is greater than the totalSupply, which *should* be an assertion failure\n\n    balances[_who] = balances[_who].sub(_value);\n    totalSupply_ = totalSupply_.sub(_value);\n    emit Burn(_who, _value);\n    emit Transfer(_who, address(0), _value);\n  }\n}\n\ncontract ERC20 is ERC20Basic {\n  function allowance(address _owner, address _spender)\n    public view returns (uint256);\n\n  function transferFrom(address _from, address _to, uint256 _value)\n    public returns (bool);\n\n  function approve(address _spender, uint256 _value) public returns (bool);\n  event Approval(\n    address indexed owner,\n    address indexed spender,\n    uint256 value\n  );\n}\n\nlibrary SafeERC20 {\n  function safeTransfer(\n    ERC20Basic _token,\n    address _to,\n    uint256 _value\n  )\n    internal\n  {\n    require(_token.transfer(_to, _value));\n  }\n\n  function safeTransferFrom(\n    ERC20 _token,\n    address _from,\n    address _to,\n    uint256 _value\n  )\n    internal\n  {\n    require(_token.transferFrom(_from, _to, _value));\n  }\n\n  function safeApprove(\n    ERC20 _token,\n    address _spender,\n    uint256 _value\n  )\n    internal\n  {\n    require(_token.approve(_spender, _value));\n  }\n}\n\ncontract StandardToken is ERC20, BasicToken {\n\n  mapping (address => mapping (address => uint256)) internal allowed;\n\n\n  /**\n   * @dev Transfer tokens from one address to another\n   * @param _from address The address which you want to send tokens from\n   * @param _to address The address which you want to transfer to\n   * @param _value uint256 the amount of tokens to be transferred\n   */\n  function transferFrom(\n    address _from,\n    address _to,\n    uint256 _value\n  )\n    public\n    returns (bool)\n  {\n    require(_value <= balances[_from]);\n    require(_value <= allowed[_from][msg.sender]);\n    require(_to != address(0));\n\n    balances[_from] = balances[_from].sub(_value);\n    balances[_to] = balances[_to].add(_value);\n    allowed[_from][msg.sender] = allowed[_from][msg.sender].sub(_value);\n    emit Transfer(_from, _to, _value);\n    return true;\n  }\n\n  /**\n   * @dev Approve the passed address to spend the specified amount of tokens on behalf of msg.sender.\n   * Beware that changing an allowance with this method brings the risk that someone may use both the old\n   * and the new allowance by unfortunate transaction ordering. One possible solution to mitigate this\n   * race condition is to first reduce the spender's allowance to 0 and set the desired value afterwards:\n   * https://github.com/ethereum/EIPs/issues/20#issuecomment-263524729\n   * @param _spender The address which will spend the funds.\n   * @param _value The amount of tokens to be spent.\n   */\n  function approve(address _spender, uint256 _value) public returns (bool) {\n    allowed[msg.sender][_spender] = _value;\n    emit Approval(msg.sender, _spender, _value);\n    return true;\n  }\n\n  /**\n   * @dev Function to check the amount of tokens that an owner allowed to a spender.\n   * @param _owner address The address which owns the funds.\n   * @param _spender address The address which will spend the funds.\n   * @return A uint256 specifying the amount of tokens still available for the spender.\n   */\n  function allowance(\n    address _owner,\n    address _spender\n   )\n    public\n    view\n    returns (uint256)\n  {\n    return allowed[_owner][_spender];\n  }\n\n  /**\n   * @dev Increase the amount of tokens that an owner allowed to a spender.\n   * approve should be called when allowed[_spender] == 0. To increment\n   * allowed value is better to use this function to avoid 2 calls (and wait until\n   * the first transaction is mined)\n   * From MonolithDAO Token.sol\n   * @param _spender The address which will spend the funds.\n   * @param _addedValue The amount of tokens to increase the allowance by.\n   */\n  function increaseApproval(\n    address _spender,\n    uint256 _addedValue\n  )\n    public\n    returns (bool)\n  {\n    allowed[msg.sender][_spender] = (\n      allowed[msg.sender][_spender].add(_addedValue));\n    emit Approval(msg.sender, _spender, allowed[msg.sender][_spender]);\n    return true;\n  }\n\n  /**\n   * @dev Decrease the amount of tokens that an owner allowed to a spender.\n   * approve should be called when allowed[_spender] == 0. To decrement\n   * allowed value is better to use this function to avoid 2 calls (and wait until\n   * the first transaction is mined)\n   * From MonolithDAO Token.sol\n   * @param _spender The address which will spend the funds.\n   * @param _subtractedValue The amount of tokens to decrease the allowance by.\n   */\n  function decreaseApproval(\n    address _spender,\n    uint256 _subtractedValue\n  )\n    public\n    returns (bool)\n  {\n    uint256 oldValue = allowed[msg.sender][_spender];\n    if (_subtractedValue >= oldValue) {\n      allowed[msg.sender][_spender] = 0;\n    } else {\n      allowed[msg.sender][_spender] = oldValue.sub(_subtractedValue);\n    }\n    emit Approval(msg.sender, _spender, allowed[msg.sender][_spender]);\n    return true;\n  }\n\n}\n\ncontract PausableToken is StandardToken, Pausable {\n\n  function transfer(\n    address _to,\n    uint256 _value\n  )\n    public\n    whenNotPaused\n    returns (bool)\n  {\n    return super.transfer(_to, _value);\n  }\n\n  function transferFrom(\n    address _from,\n    address _to,\n    uint256 _value\n  )\n    public\n    whenNotPaused\n    returns (bool)\n  {\n    return super.transferFrom(_from, _to, _value);\n  }\n\n  function approve(\n    address _spender,\n    uint256 _value\n  )\n    public\n    whenNotPaused\n    returns (bool)\n  {\n    return super.approve(_spender, _value);\n  }\n\n  function increaseApproval(\n    address _spender,\n    uint _addedValue\n  )\n    public\n    whenNotPaused\n    returns (bool success)\n  {\n    return super.increaseApproval(_spender, _addedValue);\n  }\n\n  function decreaseApproval(\n    address _spender,\n    uint _subtractedValue\n  )\n    public\n    whenNotPaused\n    returns (bool success)\n  {\n    return super.decreaseApproval(_spender, _subtractedValue);\n  }\n}\n\ncontract MenloToken is PausableToken, BurnableToken, CanReclaimToken {\n\n  // Token properties\n  string public constant name = 'Menlo One';\n  string public constant symbol = 'ONE';\n\n  uint8 public constant decimals = 18;\n  uint256 private constant token_factor = 10**uint256(decimals);\n\n  // 1 billion ONE tokens in units divisible up to 18 decimals\n  uint256 public constant INITIAL_SUPPLY    = 1000000000 * token_factor;\n\n  uint256 public constant PUBLICSALE_SUPPLY = 354000000 * token_factor;\n  uint256 public constant GROWTH_SUPPLY     = 246000000 * token_factor;\n  uint256 public constant TEAM_SUPPLY       = 200000000 * token_factor;\n  uint256 public constant ADVISOR_SUPPLY    = 100000000 * token_factor;\n  uint256 public constant PARTNER_SUPPLY    = 100000000 * token_factor;\n\n  /**\n   * @dev Magic value to be returned upon successful reception of Menlo Tokens\n   */\n  bytes4 internal constant ONE_RECEIVED = 0x150b7a03;\n\n  address public crowdsale;\n  address public teamTimelock;\n  address public advisorTimelock;\n\n  modifier notInitialized(address saleAddress) {\n    require(address(saleAddress) == address(0), \"Expected address to be null\");\n    _;\n  }\n\n  constructor(address _growth, address _teamTimelock, address _advisorTimelock, address _partner) public {\n    assert(INITIAL_SUPPLY > 0);\n    assert((PUBLICSALE_SUPPLY + GROWTH_SUPPLY + TEAM_SUPPLY + ADVISOR_SUPPLY + PARTNER_SUPPLY) == INITIAL_SUPPLY);\n\n    uint256 _poolTotal = GROWTH_SUPPLY + TEAM_SUPPLY + ADVISOR_SUPPLY + PARTNER_SUPPLY;\n    uint256 _availableForSales = INITIAL_SUPPLY - _poolTotal;\n\n    assert(_availableForSales == PUBLICSALE_SUPPLY);\n\n    teamTimelock = _teamTimelock;\n    advisorTimelock = _advisorTimelock;\n\n    mint(msg.sender, _availableForSales);\n    mint(_growth, GROWTH_SUPPLY);\n    mint(_teamTimelock, TEAM_SUPPLY);\n    mint(_advisorTimelock, ADVISOR_SUPPLY);\n    mint(_partner, PARTNER_SUPPLY);\n\n    assert(totalSupply_ == INITIAL_SUPPLY);\n    pause();\n  }\n\n  function initializeCrowdsale(address _crowdsale) public onlyOwner notInitialized(crowdsale) {\n    unpause();\n    transfer(_crowdsale, balances[msg.sender]);  // Transfer left over balance after private presale allocations\n    crowdsale = _crowdsale;\n    pause();\n    transferOwnership(_crowdsale);\n  }\n\n  function mint(address _to, uint256 _amount) internal {\n    balances[_to] = _amount;\n    totalSupply_ = totalSupply_.add(_amount);\n    emit Transfer(address(0), _to, _amount);\n  }\n\n  /**\n   * @dev Safely transfers the ownership of a given token ID to another address\n   * If the target address is a contract, it must implement `onERC721Received`,\n   * which is called upon a safe transfer, and return the magic value `bytes4(0x150b7a03)`;\n   * otherwise, the transfer is reverted.\n   * Requires the msg sender to be the owner, approved, or operator\n   * @param _to address to receive the tokens.  Must be a MenloTokenReceiver based contract\n   * @param _value uint256 number of tokens to transfer\n   * @param _action uint256 action to perform in target _to contract\n   * @param _data bytes data to send along with a safe transfer check\n   **/\n  function transferAndCall(address _to, uint256 _value, uint256 _action, bytes _data) public returns (bool) {\n    if (transfer(_to, _value)) {\n      require (MenloTokenReceiver(_to).onTokenReceived(msg.sender, _value, _action, _data) == ONE_RECEIVED, \"Target contract onTokenReceived failed\");\n      return true;\n    }\n\n    return false;\n  }\n}\n\ncontract MenloTokenReceiver {\n\n    /*\n     * @dev Address of the MenloToken contract\n     */\n    MenloToken token;\n\n    constructor(MenloToken _tokenContract) public {\n        token = _tokenContract;\n    }\n\n    /**\n     * @dev Magic value to be returned upon successful reception of Menlo Tokens\n     */\n    bytes4 internal constant ONE_RECEIVED = 0x150b7a03;\n\n    /**\n     * @dev Throws if called by any account other than the Menlo Token contract.\n     */\n    modifier onlyTokenContract() {\n        require(msg.sender == address(token));\n        _;\n    }\n\n    /**\n     * @notice Handle the receipt of Menlo Tokens\n     * @dev The MenloToken contract calls this function on the recipient\n     * after a `transferAndCall`. This function MAY throw to revert and reject the\n     * transfer. Return of other than the magic value MUST result in the\n     * transaction being reverted.\n     * Warning: this function must call the onlyTokenContract modifier to trust\n     * the transfer took place\n     * @param _from The address which previously owned the token\n     * @param _value Number of tokens that were transfered\n     * @param _action Used to define enumeration of possible functions to call\n     * @param _data Additional data with no specified format\n     * @return `bytes4(0x150b7a03)`\n     */\n    function onTokenReceived(\n        address _from,\n        uint256 _value,\n        uint256 _action,\n        bytes _data\n    ) public /* onlyTokenContract */ returns(bytes4);\n}\n\n",
  "sourcePath": "menlo-token/contracts/MenloToken.sol",
  "compiler": {
    "name": "solc",
    "version": "0.4.24+commit.e67f0147.Emscripten.clang"
  },
  "schemaVersion": "2.0.1",
  "updatedAt": "2018-09-28T16:31:43.757Z"
}