{
  "contractName": "PausableToken",
  "abi": [
    {
      "constant": true,
      "inputs": [],
      "name": "totalSupply",
      "outputs": [
        {
          "name": "",
          "type": "uint256"
        }
      ],
      "payable": false,
      "stateMutability": "view",
      "type": "function"
    },
    {
      "constant": false,
      "inputs": [],
      "name": "unpause",
      "outputs": [],
      "payable": false,
      "stateMutability": "nonpayable",
      "type": "function"
    },
    {
      "constant": true,
      "inputs": [],
      "name": "paused",
      "outputs": [
        {
          "name": "",
          "type": "bool"
        }
      ],
      "payable": false,
      "stateMutability": "view",
      "type": "function"
    },
    {
      "constant": true,
      "inputs": [
        {
          "name": "_owner",
          "type": "address"
        }
      ],
      "name": "balanceOf",
      "outputs": [
        {
          "name": "",
          "type": "uint256"
        }
      ],
      "payable": false,
      "stateMutability": "view",
      "type": "function"
    },
    {
      "constant": false,
      "inputs": [],
      "name": "renounceOwnership",
      "outputs": [],
      "payable": false,
      "stateMutability": "nonpayable",
      "type": "function"
    },
    {
      "constant": false,
      "inputs": [],
      "name": "pause",
      "outputs": [],
      "payable": false,
      "stateMutability": "nonpayable",
      "type": "function"
    },
    {
      "constant": true,
      "inputs": [],
      "name": "owner",
      "outputs": [
        {
          "name": "",
          "type": "address"
        }
      ],
      "payable": false,
      "stateMutability": "view",
      "type": "function"
    },
    {
      "constant": true,
      "inputs": [
        {
          "name": "_owner",
          "type": "address"
        },
        {
          "name": "_spender",
          "type": "address"
        }
      ],
      "name": "allowance",
      "outputs": [
        {
          "name": "",
          "type": "uint256"
        }
      ],
      "payable": false,
      "stateMutability": "view",
      "type": "function"
    },
    {
      "constant": false,
      "inputs": [
        {
          "name": "_newOwner",
          "type": "address"
        }
      ],
      "name": "transferOwnership",
      "outputs": [],
      "payable": false,
      "stateMutability": "nonpayable",
      "type": "function"
    },
    {
      "anonymous": false,
      "inputs": [],
      "name": "Pause",
      "type": "event"
    },
    {
      "anonymous": false,
      "inputs": [],
      "name": "Unpause",
      "type": "event"
    },
    {
      "anonymous": false,
      "inputs": [
        {
          "indexed": true,
          "name": "previousOwner",
          "type": "address"
        }
      ],
      "name": "OwnershipRenounced",
      "type": "event"
    },
    {
      "anonymous": false,
      "inputs": [
        {
          "indexed": true,
          "name": "previousOwner",
          "type": "address"
        },
        {
          "indexed": true,
          "name": "newOwner",
          "type": "address"
        }
      ],
      "name": "OwnershipTransferred",
      "type": "event"
    },
    {
      "anonymous": false,
      "inputs": [
        {
          "indexed": true,
          "name": "owner",
          "type": "address"
        },
        {
          "indexed": true,
          "name": "spender",
          "type": "address"
        },
        {
          "indexed": false,
          "name": "value",
          "type": "uint256"
        }
      ],
      "name": "Approval",
      "type": "event"
    },
    {
      "anonymous": false,
      "inputs": [
        {
          "indexed": true,
          "name": "from",
          "type": "address"
        },
        {
          "indexed": true,
          "name": "to",
          "type": "address"
        },
        {
          "indexed": false,
          "name": "value",
          "type": "uint256"
        }
      ],
      "name": "Transfer",
      "type": "event"
    },
    {
      "constant": false,
      "inputs": [
        {
          "name": "_to",
          "type": "address"
        },
        {
          "name": "_value",
          "type": "uint256"
        }
      ],
      "name": "transfer",
      "outputs": [
        {
          "name": "",
          "type": "bool"
        }
      ],
      "payable": false,
      "stateMutability": "nonpayable",
      "type": "function"
    },
    {
      "constant": false,
      "inputs": [
        {
          "name": "_from",
          "type": "address"
        },
        {
          "name": "_to",
          "type": "address"
        },
        {
          "name": "_value",
          "type": "uint256"
        }
      ],
      "name": "transferFrom",
      "outputs": [
        {
          "name": "",
          "type": "bool"
        }
      ],
      "payable": false,
      "stateMutability": "nonpayable",
      "type": "function"
    },
    {
      "constant": false,
      "inputs": [
        {
          "name": "_spender",
          "type": "address"
        },
        {
          "name": "_value",
          "type": "uint256"
        }
      ],
      "name": "approve",
      "outputs": [
        {
          "name": "",
          "type": "bool"
        }
      ],
      "payable": false,
      "stateMutability": "nonpayable",
      "type": "function"
    },
    {
      "constant": false,
      "inputs": [
        {
          "name": "_spender",
          "type": "address"
        },
        {
          "name": "_addedValue",
          "type": "uint256"
        }
      ],
      "name": "increaseApproval",
      "outputs": [
        {
          "name": "success",
          "type": "bool"
        }
      ],
      "payable": false,
      "stateMutability": "nonpayable",
      "type": "function"
    },
    {
      "constant": false,
      "inputs": [
        {
          "name": "_spender",
          "type": "address"
        },
        {
          "name": "_subtractedValue",
          "type": "uint256"
        }
      ],
      "name": "decreaseApproval",
      "outputs": [
        {
          "name": "success",
          "type": "bool"
        }
      ],
      "payable": false,
      "stateMutability": "nonpayable",
      "type": "function"
    }
  ],
  "bytecode": "0x608060405260038054600160a860020a03191633179055610a7f806100256000396000f3006080604052600436106100cf5763ffffffff7c0100000000000000000000000000000000000000000000000000000000600035041663095ea7b381146100d457806318160ddd1461010c57806323b872dd146101335780633f4ba83a1461015d5780635c975abb14610174578063661884631461018957806370a08231146101ad578063715018a6146101ce5780638456cb59146101e35780638da5cb5b146101f8578063a9059cbb14610229578063d73dd6231461024d578063dd62ed3e14610271578063f2fde38b14610298575b600080fd5b3480156100e057600080fd5b506100f8600160a060020a03600435166024356102b9565b604080519115158252519081900360200190f35b34801561011857600080fd5b506101216102e4565b60408051918252519081900360200190f35b34801561013f57600080fd5b506100f8600160a060020a03600435811690602435166044356102ea565b34801561016957600080fd5b50610172610317565b005b34801561018057600080fd5b506100f861038f565b34801561019557600080fd5b506100f8600160a060020a036004351660243561039f565b3480156101b957600080fd5b50610121600160a060020a03600435166103c3565b3480156101da57600080fd5b506101726103de565b3480156101ef57600080fd5b5061017261044c565b34801561020457600080fd5b5061020d6104c9565b60408051600160a060020a039092168252519081900360200190f35b34801561023557600080fd5b506100f8600160a060020a03600435166024356104d8565b34801561025957600080fd5b506100f8600160a060020a03600435166024356104fc565b34801561027d57600080fd5b50610121600160a060020a0360043581169060243516610520565b3480156102a457600080fd5b50610172600160a060020a036004351661054b565b60035460009060a060020a900460ff16156102d357600080fd5b6102dd838361056e565b9392505050565b60015490565b60035460009060a060020a900460ff161561030457600080fd5b61030f8484846105d4565b949350505050565b600354600160a060020a0316331461032e57600080fd5b60035460a060020a900460ff16151561034657600080fd5b6003805474ff0000000000000000000000000000000000000000191690556040517f7805862f689e2f13df9f062ff482ad3ad112aca9e0847911ed832e158c525b3390600090a1565b60035460a060020a900460ff1681565b60035460009060a060020a900460ff16156103b957600080fd5b6102dd8383610749565b600160a060020a031660009081526020819052604090205490565b600354600160a060020a031633146103f557600080fd5b600354604051600160a060020a03909116907ff8df31144d9c2f0f6b59d69b8b98abd5459d07f2742c4df920b25aae33c6482090600090a26003805473ffffffffffffffffffffffffffffffffffffffff19169055565b600354600160a060020a0316331461046357600080fd5b60035460a060020a900460ff161561047a57600080fd5b6003805474ff0000000000000000000000000000000000000000191660a060020a1790556040517f6985a02210a168e66602d3235cb6db0e70f92b3ba4d376a33c0f3d9434bff62590600090a1565b600354600160a060020a031681565b60035460009060a060020a900460ff16156104f257600080fd5b6102dd8383610838565b60035460009060a060020a900460ff161561051657600080fd5b6102dd8383610917565b600160a060020a03918216600090815260026020908152604080832093909416825291909152205490565b600354600160a060020a0316331461056257600080fd5b61056b816109b0565b50565b336000818152600260209081526040808320600160a060020a038716808552908352818420869055815186815291519394909390927f8c5be1e5ebec7d5bd14f71427d1e84f3dd0314c0f7b2291e5b200ac8c7c3b925928290030190a350600192915050565b600160a060020a0383166000908152602081905260408120548211156105f957600080fd5b600160a060020a038416600090815260026020908152604080832033845290915290205482111561062957600080fd5b600160a060020a038316151561063e57600080fd5b600160a060020a038416600090815260208190526040902054610667908363ffffffff610a2e16565b600160a060020a03808616600090815260208190526040808220939093559085168152205461069c908363ffffffff610a4016565b600160a060020a038085166000908152602081815260408083209490945591871681526002825282812033825290915220546106de908363ffffffff610a2e16565b600160a060020a03808616600081815260026020908152604080832033845282529182902094909455805186815290519287169391927fddf252ad1be2c89b69c2b068fc378daa952ba7f163c4a11628f55a4df523b3ef929181900390910190a35060019392505050565b336000908152600260209081526040808320600160a060020a038616845290915281205480831061079d57336000908152600260209081526040808320600160a060020a03881684529091528120556107d2565b6107ad818463ffffffff610a2e16565b336000908152600260209081526040808320600160a060020a03891684529091529020555b336000818152600260209081526040808320600160a060020a0389168085529083529281902054815190815290519293927f8c5be1e5ebec7d5bd14f71427d1e84f3dd0314c0f7b2291e5b200ac8c7c3b925929181900390910190a35060019392505050565b3360009081526020819052604081205482111561085457600080fd5b600160a060020a038316151561086957600080fd5b33600090815260208190526040902054610889908363ffffffff610a2e16565b3360009081526020819052604080822092909255600160a060020a038516815220546108bb908363ffffffff610a4016565b600160a060020a038416600081815260208181526040918290209390935580518581529051919233927fddf252ad1be2c89b69c2b068fc378daa952ba7f163c4a11628f55a4df523b3ef9281900390910190a350600192915050565b336000908152600260209081526040808320600160a060020a038616845290915281205461094b908363ffffffff610a4016565b336000818152600260209081526040808320600160a060020a0389168085529083529281902085905580519485525191937f8c5be1e5ebec7d5bd14f71427d1e84f3dd0314c0f7b2291e5b200ac8c7c3b925929081900390910190a350600192915050565b600160a060020a03811615156109c557600080fd5b600354604051600160a060020a038084169216907f8be0079c531659141344cd1fd0a4f28419497f9722a3daafe3b4186f6b6457e090600090a36003805473ffffffffffffffffffffffffffffffffffffffff1916600160a060020a0392909216919091179055565b600082821115610a3a57fe5b50900390565b81810182811015610a4d57fe5b929150505600a165627a7a72305820cdb5c8d76ec22f99fde603aa21e08689d54216b523cd7796e9232c66e60905030029",
  "source": "pragma solidity ^0.4.13;\n\nlibrary SafeMath {\n\n  /**\n  * @dev Multiplies two numbers, throws on overflow.\n  */\n  function mul(uint256 _a, uint256 _b) internal pure returns (uint256 c) {\n    // Gas optimization: this is cheaper than asserting 'a' not being zero, but the\n    // benefit is lost if 'b' is also tested.\n    // See: https://github.com/OpenZeppelin/openzeppelin-solidity/pull/522\n    if (_a == 0) {\n      return 0;\n    }\n\n    c = _a * _b;\n    assert(c / _a == _b);\n    return c;\n  }\n\n  /**\n  * @dev Integer division of two numbers, truncating the quotient.\n  */\n  function div(uint256 _a, uint256 _b) internal pure returns (uint256) {\n    // assert(_b > 0); // Solidity automatically throws when dividing by 0\n    // uint256 c = _a / _b;\n    // assert(_a == _b * c + _a % _b); // There is no case in which this doesn't hold\n    return _a / _b;\n  }\n\n  /**\n  * @dev Subtracts two numbers, throws on overflow (i.e. if subtrahend is greater than minuend).\n  */\n  function sub(uint256 _a, uint256 _b) internal pure returns (uint256) {\n    assert(_b <= _a);\n    return _a - _b;\n  }\n\n  /**\n  * @dev Adds two numbers, throws on overflow.\n  */\n  function add(uint256 _a, uint256 _b) internal pure returns (uint256 c) {\n    c = _a + _b;\n    assert(c >= _a);\n    return c;\n  }\n}\n\ncontract Ownable {\n  address public owner;\n\n\n  event OwnershipRenounced(address indexed previousOwner);\n  event OwnershipTransferred(\n    address indexed previousOwner,\n    address indexed newOwner\n  );\n\n\n  /**\n   * @dev The Ownable constructor sets the original `owner` of the contract to the sender\n   * account.\n   */\n  constructor() public {\n    owner = msg.sender;\n  }\n\n  /**\n   * @dev Throws if called by any account other than the owner.\n   */\n  modifier onlyOwner() {\n    require(msg.sender == owner);\n    _;\n  }\n\n  /**\n   * @dev Allows the current owner to relinquish control of the contract.\n   * @notice Renouncing to ownership will leave the contract without an owner.\n   * It will not be possible to call the functions with the `onlyOwner`\n   * modifier anymore.\n   */\n  function renounceOwnership() public onlyOwner {\n    emit OwnershipRenounced(owner);\n    owner = address(0);\n  }\n\n  /**\n   * @dev Allows the current owner to transfer control of the contract to a newOwner.\n   * @param _newOwner The address to transfer ownership to.\n   */\n  function transferOwnership(address _newOwner) public onlyOwner {\n    _transferOwnership(_newOwner);\n  }\n\n  /**\n   * @dev Transfers control of the contract to a newOwner.\n   * @param _newOwner The address to transfer ownership to.\n   */\n  function _transferOwnership(address _newOwner) internal {\n    require(_newOwner != address(0));\n    emit OwnershipTransferred(owner, _newOwner);\n    owner = _newOwner;\n  }\n}\n\ncontract Pausable is Ownable {\n  event Pause();\n  event Unpause();\n\n  bool public paused = false;\n\n\n  /**\n   * @dev Modifier to make a function callable only when the contract is not paused.\n   */\n  modifier whenNotPaused() {\n    require(!paused);\n    _;\n  }\n\n  /**\n   * @dev Modifier to make a function callable only when the contract is paused.\n   */\n  modifier whenPaused() {\n    require(paused);\n    _;\n  }\n\n  /**\n   * @dev called by the owner to pause, triggers stopped state\n   */\n  function pause() public onlyOwner whenNotPaused {\n    paused = true;\n    emit Pause();\n  }\n\n  /**\n   * @dev called by the owner to unpause, returns to normal state\n   */\n  function unpause() public onlyOwner whenPaused {\n    paused = false;\n    emit Unpause();\n  }\n}\n\ncontract CanReclaimToken is Ownable {\n  using SafeERC20 for ERC20Basic;\n\n  /**\n   * @dev Reclaim all ERC20Basic compatible tokens\n   * @param _token ERC20Basic The address of the token contract\n   */\n  function reclaimToken(ERC20Basic _token) external onlyOwner {\n    uint256 balance = _token.balanceOf(this);\n    _token.safeTransfer(owner, balance);\n  }\n\n}\n\ncontract ERC20Basic {\n  function totalSupply() public view returns (uint256);\n  function balanceOf(address _who) public view returns (uint256);\n  function transfer(address _to, uint256 _value) public returns (bool);\n  event Transfer(address indexed from, address indexed to, uint256 value);\n}\n\ncontract BasicToken is ERC20Basic {\n  using SafeMath for uint256;\n\n  mapping(address => uint256) internal balances;\n\n  uint256 internal totalSupply_;\n\n  /**\n  * @dev Total number of tokens in existence\n  */\n  function totalSupply() public view returns (uint256) {\n    return totalSupply_;\n  }\n\n  /**\n  * @dev Transfer token for a specified address\n  * @param _to The address to transfer to.\n  * @param _value The amount to be transferred.\n  */\n  function transfer(address _to, uint256 _value) public returns (bool) {\n    require(_value <= balances[msg.sender]);\n    require(_to != address(0));\n\n    balances[msg.sender] = balances[msg.sender].sub(_value);\n    balances[_to] = balances[_to].add(_value);\n    emit Transfer(msg.sender, _to, _value);\n    return true;\n  }\n\n  /**\n  * @dev Gets the balance of the specified address.\n  * @param _owner The address to query the the balance of.\n  * @return An uint256 representing the amount owned by the passed address.\n  */\n  function balanceOf(address _owner) public view returns (uint256) {\n    return balances[_owner];\n  }\n\n}\n\ncontract BurnableToken is BasicToken {\n\n  event Burn(address indexed burner, uint256 value);\n\n  /**\n   * @dev Burns a specific amount of tokens.\n   * @param _value The amount of token to be burned.\n   */\n  function burn(uint256 _value) public {\n    _burn(msg.sender, _value);\n  }\n\n  function _burn(address _who, uint256 _value) internal {\n    require(_value <= balances[_who]);\n    // no need to require value <= totalSupply, since that would imply the\n    // sender's balance is greater than the totalSupply, which *should* be an assertion failure\n\n    balances[_who] = balances[_who].sub(_value);\n    totalSupply_ = totalSupply_.sub(_value);\n    emit Burn(_who, _value);\n    emit Transfer(_who, address(0), _value);\n  }\n}\n\ncontract ERC20 is ERC20Basic {\n  function allowance(address _owner, address _spender)\n    public view returns (uint256);\n\n  function transferFrom(address _from, address _to, uint256 _value)\n    public returns (bool);\n\n  function approve(address _spender, uint256 _value) public returns (bool);\n  event Approval(\n    address indexed owner,\n    address indexed spender,\n    uint256 value\n  );\n}\n\nlibrary SafeERC20 {\n  function safeTransfer(\n    ERC20Basic _token,\n    address _to,\n    uint256 _value\n  )\n    internal\n  {\n    require(_token.transfer(_to, _value));\n  }\n\n  function safeTransferFrom(\n    ERC20 _token,\n    address _from,\n    address _to,\n    uint256 _value\n  )\n    internal\n  {\n    require(_token.transferFrom(_from, _to, _value));\n  }\n\n  function safeApprove(\n    ERC20 _token,\n    address _spender,\n    uint256 _value\n  )\n    internal\n  {\n    require(_token.approve(_spender, _value));\n  }\n}\n\ncontract StandardToken is ERC20, BasicToken {\n\n  mapping (address => mapping (address => uint256)) internal allowed;\n\n\n  /**\n   * @dev Transfer tokens from one address to another\n   * @param _from address The address which you want to send tokens from\n   * @param _to address The address which you want to transfer to\n   * @param _value uint256 the amount of tokens to be transferred\n   */\n  function transferFrom(\n    address _from,\n    address _to,\n    uint256 _value\n  )\n    public\n    returns (bool)\n  {\n    require(_value <= balances[_from]);\n    require(_value <= allowed[_from][msg.sender]);\n    require(_to != address(0));\n\n    balances[_from] = balances[_from].sub(_value);\n    balances[_to] = balances[_to].add(_value);\n    allowed[_from][msg.sender] = allowed[_from][msg.sender].sub(_value);\n    emit Transfer(_from, _to, _value);\n    return true;\n  }\n\n  /**\n   * @dev Approve the passed address to spend the specified amount of tokens on behalf of msg.sender.\n   * Beware that changing an allowance with this method brings the risk that someone may use both the old\n   * and the new allowance by unfortunate transaction ordering. One possible solution to mitigate this\n   * race condition is to first reduce the spender's allowance to 0 and set the desired value afterwards:\n   * https://github.com/ethereum/EIPs/issues/20#issuecomment-263524729\n   * @param _spender The address which will spend the funds.\n   * @param _value The amount of tokens to be spent.\n   */\n  function approve(address _spender, uint256 _value) public returns (bool) {\n    allowed[msg.sender][_spender] = _value;\n    emit Approval(msg.sender, _spender, _value);\n    return true;\n  }\n\n  /**\n   * @dev Function to check the amount of tokens that an owner allowed to a spender.\n   * @param _owner address The address which owns the funds.\n   * @param _spender address The address which will spend the funds.\n   * @return A uint256 specifying the amount of tokens still available for the spender.\n   */\n  function allowance(\n    address _owner,\n    address _spender\n   )\n    public\n    view\n    returns (uint256)\n  {\n    return allowed[_owner][_spender];\n  }\n\n  /**\n   * @dev Increase the amount of tokens that an owner allowed to a spender.\n   * approve should be called when allowed[_spender] == 0. To increment\n   * allowed value is better to use this function to avoid 2 calls (and wait until\n   * the first transaction is mined)\n   * From MonolithDAO Token.sol\n   * @param _spender The address which will spend the funds.\n   * @param _addedValue The amount of tokens to increase the allowance by.\n   */\n  function increaseApproval(\n    address _spender,\n    uint256 _addedValue\n  )\n    public\n    returns (bool)\n  {\n    allowed[msg.sender][_spender] = (\n      allowed[msg.sender][_spender].add(_addedValue));\n    emit Approval(msg.sender, _spender, allowed[msg.sender][_spender]);\n    return true;\n  }\n\n  /**\n   * @dev Decrease the amount of tokens that an owner allowed to a spender.\n   * approve should be called when allowed[_spender] == 0. To decrement\n   * allowed value is better to use this function to avoid 2 calls (and wait until\n   * the first transaction is mined)\n   * From MonolithDAO Token.sol\n   * @param _spender The address which will spend the funds.\n   * @param _subtractedValue The amount of tokens to decrease the allowance by.\n   */\n  function decreaseApproval(\n    address _spender,\n    uint256 _subtractedValue\n  )\n    public\n    returns (bool)\n  {\n    uint256 oldValue = allowed[msg.sender][_spender];\n    if (_subtractedValue >= oldValue) {\n      allowed[msg.sender][_spender] = 0;\n    } else {\n      allowed[msg.sender][_spender] = oldValue.sub(_subtractedValue);\n    }\n    emit Approval(msg.sender, _spender, allowed[msg.sender][_spender]);\n    return true;\n  }\n\n}\n\ncontract PausableToken is StandardToken, Pausable {\n\n  function transfer(\n    address _to,\n    uint256 _value\n  )\n    public\n    whenNotPaused\n    returns (bool)\n  {\n    return super.transfer(_to, _value);\n  }\n\n  function transferFrom(\n    address _from,\n    address _to,\n    uint256 _value\n  )\n    public\n    whenNotPaused\n    returns (bool)\n  {\n    return super.transferFrom(_from, _to, _value);\n  }\n\n  function approve(\n    address _spender,\n    uint256 _value\n  )\n    public\n    whenNotPaused\n    returns (bool)\n  {\n    return super.approve(_spender, _value);\n  }\n\n  function increaseApproval(\n    address _spender,\n    uint _addedValue\n  )\n    public\n    whenNotPaused\n    returns (bool success)\n  {\n    return super.increaseApproval(_spender, _addedValue);\n  }\n\n  function decreaseApproval(\n    address _spender,\n    uint _subtractedValue\n  )\n    public\n    whenNotPaused\n    returns (bool success)\n  {\n    return super.decreaseApproval(_spender, _subtractedValue);\n  }\n}\n\ncontract MenloToken is PausableToken, BurnableToken, CanReclaimToken {\n\n  // Token properties\n  string public constant name = 'Menlo One';\n  string public constant symbol = 'ONE';\n\n  uint8 public constant decimals = 18;\n  uint256 private constant token_factor = 10**uint256(decimals);\n\n  // 1 billion ONE tokens in units divisible up to 18 decimals\n  uint256 public constant INITIAL_SUPPLY    = 1000000000 * token_factor;\n\n  uint256 public constant PUBLICSALE_SUPPLY = 354000000 * token_factor;\n  uint256 public constant GROWTH_SUPPLY     = 246000000 * token_factor;\n  uint256 public constant TEAM_SUPPLY       = 200000000 * token_factor;\n  uint256 public constant ADVISOR_SUPPLY    = 100000000 * token_factor;\n  uint256 public constant PARTNER_SUPPLY    = 100000000 * token_factor;\n\n  /**\n   * @dev Magic value to be returned upon successful reception of Menlo Tokens\n   */\n  bytes4 internal constant ONE_RECEIVED = 0x150b7a03;\n\n  address public crowdsale;\n  address public teamTimelock;\n  address public advisorTimelock;\n\n  modifier notInitialized(address saleAddress) {\n    require(address(saleAddress) == address(0), \"Expected address to be null\");\n    _;\n  }\n\n  constructor(address _growth, address _teamTimelock, address _advisorTimelock, address _partner) public {\n    assert(INITIAL_SUPPLY > 0);\n    assert((PUBLICSALE_SUPPLY + GROWTH_SUPPLY + TEAM_SUPPLY + ADVISOR_SUPPLY + PARTNER_SUPPLY) == INITIAL_SUPPLY);\n\n    uint256 _poolTotal = GROWTH_SUPPLY + TEAM_SUPPLY + ADVISOR_SUPPLY + PARTNER_SUPPLY;\n    uint256 _availableForSales = INITIAL_SUPPLY - _poolTotal;\n\n    assert(_availableForSales == PUBLICSALE_SUPPLY);\n\n    teamTimelock = _teamTimelock;\n    advisorTimelock = _advisorTimelock;\n\n    mint(msg.sender, _availableForSales);\n    mint(_growth, GROWTH_SUPPLY);\n    mint(_teamTimelock, TEAM_SUPPLY);\n    mint(_advisorTimelock, ADVISOR_SUPPLY);\n    mint(_partner, PARTNER_SUPPLY);\n\n    assert(totalSupply_ == INITIAL_SUPPLY);\n    pause();\n  }\n\n  function initializeCrowdsale(address _crowdsale) public onlyOwner notInitialized(crowdsale) {\n    unpause();\n    transfer(_crowdsale, balances[msg.sender]);  // Transfer left over balance after private presale allocations\n    crowdsale = _crowdsale;\n    pause();\n    transferOwnership(_crowdsale);\n  }\n\n  function mint(address _to, uint256 _amount) internal {\n    balances[_to] = _amount;\n    totalSupply_ = totalSupply_.add(_amount);\n    emit Transfer(address(0), _to, _amount);\n  }\n\n  /**\n   * @dev Safely transfers the ownership of a given token ID to another address\n   * If the target address is a contract, it must implement `onERC721Received`,\n   * which is called upon a safe transfer, and return the magic value `bytes4(0x150b7a03)`;\n   * otherwise, the transfer is reverted.\n   * Requires the msg sender to be the owner, approved, or operator\n   * @param _to address to receive the tokens.  Must be a MenloTokenReceiver based contract\n   * @param _value uint256 number of tokens to transfer\n   * @param _action uint256 action to perform in target _to contract\n   * @param _data bytes data to send along with a safe transfer check\n   **/\n  function transferAndCall(address _to, uint256 _value, uint256 _action, bytes _data) public returns (bool) {\n    if (transfer(_to, _value)) {\n      require (MenloTokenReceiver(_to).onTokenReceived(msg.sender, _value, _action, _data) == ONE_RECEIVED, \"Target contract onTokenReceived failed\");\n      return true;\n    }\n\n    return false;\n  }\n}\n\ncontract MenloTokenReceiver {\n\n    /*\n     * @dev Address of the MenloToken contract\n     */\n    MenloToken token;\n\n    constructor(MenloToken _tokenContract) public {\n        token = _tokenContract;\n    }\n\n    /**\n     * @dev Magic value to be returned upon successful reception of Menlo Tokens\n     */\n    bytes4 internal constant ONE_RECEIVED = 0x150b7a03;\n\n    /**\n     * @dev Throws if called by any account other than the Menlo Token contract.\n     */\n    modifier onlyTokenContract() {\n        require(msg.sender == address(token));\n        _;\n    }\n\n    /**\n     * @notice Handle the receipt of Menlo Tokens\n     * @dev The MenloToken contract calls this function on the recipient\n     * after a `transferAndCall`. This function MAY throw to revert and reject the\n     * transfer. Return of other than the magic value MUST result in the\n     * transaction being reverted.\n     * Warning: this function must call the onlyTokenContract modifier to trust\n     * the transfer took place\n     * @param _from The address which previously owned the token\n     * @param _value Number of tokens that were transfered\n     * @param _action Used to define enumeration of possible functions to call\n     * @param _data Additional data with no specified format\n     * @return `bytes4(0x150b7a03)`\n     */\n    function onTokenReceived(\n        address _from,\n        uint256 _value,\n        uint256 _action,\n        bytes _data\n    ) public /* onlyTokenContract */ returns(bytes4);\n}\n\ncontract BytesDecode {\n\n    function decodeUint(bytes b, uint index) internal pure returns (uint256 result, uint i) {\n        uint c = 0;\n\n        require(uint(b[index++]) == 34, \"Expected \\\" for var\"); // \"\n\n        for (i = index; i < b.length && uint(b[i]) != 34; i++) {\n            c = uint(b[i]);\n            if (c >= 48 && c <= 57) {\n                result = result * 10 + (c - 48);\n            }\n        }\n        i += 2;\n    }\n\n    function decodeAddress(bytes b, uint index) internal pure returns (address result, uint i) {\n        uint c = 0;\n        uint256 r = 0;\n\n        require(b.length - index > 3, \"Expected \\\"0x for var\");\n        require(uint(b[index++]) == 34, \"Expected \\\" for var\");  // \"\n        require(uint(b[index++]) == 48, \"Expected 0 for var\");  // 0\n        require(uint(b[index++]) == 120, \"Expected x for var\"); // x\n\n        for (i = index; i < b.length && uint(b[i]) != 34; i++) {\n            c = uint(b[i]);\n\n            if (c >= 48 && c <= 57) {\n                r = r * 16 + (c - 48);\n            } else\n                if (c >= 65 && c <= 70) {\n                    r = r * 16 + (c - 65 + 10);\n                } else\n                    if (c >= 97 && c <= 102) {\n                        r = r * 16 + (c - 97 + 10);\n                    }\n        }\n        i += 2;\n\n        result = address(r);\n    }\n\n    function decodeBytes32(bytes b, uint index) internal pure returns (bytes32 result, uint i) {\n        uint r = 0;\n        uint c = 0;\n        bytes32 b32;\n\n        require(b.length - index > 3, \"Expected \\\"0x for var\");\n        require(uint(b[index++]) == 34, \"Expected \\\" for var\");  // \"\n        require(uint(b[index++]) == 48, \"Expected 0 for var\");  // 0\n        require(uint(b[index++]) == 120, \"Expected x for var\"); // x\n\n        for (i = index; i < b.length && uint(b[i]) != 34; i++) {\n            c = uint(b[i]);\n\n            if (c >= 48 && c <= 57) {\n                c = c - 48;\n            } else\n                if (c >= 65 && c <= 70) {\n                    c = c - 65 + 10;\n                } else\n                    if (c >= 97 && c <= 102) {\n                        c = c - 97 + 10;\n                    }\n\n            require (r <= 63, \"byte32 can't be longer than 32 bytes\");\n            b32 |= bytes32(c & 0xF) << ((63-r++) * 4);\n        }\n        i += 2;\n\n        result = b32;\n    }\n}\n\ncontract MenloForumEvents {\n    // the total ordering of all events on a smart contract is defined\n    // a parent of 0x0 indicates root topic\n    // by convention, the bytes32 is a keccak-256 content hash\n    // the multihash prefix for this is 1b,20\n    event Answer(bytes32 contentHash);\n    event Comment(bytes32 _parentHash, bytes32 contentHash);\n    event Payout(address _user, uint256 _tokens);\n    event Vote(uint32 _offset, int32 _direction);\n}\n\ncontract MenloForumCallback {\n    function onForumClosed(MenloForum _forum, uint256 _tokens, int32 _votes, address _winner) public;\n}\n\ncontract MenloForum is MenloTokenReceiver, MenloForumEvents, BytesDecode, Ownable, CanReclaimToken {\n\n    uint public constant ACTION_POST     = 1;\n    uint public constant ACTION_UPVOTE   = 2;\n    uint public constant ACTION_DOWNVOTE = 3;\n\n    MenloForumCallback callback;\n\n    bytes32 public topicHash;\n    address public author;\n    uint256 public voteCost;\n    uint256 public postCost;\n\n    uint256 public endTimestamp;\n    uint256 public epochLength;\n\n    mapping(uint32 => int32) public votes;\n    mapping(uint32 => mapping(address => int8)) public voters;\n    address[] public posters;\n    bytes32[] public messages;\n\n    uint256 public pool;\n    int32   public winningVotes;\n    uint32  public winningOffset;\n    bool    private closed;\n\n\n    constructor(MenloToken _token, MenloForumCallback _callback, address _author, bytes32 _topicHash, uint256 _postCost, uint256 _voteCost, uint256 _epochLength) public MenloTokenReceiver(_token) {\n\n        // Push 0 so empty memory (0) doesn't overlap with a voter\n        posters.push(0);\n        emit Answer(0);\n\n        // no author for root post 0\n        callback = _callback;\n        author = _author;\n        topicHash = _topicHash;\n        voteCost = _voteCost;\n        postCost = _postCost;\n        epochLength = _epochLength;\n        endTimestamp = now + epochLength;\n        pool = token.balanceOf(this);\n    }\n\n    function getVoters(uint32 i, address user) public view returns (int8) {\n        return voters[i][user];\n    }\n\n    function postCount() public view returns (uint256) {\n        return posters.length;\n    }\n\n    function votesCount() public view returns (uint256) {\n        return posters.length;\n    }\n\n    function claimed() external view returns (bool) {\n        return token.balanceOf(this) == 0 && pool != 0;\n    }\n\n    function winner() public view returns (address) {\n        if (winningOffset == 0) {\n            return author;\n        }\n\n        return posters[winningOffset];\n    }\n\n\n\n    function vote(address _voter, uint32 _offset, int8 _direction) internal {\n        int8 priorVote = voters[_offset][_voter];\n\n        require (priorVote != _direction, \"Can't vote for same comment more than 1 time\");\n\n        votes[_offset] += _direction;\n        voters[_offset][_voter] = priorVote + _direction;\n        endTimestamp = now + epochLength;\n\n        emit Vote(_offset, _direction);\n\n        if (votes[_offset] > winningVotes) {\n            winningVotes = votes[_offset];\n            winningOffset = _offset;\n            return;\n        }\n\n        if (votes[_offset] == winningVotes && _offset < winningOffset) {\n            winningVotes = votes[_offset];\n            winningOffset = _offset;\n            return;\n        }\n    }\n\n    function pushMessage(bytes32 _message, address _poster) internal {\n        messages.push(_message);\n        posters.push(_poster);\n    }\n\n    function upvoteAndComment(address _voter, uint32 _offset, bytes32 _parentHash, bytes32 _contentHash) internal {\n        vote(_voter, _offset, 1);\n        if (_contentHash != 0) {\n            post(_voter, _parentHash, _contentHash);\n        }\n    }\n\n    function downvoteAndComment(address _voter, uint32 _offset, bytes32 _parentHash, bytes32 _contentHash) internal {\n        vote(_voter, _offset, -1);\n        if (_contentHash != 0) {\n            post(_voter, _parentHash, _contentHash);\n        }\n    }\n\n    function post(address _poster, bytes32 _parentHash, bytes32 _contentHash) internal {\n        if (_parentHash == 0x0) {\n            emit Comment(_parentHash, _contentHash);\n            return;\n        }\n\n        emit Answer(_contentHash);\n        voters[uint32(posters.length)][_poster] = 1;\n        pushMessage(_contentHash, _poster);\n        endTimestamp = now + epochLength;\n    }\n\n    function closeForum() internal returns (bool) {\n        if (closed) {\n            return true;\n        }\n\n        if (now > endTimestamp) {\n            return false;\n        }\n\n        if (winner() == author) {\n            callback.onForumClosed(this, pool, 0, 0);\n        } else {\n            callback.onForumClosed(this, pool, winningVotes, winner());\n        }\n\n        closed = true;\n        return true;\n    }\n\n    modifier forumOpen() {\n        require(!closeForum(), \"Forum is closed\");\n        _;\n    }\n\n    modifier forumClosed() {\n        require(closeForum(), \"Forum is open\");\n        _;\n    }\n\n    function usesONE(uint256 _value, uint256 _cost) internal pure returns (bool) {\n        return (_value >= _cost);\n    }\n\n    function claim() forumClosed external {\n        require(closeForum(), \"Forum not closed\");\n        require(msg.sender == winner(), \"Only winner can claim\");\n        require(pool > 0, \"No tokens left to claim\");\n\n        token.transfer(msg.sender, pool);\n        emit Payout(msg.sender, pool);\n    }\n\n    function onTokenReceived(\n        address _from,\n        uint256 _value,\n        uint256 _action,\n        bytes _data\n    ) public onlyTokenContract forumOpen returns(bytes4) {\n\n        uint offset;\n        uint i;\n\n        pool = token.balanceOf(this);\n\n        if (_action == ACTION_UPVOTE) {\n            require(usesONE(_value, voteCost), \"Voting tokens sent != cost\");\n\n            (offset, i)      = decodeUint(_data, 1);\n            (parentHash, i)  = decodeBytes32(_data, i);\n            (contentHash, i) = decodeBytes32(_data, i);\n\n            upvoteAndComment(_from, uint32(offset), parentHash, contentHash);\n            return ONE_RECEIVED;\n        }\n\n        if (_action == ACTION_DOWNVOTE) {\n            require(usesONE(_value, voteCost), \"Voting tokens sent != cost\");\n\n            (offset, i)      = decodeUint(_data, 1);\n            (parentHash, i)  = decodeBytes32(_data, i);\n            (contentHash, i) = decodeBytes32(_data, i);\n\n            downvoteAndComment(_from, uint32(offset), parentHash, contentHash);\n            return ONE_RECEIVED;\n        }\n\n        if (_action == ACTION_POST) {\n            require(usesONE(_value, postCost), \"Posting tokens sent != cost\");\n\n            bytes32 parentHash;\n            bytes32 contentHash;\n\n            (parentHash, i)  = decodeBytes32(_data, 1);\n            (contentHash, i) = decodeBytes32(_data, i);\n\n            post(_from, parentHash, contentHash);\n            return ONE_RECEIVED;\n        }\n\n        return 0;\n    }\n\n    //\n    // This exists purely for the case where Menlo ONE tokens need upgrading\n    //\n\n    function redeem(Redeemer _redeemer) external onlyOwner returns (MenloToken) {\n        require(_redeemer.from() == token);\n\n        token.approve(_redeemer, token.balanceOf(this));\n        _redeemer.redeem();\n        MenloToken to = _redeemer.to();\n        token = to;\n        return to;\n    }\n\n    function undo(Redeemer _redeemer) external onlyOwner returns (MenloToken) {\n        require(_redeemer.to() == token);\n\n        token.approve(_redeemer, token.balanceOf(this));\n        _redeemer.undo();\n        MenloToken from = _redeemer.from();\n        token = from;\n        return from;\n    }\n}\n\ncontract MenloTopicEvents {\n    // the total ordering of all events on a smart contract is defined\n    // a parent of 0x0 indicates root topic\n    // by convention, the bytes32 is a keccak-256 content hash\n    // the multihash prefix for this is 1b,20\n    event Topic(bytes32 _topicHash, MenloForum _forum);\n}\n\ncontract MenloTopics is MenloForumCallback, MenloTokenReceiver, MenloTopicEvents, BytesDecode, Ownable, CanReclaimToken {\n\n    struct ForumMetadata {\n        bytes32 message;\n        bool    closed;\n        uint256 payout;\n        int32   votes;\n        address winner;\n    }\n\n    uint public constant ACTION_NEWTOPIC = 1;\n\n    MenloToken public token;\n    uint256 public topicCost;\n\n    mapping(address => string) public alias;\n    mapping(address => uint256) public reputation;\n    mapping(address => ForumMetadata) public forums;\n\n    constructor(MenloToken _token, uint256 _topicCost) public {\n        token = _token;\n        topicCost = _topicCost;\n    }\n\n    function setAlias(string _alias) public {\n        alias[msg.sender] = _alias;\n    }\n\n    modifier isForum() {\n        require(forums[msg.sender].message != 0, \"Sender must be forum\");\n        _;\n    }\n\n    function addReputation(address _user, uint _rep) public isForum {\n        reputation[_user] += _rep;\n    }\n\n    function usesONE(uint256 _value, uint256 _cost) internal pure returns (bool) {\n        return (_cost <= _value);\n    }\n\n    function createForum(address _from, bytes32 _topicHash, uint256 _bounty, uint256 _length) private {\n        MenloForum forum = new MenloForum( token, this, _from, _topicHash, 5 * 10**18 /*postCost*/, 0 /*voteCost*/, _length);\n        forums[forum] = ForumMetadata(_topicHash,false,0,0,0);\n        token.transfer(forum, _bounty);\n        emit Topic( _topicHash, forum);\n    }\n\n    function onTokenReceived(\n        address _from,\n        uint256 _value,\n        uint256 _action,\n        bytes _data\n    ) public onlyTokenContract returns(bytes4) {\n        uint i;\n\n        if (_action == ACTION_NEWTOPIC) {\n            require(usesONE(_value, topicCost), \"New topic tokens sent < cost\");\n\n            bytes32 topicHash;\n            uint256 length;\n\n            (topicHash, i) = decodeBytes32(_data, 1);\n            (length, i)    = decodeUint(_data, i);\n\n            createForum(_from, topicHash, _value, length);\n            return ONE_RECEIVED;\n        }\n\n        return 0;\n    }\n\n    function onForumClosed(MenloForum _forum, uint256 _tokens, int32 _votes, address _winner) public {\n        forums[_forum].closed = true;\n        forums[_forum].payout = _tokens;\n        forums[_forum].votes  = _votes;\n        forums[_forum].winner = _winner;\n    }\n}\n\ninterface Redeemer {\n    function redeem() external;\n    function undo() external;\n    function to() external view returns (MenloToken);\n    function from() external view returns (MenloToken);\n}\n\n",
  "sourcePath": "/Users/dave/Code/block-overflow/contracts/MenloTopics.sol",
  "compiler": {
    "name": "solc",
    "version": "0.4.24+commit.e67f0147.Emscripten.clang"
  },
  "schemaVersion": "2.0.1",
  "updatedAt": "2018-09-27T20:42:31.198Z"
}